{
  "_format": "hh-sol-artifact-1",
  "contractName": "TheEpics",
  "sourceName": "contracts/TheEpics.sol",
  "abi": [
    {
      "inputs": [],
      "stateMutability": "nonpayable",
      "type": "constructor"
    },
    {
      "anonymous": false,
      "inputs": [
        {
          "indexed": true,
          "internalType": "address",
          "name": "owner",
          "type": "address"
        },
        {
          "indexed": true,
          "internalType": "address",
          "name": "approved",
          "type": "address"
        },
        {
          "indexed": true,
          "internalType": "uint256",
          "name": "tokenId",
          "type": "uint256"
        }
      ],
      "name": "Approval",
      "type": "event"
    },
    {
      "anonymous": false,
      "inputs": [
        {
          "indexed": true,
          "internalType": "address",
          "name": "owner",
          "type": "address"
        },
        {
          "indexed": true,
          "internalType": "address",
          "name": "operator",
          "type": "address"
        },
        {
          "indexed": false,
          "internalType": "bool",
          "name": "approved",
          "type": "bool"
        }
      ],
      "name": "ApprovalForAll",
      "type": "event"
    },
    {
      "anonymous": false,
      "inputs": [
        {
          "indexed": false,
          "internalType": "uint256",
          "name": "id",
          "type": "uint256"
        },
        {
          "indexed": false,
          "internalType": "address",
          "name": "from",
          "type": "address"
        }
      ],
      "name": "EpicMinted",
      "type": "event"
    },
    {
      "anonymous": false,
      "inputs": [
        {
          "indexed": true,
          "internalType": "address",
          "name": "from",
          "type": "address"
        },
        {
          "indexed": true,
          "internalType": "address",
          "name": "to",
          "type": "address"
        },
        {
          "indexed": true,
          "internalType": "uint256",
          "name": "tokenId",
          "type": "uint256"
        }
      ],
      "name": "Transfer",
      "type": "event"
    },
    {
      "inputs": [],
      "name": "MAX_MINT_COUNT",
      "outputs": [
        {
          "internalType": "uint256",
          "name": "",
          "type": "uint256"
        }
      ],
      "stateMutability": "view",
      "type": "function"
    },
    {
      "inputs": [
        {
          "internalType": "address",
          "name": "to",
          "type": "address"
        },
        {
          "internalType": "uint256",
          "name": "tokenId",
          "type": "uint256"
        }
      ],
      "name": "approve",
      "outputs": [],
      "stateMutability": "nonpayable",
      "type": "function"
    },
    {
      "inputs": [
        {
          "internalType": "address",
          "name": "owner",
          "type": "address"
        }
      ],
      "name": "balanceOf",
      "outputs": [
        {
          "internalType": "uint256",
          "name": "",
          "type": "uint256"
        }
      ],
      "stateMutability": "view",
      "type": "function"
    },
    {
      "inputs": [],
      "name": "currentMintCount",
      "outputs": [
        {
          "internalType": "uint256",
          "name": "",
          "type": "uint256"
        }
      ],
      "stateMutability": "view",
      "type": "function"
    },
    {
      "inputs": [
        {
          "internalType": "uint256",
          "name": "tokenId",
          "type": "uint256"
        }
      ],
      "name": "getApproved",
      "outputs": [
        {
          "internalType": "address",
          "name": "",
          "type": "address"
        }
      ],
      "stateMutability": "view",
      "type": "function"
    },
    {
      "inputs": [],
      "name": "getMaxMintCount",
      "outputs": [
        {
          "internalType": "uint256",
          "name": "",
          "type": "uint256"
        }
      ],
      "stateMutability": "view",
      "type": "function"
    },
    {
      "inputs": [
        {
          "internalType": "address",
          "name": "owner",
          "type": "address"
        },
        {
          "internalType": "address",
          "name": "operator",
          "type": "address"
        }
      ],
      "name": "isApprovedForAll",
      "outputs": [
        {
          "internalType": "bool",
          "name": "",
          "type": "bool"
        }
      ],
      "stateMutability": "view",
      "type": "function"
    },
    {
      "inputs": [],
      "name": "makeAnEpicNFT",
      "outputs": [],
      "stateMutability": "nonpayable",
      "type": "function"
    },
    {
      "inputs": [],
      "name": "name",
      "outputs": [
        {
          "internalType": "string",
          "name": "",
          "type": "string"
        }
      ],
      "stateMutability": "view",
      "type": "function"
    },
    {
      "inputs": [
        {
          "internalType": "uint256",
          "name": "tokenId",
          "type": "uint256"
        }
      ],
      "name": "ownerOf",
      "outputs": [
        {
          "internalType": "address",
          "name": "",
          "type": "address"
        }
      ],
      "stateMutability": "view",
      "type": "function"
    },
    {
      "inputs": [
        {
          "internalType": "string",
          "name": "list_name",
          "type": "string"
        },
        {
          "internalType": "uint256",
          "name": "tokenId",
          "type": "uint256"
        },
        {
          "internalType": "string[]",
          "name": "list",
          "type": "string[]"
        }
      ],
      "name": "pickRandomWord",
      "outputs": [
        {
          "internalType": "string",
          "name": "",
          "type": "string"
        }
      ],
      "stateMutability": "view",
      "type": "function"
    },
    {
      "inputs": [
        {
          "internalType": "address",
          "name": "from",
          "type": "address"
        },
        {
          "internalType": "address",
          "name": "to",
          "type": "address"
        },
        {
          "internalType": "uint256",
          "name": "tokenId",
          "type": "uint256"
        }
      ],
      "name": "safeTransferFrom",
      "outputs": [],
      "stateMutability": "nonpayable",
      "type": "function"
    },
    {
      "inputs": [
        {
          "internalType": "address",
          "name": "from",
          "type": "address"
        },
        {
          "internalType": "address",
          "name": "to",
          "type": "address"
        },
        {
          "internalType": "uint256",
          "name": "tokenId",
          "type": "uint256"
        },
        {
          "internalType": "bytes",
          "name": "_data",
          "type": "bytes"
        }
      ],
      "name": "safeTransferFrom",
      "outputs": [],
      "stateMutability": "nonpayable",
      "type": "function"
    },
    {
      "inputs": [
        {
          "internalType": "address",
          "name": "operator",
          "type": "address"
        },
        {
          "internalType": "bool",
          "name": "approved",
          "type": "bool"
        }
      ],
      "name": "setApprovalForAll",
      "outputs": [],
      "stateMutability": "nonpayable",
      "type": "function"
    },
    {
      "inputs": [
        {
          "internalType": "bytes4",
          "name": "interfaceId",
          "type": "bytes4"
        }
      ],
      "name": "supportsInterface",
      "outputs": [
        {
          "internalType": "bool",
          "name": "",
          "type": "bool"
        }
      ],
      "stateMutability": "view",
      "type": "function"
    },
    {
      "inputs": [],
      "name": "symbol",
      "outputs": [
        {
          "internalType": "string",
          "name": "",
          "type": "string"
        }
      ],
      "stateMutability": "view",
      "type": "function"
    },
    {
      "inputs": [
        {
          "internalType": "uint256",
          "name": "tokenId",
          "type": "uint256"
        }
      ],
      "name": "tokenURI",
      "outputs": [
        {
          "internalType": "string",
          "name": "",
          "type": "string"
        }
      ],
      "stateMutability": "view",
      "type": "function"
    },
    {
      "inputs": [
        {
          "internalType": "address",
          "name": "from",
          "type": "address"
        },
        {
          "internalType": "address",
          "name": "to",
          "type": "address"
        },
        {
          "internalType": "uint256",
          "name": "tokenId",
          "type": "uint256"
        }
      ],
      "name": "transferFrom",
      "outputs": [],
      "stateMutability": "nonpayable",
      "type": "function"
    }
  ],
  "bytecode": "0x608060405260405180610100016040528060dc81526020016200e81860dc9139600890805190602001906200003692919062009f1e565b506040518061086001604052806040518060400160405280600681526020017f427269676874000000000000000000000000000000000000000000000000000081525081526020016040518060400160405280600581526020017f42726f776e00000000000000000000000000000000000000000000000000000081525081526020016040518060400160405280600681526020017f42726f776e65000000000000000000000000000000000000000000000000000081525081526020016040518060400160405280600981526020017f427275736866697265000000000000000000000000000000000000000000000081525081526020016040518060400160405280600481526020017f43616d700000000000000000000000000000000000000000000000000000000081525081526020016040518060400160405280600781526020017f43616d706d616e0000000000000000000000000000000000000000000000000081525081526020016040518060400160405280600681526020017f43616e796f6e000000000000000000000000000000000000000000000000000081525081526020016040518060400160405280600981526020017f437269636b65747473000000000000000000000000000000000000000000000081525081526020016040518060400160405280600881526020017f437269636b65747300000000000000000000000000000000000000000000000081525081526020016040518060400160405280600581526020017f44756e657300000000000000000000000000000000000000000000000000000081525081526020016040518060400160405280600581526020017f446f6f6e7300000000000000000000000000000000000000000000000000000081525081526020016040518060400160405280600681526020017f446f6f6e6573000000000000000000000000000000000000000000000000000081525081526020016040518060400160405280600581526020017f44756e6e6500000000000000000000000000000000000000000000000000000081525081526020016040518060400160405280600881526020017f44756e6e656d616e00000000000000000000000000000000000000000000000081525081526020016040518060400160405280600581526020017f466c61747300000000000000000000000000000000000000000000000000000081525081526020016040518060400160405280600381526020017f466f78000000000000000000000000000000000000000000000000000000000081525081526020016040518060400160405280600481526020017f466f78780000000000000000000000000000000000000000000000000000000081525081526020016040518060400160405280600481526020017f476f6c640000000000000000000000000000000000000000000000000000000081525081526020016040518060400160405280600681526020017f476f6c64656e000000000000000000000000000000000000000000000000000081525081526020016040518060400160405280600481526020017f477265790000000000000000000000000000000000000000000000000000000081525081526020016040518060400160405280600481526020017f477261790000000000000000000000000000000000000000000000000000000081525081526020016040518060400160405280600581526020017f47756c636800000000000000000000000000000000000000000000000000000081525081526020016040518060400160405280600581526020017f47756c6c7900000000000000000000000000000000000000000000000000000081525081526020016040518060400160405280600581526020017f486172647900000000000000000000000000000000000000000000000000000081525081526020016040518060400160405280600581526020017f48696c6c7300000000000000000000000000000000000000000000000000000081525081526020016040518060400160405280600481526020017f48696c6c0000000000000000000000000000000000000000000000000000000081525081526020016040518060400160405280600681526020017f486f70706572000000000000000000000000000000000000000000000000000081525081526020016040518060400160405280600681526020017f48756e746572000000000000000000000000000000000000000000000000000081525081526020016040518060400160405280600881526020017f48756e74736d616e00000000000000000000000000000000000000000000000081525081526020016040518060400160405280600581526020017f4d6172636800000000000000000000000000000000000000000000000000000081525081526020016040518060400160405280600781526020017f4d6172636865720000000000000000000000000000000000000000000000000081525081526020016040518060400160405280600481526020017f4d6f6f6e0000000000000000000000000000000000000000000000000000000081525081526020016040518060400160405280600781526020017f5265646d6f6f6e0000000000000000000000000000000000000000000000000081525081526020016040518060400160405280600681526020017f50616c6d6572000000000000000000000000000000000000000000000000000081525081526020016040518060400160405280600581526020017f50616c6d7300000000000000000000000000000000000000000000000000000081525081526020016040518060400160405280600881526020017f506561727472656500000000000000000000000000000000000000000000000081525081526020016040518060400160405280600781526020017f506561726d616e0000000000000000000000000000000000000000000000000081525081526020016040518060400160405280600481526020017f526564640000000000000000000000000000000000000000000000000000000081525081526020016040518060400160405280600381526020017f526564000000000000000000000000000000000000000000000000000000000081525081526020016040518060400160405280600581526020017f526964657200000000000000000000000000000000000000000000000000000081525081526020016040518060400160405280600581526020017f527964657200000000000000000000000000000000000000000000000000000081525081526020016040518060400160405280600481526020017f526f636b0000000000000000000000000000000000000000000000000000000081525081526020016040518060400160405280600781526020017f526f636b6d616e0000000000000000000000000000000000000000000000000081525081526020016040518060400160405280600481526020017f526f636b0000000000000000000000000000000000000000000000000000000081525081526020016040518060400160405280600781526020017f526f636b6d616e0000000000000000000000000000000000000000000000000081525081526020016040518060400160405280600681526020017f526f636b6572000000000000000000000000000000000000000000000000000081525081526020016040518060400160405280600581526020017f53616e647300000000000000000000000000000000000000000000000000000081525081526020016040518060400160405280600681526020017f5363616c6573000000000000000000000000000000000000000000000000000081525081526020016040518060400160405280600881526020017f5265647363616c6500000000000000000000000000000000000000000000000081525081526020016040518060400160405280600981526020017f477265797363616c65000000000000000000000000000000000000000000000081525081526020016040518060400160405280600681526020017f53696e676572000000000000000000000000000000000000000000000000000081525081526020016040518060400160405280600581526020017f536d616c6c00000000000000000000000000000000000000000000000000000081525081526020016040518060400160405280600681526020017f536d616c6c73000000000000000000000000000000000000000000000000000081525081526020016040518060400160405280600481526020017f537461720000000000000000000000000000000000000000000000000000000081525081526020016040518060400160405280600581526020017f537461727200000000000000000000000000000000000000000000000000000081525081526020016040518060400160405280600581526020017f53746f6e6500000000000000000000000000000000000000000000000000000081525081526020016040518060400160405280600881526020017f53746f6e656d616e00000000000000000000000000000000000000000000000081525081526020016040518060400160405280600581526020017f53746f726d00000000000000000000000000000000000000000000000000000081525081526020016040518060400160405280600681526020017f53746f726d73000000000000000000000000000000000000000000000000000081525081526020016040518060400160405280600781526020017f537472696465720000000000000000000000000000000000000000000000000081525081526020016040518060400160405280600781526020017f537472796465720000000000000000000000000000000000000000000000000081525081526020016040518060400160405280600481526020017f53756e6e0000000000000000000000000000000000000000000000000000000081525081526020016040518060400160405280600681526020017f53756e6e6572000000000000000000000000000000000000000000000000000081525081526020016040518060400160405280600a81526020017f54756d626c65776565640000000000000000000000000000000000000000000081525081526020016040518060400160405280600681526020017f57616c6b6572000000000000000000000000000000000000000000000000000081525081526020016040518060400160405280600581526020017f576174657200000000000000000000000000000000000000000000000000000081525081526020016040518060400160405280600781526020017f5761747465727300000000000000000000000000000000000000000000000000815250815250600990604362000fc492919062009faf565b50604051806110a001604052806040518060400160405280600981526020017f4170706c6574726565000000000000000000000000000000000000000000000081525081526020016040518060400160405280600681526020017f4170706c6572000000000000000000000000000000000000000000000000000081525081526020016040518060400160405280600681526020017f4170706c696e000000000000000000000000000000000000000000000000000081525081526020016040518060400160405280600681526020017f4261726c6579000000000000000000000000000000000000000000000000000081525081526020016040518060400160405280600a81526020017f4261726c6579636f726e0000000000000000000000000000000000000000000081525081526020016040518060400160405280600a81526020017f4261726c657977696e650000000000000000000000000000000000000000000081525081526020016040518060400160405280600581526020017f4261726e7300000000000000000000000000000000000000000000000000000081525081526020016040518060400160405280600681526020017f4261726e6573000000000000000000000000000000000000000000000000000081525081526020016040518060400160405280600781526020017f4261726e6172640000000000000000000000000000000000000000000000000081525081526020016040518060400160405280600581526020017f4265616e7300000000000000000000000000000000000000000000000000000081525081526020016040518060400160405280600781526020017f4265616e6d616e0000000000000000000000000000000000000000000000000081525081526020016040518060400160405280600981526020017f4265616e7374616c6b000000000000000000000000000000000000000000000081525081526020016040518060400160405280600581526020017f426572727900000000000000000000000000000000000000000000000000000081525081526020016040518060400160405280600981526020017f42657272796c616e64000000000000000000000000000000000000000000000081525081526020016040518060400160405280600581526020017f426c6f6f6d00000000000000000000000000000000000000000000000000000081525081526020016040518060400160405280600981526020017f426c6f6f6d6c616e64000000000000000000000000000000000000000000000081525081526020016040518060400160405280600581526020017f42726f776e00000000000000000000000000000000000000000000000000000081525081526020016040518060400160405280600981526020017f42726f776e6c616e64000000000000000000000000000000000000000000000081525081526020016040518060400160405280600881526020017f42726f776e61726400000000000000000000000000000000000000000000000081525081526020016040518060400160405280600481526020017f42756c6c0000000000000000000000000000000000000000000000000000000081525081526020016040518060400160405280600881526020017f42756c6c7961726400000000000000000000000000000000000000000000000081525081526020016040518060400160405280600781526020017f436162626167650000000000000000000000000000000000000000000000000081525081526020016040518060400160405280600781526020017f4b6162626167650000000000000000000000000000000000000000000000000081525081526020016040518060400160405280600681526020017f436f74746f6e000000000000000000000000000000000000000000000000000081525081526020016040518060400160405280600a81526020017f436f74746f6e736565640000000000000000000000000000000000000000000081525081526020016040518060400160405280600681526020017f43726f707065000000000000000000000000000000000000000000000000000081525081526020016040518060400160405280600781526020017f43726f706d616e0000000000000000000000000000000000000000000000000081525081526020016040518060400160405280600881526020017f44616972796d616e00000000000000000000000000000000000000000000000081525081526020016040518060400160405280600881526020017f44617272796d616e00000000000000000000000000000000000000000000000081525081526020016040518060400160405280600581526020017f446172727900000000000000000000000000000000000000000000000000000081525081526020016040518060400160405280600581526020017f446572727900000000000000000000000000000000000000000000000000000081525081526020016040518060400160405280600681526020017f4661726d6572000000000000000000000000000000000000000000000000000081525081526020016040518060400160405280600681526020017f4661726d6f72000000000000000000000000000000000000000000000000000081525081526020016040518060400160405280600681526020017f4669656c6473000000000000000000000000000000000000000000000000000081525081526020016040518060400160405280600781526020017f4669656c6465720000000000000000000000000000000000000000000000000081525081526020016040518060400160405280600881526020017f4669656c646d616e00000000000000000000000000000000000000000000000081525081526020016040518060400160405280600581526020017f466c61747300000000000000000000000000000000000000000000000000000081525081526020016040518060400160405280600881526020017f526564666c61747300000000000000000000000000000000000000000000000081525081526020016040518060400160405280600981526020017f53616e64666c617473000000000000000000000000000000000000000000000081525081526020016040518060400160405280600a81526020017f53746f6e65666c6174730000000000000000000000000000000000000000000081525081526020016040518060400160405280600781526020017f466c6f776572730000000000000000000000000000000000000000000000000081525081526020016040518060400160405280600781526020017f476172646e65720000000000000000000000000000000000000000000000000081525081526020016040518060400160405280600881526020017f47617264656e657200000000000000000000000000000000000000000000000081525081526020016040518060400160405280600881526020017f47617264696e657200000000000000000000000000000000000000000000000081525081526020016040518060400160405280600581526020017f477265656e00000000000000000000000000000000000000000000000000000081525081526020016040518060400160405280600681526020017f477265656e65000000000000000000000000000000000000000000000000000081525081526020016040518060400160405280600981526020017f477265656e6c616e64000000000000000000000000000000000000000000000081525081526020016040518060400160405280600981526020017f477265656e79617264000000000000000000000000000000000000000000000081525081526020016040518060400160405280600581526020017f47726f766500000000000000000000000000000000000000000000000000000081525081526020016040518060400160405280600981526020017f47726f76656c616e64000000000000000000000000000000000000000000000081525081526020016040518060400160405280600481526020017f486179730000000000000000000000000000000000000000000000000000000081525081526020016040518060400160405280600581526020017f486179657300000000000000000000000000000000000000000000000000000081525081526020016040518060400160405280600781526020017f486179776172640000000000000000000000000000000000000000000000000081525081526020016040518060400160405280600981526020017f48656e6b6565706572000000000000000000000000000000000000000000000081525081526020016040518060400160405280600981526020017f48656e6e65726d616e000000000000000000000000000000000000000000000081525081526020016040518060400160405280600481526020017f486572640000000000000000000000000000000000000000000000000000000081525081526020016040518060400160405280600481526020017f487572640000000000000000000000000000000000000000000000000000000081525081526020016040518060400160405280600881526020017f486572646c616e6400000000000000000000000000000000000000000000000081525081526020016040518060400160405280600481526020017f4c616e640000000000000000000000000000000000000000000000000000000081525081526020016040518060400160405280600681526020017f4c616e646572000000000000000000000000000000000000000000000000000081525081526020016040518060400160405280600581526020017f4d6172657300000000000000000000000000000000000000000000000000000081525081526020016040518060400160405280600481526020017f4d6179720000000000000000000000000000000000000000000000000000000081525081526020016040518060400160405280600481526020017f4d6169720000000000000000000000000000000000000000000000000000000081525081526020016040518060400160405280600781526020017f4d6561646f77730000000000000000000000000000000000000000000000000081525081526020016040518060400160405280600481526020017f4d696c6b0000000000000000000000000000000000000000000000000000000081525081526020016040518060400160405280600681526020017f4d696c6c6574000000000000000000000000000000000000000000000000000081525081526020016040518060400160405280600781526020017f4d696c6c6574740000000000000000000000000000000000000000000000000081525081526020016040518060400160405280600581526020017f4d696c6c7300000000000000000000000000000000000000000000000000000081525081526020016040518060400160405280600681526020017f4d696c6c6572000000000000000000000000000000000000000000000000000081525081526020016040518060400160405280600781526020017f4d696c6c6172640000000000000000000000000000000000000000000000000081525081526020016040518060400160405280600581526020017f4e6565707300000000000000000000000000000000000000000000000000000081525081526020016040518060400160405280600881526020017f4e6565706c616e6400000000000000000000000000000000000000000000000081525081526020016040518060400160405280600481526020017f4e7574740000000000000000000000000000000000000000000000000000000081525081526020016040518060400160405280600681526020017f4e75746d616e000000000000000000000000000000000000000000000000000081525081526020016040518060400160405280600581526020017f4f6174657300000000000000000000000000000000000000000000000000000081525081526020016040518060400160405280600481526020017f4f6174730000000000000000000000000000000000000000000000000000000081525081526020016040518060400160405280600881526020017f4f7665726c616e6400000000000000000000000000000000000000000000000081525081526020016040518060400160405280600981526020017f4f7665726669656c64000000000000000000000000000000000000000000000081525081526020016040518060400160405280600881526020017f506561727472656500000000000000000000000000000000000000000000000081525081526020016040518060400160405280600781526020017f506561726d616e0000000000000000000000000000000000000000000000000081525081526020016040518060400160405280600581526020017f506561736500000000000000000000000000000000000000000000000000000081525081526020016040518060400160405280600681526020017f506561706f64000000000000000000000000000000000000000000000000000081525081526020016040518060400160405280600781526020017f506561626f64790000000000000000000000000000000000000000000000000081525081526020016040518060400160405280600681526020017f5069636b6574000000000000000000000000000000000000000000000000000081525081526020016040518060400160405280600881526020017f5069636b6574747300000000000000000000000000000000000000000000000081525081526020016040518060400160405280600781526020017f5069636b656e730000000000000000000000000000000000000000000000000081525081526020016040518060400160405280600781526020017f5069636b6d616e0000000000000000000000000000000000000000000000000081525081526020016040518060400160405280600581526020017f506c616e7400000000000000000000000000000000000000000000000000000081525081526020016040518060400160405280600781526020017f506c616e7465720000000000000000000000000000000000000000000000000081525081526020016040518060400160405280600981526020017f506c6f7567686d616e000000000000000000000000000000000000000000000081525081526020016040518060400160405280600781526020017f506c6f776d616e0000000000000000000000000000000000000000000000000081525081526020016040518060400160405280600b81526020017f506c6f75676865726d616e00000000000000000000000000000000000000000081525081526020016040518060400160405280600681526020017f506f6c6c656e000000000000000000000000000000000000000000000000000081525081526020016040518060400160405280600681526020017f506f6c6c696e000000000000000000000000000000000000000000000000000081525081526020016040518060400160405280600581526020017f506f6c6c7900000000000000000000000000000000000000000000000000000081525081526020016040518060400160405280600781526020017f506f6c6c6172640000000000000000000000000000000000000000000000000081525081526020016040518060400160405280600581526020017f5261696e7300000000000000000000000000000000000000000000000000000081525081526020016040518060400160405280600681526020017f5261696e6573000000000000000000000000000000000000000000000000000081525081526020016040518060400160405280600581526020017f5261796e7300000000000000000000000000000000000000000000000000000081525081526020016040518060400160405280600681526020017f5261796e6573000000000000000000000000000000000000000000000000000081525081526020016040518060400160405280600781526020017f5261696e6172640000000000000000000000000000000000000000000000000081525081526020016040518060400160405280600481526020017f526f6f740000000000000000000000000000000000000000000000000000000081525081526020016040518060400160405280600581526020017f526f6f746500000000000000000000000000000000000000000000000000000081525081526020016040518060400160405280600781526020017f5275746c616e640000000000000000000000000000000000000000000000000081525081526020016040518060400160405280600881526020017f536865706865726400000000000000000000000000000000000000000000000081525081526020016040518060400160405280600781526020017f536865706172640000000000000000000000000000000000000000000000000081525081526020016040518060400160405280600781526020017f536865707972640000000000000000000000000000000000000000000000000081525081526020016040518060400160405280600781526020017f536865617265720000000000000000000000000000000000000000000000000081525081526020016040518060400160405280600781526020017f536865657265720000000000000000000000000000000000000000000000000081525081526020016040518060400160405280600681526020017f536865617273000000000000000000000000000000000000000000000000000081525081526020016040518060400160405280600681526020017f536865657273000000000000000000000000000000000000000000000000000081525081526020016040518060400160405280600581526020017f536f77657200000000000000000000000000000000000000000000000000000081525081526020016040518060400160405280600681526020017f536f77617264000000000000000000000000000000000000000000000000000081525081526020016040518060400160405280600481526020017f546174650000000000000000000000000000000000000000000000000000000081525081526020016040518060400160405280600581526020017f546174657200000000000000000000000000000000000000000000000000000081525081526020016040518060400160405280600681526020017f546872657368000000000000000000000000000000000000000000000000000081525081526020016040518060400160405280600981526020017f546872657368657474000000000000000000000000000000000000000000000081525081526020016040518060400160405280600681526020017f54696c6c6572000000000000000000000000000000000000000000000000000081525081526020016040518060400160405280600781526020017f54696c6c6d616e0000000000000000000000000000000000000000000000000081525081526020016040518060400160405280600581526020017f56696e657300000000000000000000000000000000000000000000000000000081525081526020016040518060400160405280600881526020017f56696e656c616e6400000000000000000000000000000000000000000000000081525081526020016040518060400160405280600881526020017f57686561746c657900000000000000000000000000000000000000000000000081525081526020016040518060400160405280600781526020017f57686561746c790000000000000000000000000000000000000000000000000081525081526020016040518060400160405280600581526020017f576865617400000000000000000000000000000000000000000000000000000081525081526020016040518060400160405280600981526020017f5768697474616b6572000000000000000000000000000000000000000000000081525081526020016040518060400160405280600781526020017f576869746172640000000000000000000000000000000000000000000000000081525081526020016040518060400160405280600781526020017f57696e6e6f77730000000000000000000000000000000000000000000000000081525081526020016040518060400160405280600881526020017f57696e6e6f77657200000000000000000000000000000000000000000000000081525081526020016040518060400160405280600481526020017f576f6f6c0000000000000000000000000000000000000000000000000000000081525081526020016040518060400160405280600781526020017f576f6f6c6172640000000000000000000000000000000000000000000000000081525081526020016040518060400160405280600681526020017f596172646c79000000000000000000000000000000000000000000000000000081525081526020016040518060400160405280600781526020017f596172646c65790000000000000000000000000000000000000000000000000081525081526020016040518060400160405280600581526020017f5961726473000000000000000000000000000000000000000000000000000000815250815250600a90608562002e889291906200a016565b506040518061092001604052806040518060400160405280600481526020017f416c65730000000000000000000000000000000000000000000000000000000081525081526020016040518060400160405280600681526020017f416c656d616e000000000000000000000000000000000000000000000000000081525081526020016040518060400160405280600481526020017f416c65720000000000000000000000000000000000000000000000000000000081525081526020016040518060400160405280600581526020017f42616b657200000000000000000000000000000000000000000000000000000081525081526020016040518060400160405280600481526020017f42616b650000000000000000000000000000000000000000000000000000000081525081526020016040518060400160405280600781526020017f42616b656c65720000000000000000000000000000000000000000000000000081525081526020016040518060400160405280600481526020017f426172720000000000000000000000000000000000000000000000000000000081525081526020016040518060400160405280600581526020017f426172726500000000000000000000000000000000000000000000000000000081525081526020016040518060400160405280600681526020017f4261726d616e000000000000000000000000000000000000000000000000000081525081526020016040518060400160405280600581526020017f426572727900000000000000000000000000000000000000000000000000000081525081526020016040518060400160405280600881526020017f42657272796d616e00000000000000000000000000000000000000000000000081525081526020016040518060400160405280600881526020017f42657272696d616e00000000000000000000000000000000000000000000000081525081526020016040518060400160405280600581526020017f426f796c6500000000000000000000000000000000000000000000000000000081525081526020016040518060400160405280600681526020017f426f696c6573000000000000000000000000000000000000000000000000000081525081526020016040518060400160405280600681526020017f426f796c6573000000000000000000000000000000000000000000000000000081525081526020016040518060400160405280600681526020017f427265776572000000000000000000000000000000000000000000000000000081525081526020016040518060400160405280600881526020017f427265777374657200000000000000000000000000000000000000000000000081525081526020016040518060400160405280600781526020017f42726f796c65730000000000000000000000000000000000000000000000000081525081526020016040518060400160405280600781526020017f42726f696c65730000000000000000000000000000000000000000000000000081525081526020016040518060400160405280600781526020017f42726f796c65720000000000000000000000000000000000000000000000000081525081526020016040518060400160405280600781526020017f427574636865720000000000000000000000000000000000000000000000000081525081526020016040518060400160405280600881526020017f427574636865747400000000000000000000000000000000000000000000000081525081526020016040518060400160405280600481526020017f436f6f6b0000000000000000000000000000000000000000000000000000000081525081526020016040518060400160405280600481526020017f446963650000000000000000000000000000000000000000000000000000000081525081526020016040518060400160405280600a81526020017f446f75676865726d616e0000000000000000000000000000000000000000000081525081526020016040518060400160405280600781526020017f446f75676865720000000000000000000000000000000000000000000000000081525081526020016040518060400160405280600381526020017f467279000000000000000000000000000000000000000000000000000000000081525081526020016040518060400160405280600481526020017f467265790000000000000000000000000000000000000000000000000000000081525081526020016040518060400160405280600681526020017f4672796d616e000000000000000000000000000000000000000000000000000081525081526020016040518060400160405280600781526020017f476172646e65720000000000000000000000000000000000000000000000000081525081526020016040518060400160405280600881526020017f47617264656e657200000000000000000000000000000000000000000000000081525081526020016040518060400160405280600881526020017f47617264696e657200000000000000000000000000000000000000000000000081525081526020016040518060400160405280600681526020017f4772696c6c73000000000000000000000000000000000000000000000000000081525081526020016040518060400160405280600881526020017f4772696c6c65747400000000000000000000000000000000000000000000000081525081526020016040518060400160405280600581526020017f496e6e657300000000000000000000000000000000000000000000000000000081525081526020016040518060400160405280600681526020017f496e6e6d616e000000000000000000000000000000000000000000000000000081525081526020016040518060400160405280600581526020017f496e6d616e00000000000000000000000000000000000000000000000000000081525081526020016040518060400160405280600681526020017f4b6574746c65000000000000000000000000000000000000000000000000000081525081526020016040518060400160405280600b81526020017f4b6574746c65626c61636b00000000000000000000000000000000000000000081525081526020016040518060400160405280600981526020017f4b6574746c656d616e000000000000000000000000000000000000000000000081525081526020016040518060400160405280600881526020017f4b6e6561646c657200000000000000000000000000000000000000000000000081525081526020016040518060400160405280600881526020017f4b6e6561646d616e00000000000000000000000000000000000000000000000081525081526020016040518060400160405280600481526020017f4d696c6b0000000000000000000000000000000000000000000000000000000081525081526020016040518060400160405280600681526020017f4d696c6c6572000000000000000000000000000000000000000000000000000081525081526020016040518060400160405280600581526020017f4d696c6c7300000000000000000000000000000000000000000000000000000081525081526020016040518060400160405280600681526020017f4d696c6c6572000000000000000000000000000000000000000000000000000081525081526020016040518060400160405280600881526020017f50616c6577696e6500000000000000000000000000000000000000000000000081525081526020016040518060400160405280600381526020017f50616e000000000000000000000000000000000000000000000000000000000081525081526020016040518060400160405280600981526020017f50616e6e65726d616e000000000000000000000000000000000000000000000081525081526020016040518060400160405280600781526020017f50616e6e696e670000000000000000000000000000000000000000000000000081525081526020016040518060400160405280600781526020017f506570706572730000000000000000000000000000000000000000000000000081525081526020016040518060400160405280600681526020017f506570706572000000000000000000000000000000000000000000000000000081525081526020016040518060400160405280600781526020017f5069636b6c65720000000000000000000000000000000000000000000000000081525081526020016040518060400160405280600981526020017f5069636b6c656d616e000000000000000000000000000000000000000000000081525081526020016040518060400160405280600781526020017f5069636b6c65730000000000000000000000000000000000000000000000000081525081526020016040518060400160405280600681526020017f5069656d616e000000000000000000000000000000000000000000000000000081525081526020016040518060400160405280600881526020017f5069656d616b657200000000000000000000000000000000000000000000000081525081526020016040518060400160405280600581526020017f506f74747300000000000000000000000000000000000000000000000000000081525081526020016040518060400160405280600481526020017f506f74740000000000000000000000000000000000000000000000000000000081525081526020016040518060400160405280600681526020017f506f74746572000000000000000000000000000000000000000000000000000081525081526020016040518060400160405280600781526020017f52656477696e650000000000000000000000000000000000000000000000000081525081526020016040518060400160405280600a81526020017f526f61737465726d616e0000000000000000000000000000000000000000000081525081526020016040518060400160405280600481526020017f53616c740000000000000000000000000000000000000000000000000000000081525081526020016040518060400160405280600681526020017f53616c746572000000000000000000000000000000000000000000000000000081525081526020016040518060400160405280600581526020017f53696d6d7300000000000000000000000000000000000000000000000000000081525081526020016040518060400160405280600981526020017f53696d6d65726d616e000000000000000000000000000000000000000000000081525081526020016040518060400160405280600981526020017f536c61756768746572000000000000000000000000000000000000000000000081525081526020016040518060400160405280600581526020017f536d6f6b6500000000000000000000000000000000000000000000000000000081525081526020016040518060400160405280600681526020017f536d6f6b6572000000000000000000000000000000000000000000000000000081525081526020016040518060400160405280600581526020017f56696e657300000000000000000000000000000000000000000000000000000081525081526020016040518060400160405280600781526020017f56696e746e65720000000000000000000000000000000000000000000000000081525081526020016040518060400160405280600f81526020017f56696e616b65722057696e616b6572000000000000000000000000000000000081525081526020016040518060400160405280600781526020017f57696e656d616e00000000000000000000000000000000000000000000000000815250815250600b90604962003f789291906200a07d565b50604051806107e001604052806040518060400160405280600581526020017f426967677300000000000000000000000000000000000000000000000000000081525081526020016040518060400160405280600481526020017f426967670000000000000000000000000000000000000000000000000000000081525081526020016040518060400160405280600581526020017f427967677300000000000000000000000000000000000000000000000000000081525081526020016040518060400160405280600481526020017f43616d700000000000000000000000000000000000000000000000000000000081525081526020016040518060400160405280600781526020017f43616d706d616e0000000000000000000000000000000000000000000000000081525081526020016040518060400160405280600681526020017f436f61746573000000000000000000000000000000000000000000000000000081525081526020016040518060400160405280600581526020017f46726f737400000000000000000000000000000000000000000000000000000081525081526020016040518060400160405280600581526020017f467572727300000000000000000000000000000000000000000000000000000081525081526020016040518060400160405280600781526020017f467572726d616e0000000000000000000000000000000000000000000000000081525081526020016040518060400160405280600781526020017f47726179736b790000000000000000000000000000000000000000000000000081525081526020016040518060400160405280600881526020017f5768697465736b7900000000000000000000000000000000000000000000000081525081526020016040518060400160405280600881526020017f426c61636b736b7900000000000000000000000000000000000000000000000081525081526020016040518060400160405280600481526020017f477265790000000000000000000000000000000000000000000000000000000081525081526020016040518060400160405280600481526020017f477261790000000000000000000000000000000000000000000000000000000081525081526020016040518060400160405280600581526020017f486172647900000000000000000000000000000000000000000000000000000081525081526020016040518060400160405280600881526020017f4861726469736f6e00000000000000000000000000000000000000000000000081525081526020016040518060400160405280600881526020017f486172646c616e6400000000000000000000000000000000000000000000000081525081526020016040518060400160405280600781526020017f4861726c616e640000000000000000000000000000000000000000000000000081525081526020016040518060400160405280600581526020017f48696c6c7300000000000000000000000000000000000000000000000000000081525081526020016040518060400160405280600481526020017f48696c6c0000000000000000000000000000000000000000000000000000000081525081526020016040518060400160405280600581526020017f48796c6c7300000000000000000000000000000000000000000000000000000081525081526020016040518060400160405280600681526020017f48756e746572000000000000000000000000000000000000000000000000000081525081526020016040518060400160405280600881526020017f48756e74736d616e00000000000000000000000000000000000000000000000081525081526020016040518060400160405280600381526020017f496365000000000000000000000000000000000000000000000000000000000081525081526020016040518060400160405280600781526020017f4963656c616e640000000000000000000000000000000000000000000000000081525081526020016040518060400160405280600781526020017f49636577696e640000000000000000000000000000000000000000000000000081525081526020016040518060400160405280600981526020017f496365637574746572000000000000000000000000000000000000000000000081525081526020016040518060400160405280600781526020017f5963656c616e640000000000000000000000000000000000000000000000000081525081526020016040518060400160405280600781526020017f59636577696e640000000000000000000000000000000000000000000000000081525081526020016040518060400160405280600981526020017f596365637574746572000000000000000000000000000000000000000000000081525081526020016040518060400160405280600981526020017f4c6f6e676e69676874000000000000000000000000000000000000000000000081525081526020016040518060400160405280600881526020017f4c6f6e676461726b00000000000000000000000000000000000000000000000081525081526020016040518060400160405280600481526020017f4d6f6f6e0000000000000000000000000000000000000000000000000000000081525081526020016040518060400160405280600a81526020017f57696e7465726d6f6f6e0000000000000000000000000000000000000000000081525081526020016040518060400160405280600581526020017f4e6f72746800000000000000000000000000000000000000000000000000000081525081526020016040518060400160405280600881526020017f4e6f7274686d616e00000000000000000000000000000000000000000000000081525081526020016040518060400160405280600681526020017f4e6f726d616e000000000000000000000000000000000000000000000000000081525081526020016040518060400160405280600981526020017f4e6f7274686c616e64000000000000000000000000000000000000000000000081525081526020016040518060400160405280600781526020017f4e6f726c616e640000000000000000000000000000000000000000000000000081525081526020016040518060400160405280600381526020017f506978000000000000000000000000000000000000000000000000000000000081525081526020016040518060400160405280600781526020017f5069636b6d616e0000000000000000000000000000000000000000000000000081525081526020016040518060400160405280600681526020017f5069636b6573000000000000000000000000000000000000000000000000000081525081526020016040518060400160405280600681526020017f5079636b6573000000000000000000000000000000000000000000000000000081525081526020016040518060400160405280600681526020017f5365616c6573000000000000000000000000000000000000000000000000000081525081526020016040518060400160405280600581526020017f5365616c7300000000000000000000000000000000000000000000000000000081525081526020016040518060400160405280600681526020017f53696c766572000000000000000000000000000000000000000000000000000081525081526020016040518060400160405280600a81526020017f53696c7665726d6f6f6e0000000000000000000000000000000000000000000081525081526020016040518060400160405280600681526020017f53796c766572000000000000000000000000000000000000000000000000000081525081526020016040518060400160405280600481526020017f536e6f770000000000000000000000000000000000000000000000000000000081525081526020016040518060400160405280600681526020017f536e6f776573000000000000000000000000000000000000000000000000000081525081526020016040518060400160405280600481526020017f537461720000000000000000000000000000000000000000000000000000000081525081526020016040518060400160405280600581526020017f537461727200000000000000000000000000000000000000000000000000000081525081526020016040518060400160405280600981526020017f4e6f72746873746172000000000000000000000000000000000000000000000081525081526020016040518060400160405280600581526020017f53746f6e6500000000000000000000000000000000000000000000000000000081525081526020016040518060400160405280600881526020017f53746f6e656d616e00000000000000000000000000000000000000000000000081525081526020016040518060400160405280600781526020017f537472696465720000000000000000000000000000000000000000000000000081525081526020016040518060400160405280600781526020017f537472796465720000000000000000000000000000000000000000000000000081525081526020016040518060400160405280600681526020017f57616c6b6572000000000000000000000000000000000000000000000000000081525081526020016040518060400160405280600581526020017f576869746500000000000000000000000000000000000000000000000000000081525081526020016040518060400160405280600581526020017f576879746500000000000000000000000000000000000000000000000000000081525081526020016040518060400160405280600681526020017f57696e746572000000000000000000000000000000000000000000000000000081525081526020016040518060400160405280600781526020017f57696e746572730000000000000000000000000000000000000000000000000081525081526020016040518060400160405280600781526020017f57796e7465727300000000000000000000000000000000000000000000000000815250815250600c90603f62004e1a9291906200a0e4565b506040518061074001604052806040518060400160405280600681526020017f426f6262696e000000000000000000000000000000000000000000000000000081525081526020016040518060400160405280600481526020017f426f6c740000000000000000000000000000000000000000000000000000000081525081526020016040518060400160405280600581526020017f426f6c746500000000000000000000000000000000000000000000000000000081525081526020016040518060400160405280600681526020017f426f6c746572000000000000000000000000000000000000000000000000000081525081526020016040518060400160405280600681526020017f427574746f6e000000000000000000000000000000000000000000000000000081525081526020016040518060400160405280600b81526020017f427574746f6e776f72746800000000000000000000000000000000000000000081525081526020016040518060400160405280600681526020017f436170657273000000000000000000000000000000000000000000000000000081525081526020016040518060400160405280600681526020017f436f61746573000000000000000000000000000000000000000000000000000081525081526020016040518060400160405280600681526020017f436f74746f6e000000000000000000000000000000000000000000000000000081525081526020016040518060400160405280600481526020017f447965720000000000000000000000000000000000000000000000000000000081525081526020016040518060400160405280600381526020017f447965000000000000000000000000000000000000000000000000000000000081525081526020016040518060400160405280600881526020017f447965776f72746800000000000000000000000000000000000000000000000081525081526020016040518060400160405280600781526020017f44796572736f6e0000000000000000000000000000000000000000000000000081525081526020016040518060400160405280600581526020017f4479736f6e00000000000000000000000000000000000000000000000000000081525081526020016040518060400160405280600681526020017f46656c746572000000000000000000000000000000000000000000000000000081525081526020016040518060400160405280600981526020017f46656c7465726d616e000000000000000000000000000000000000000000000081525081526020016040518060400160405280600681526020017f476c6f766572000000000000000000000000000000000000000000000000000081525081526020016040518060400160405280600681526020017f486174746572000000000000000000000000000000000000000000000000000081525081526020016040518060400160405280600581526020017f486174747900000000000000000000000000000000000000000000000000000081525081526020016040518060400160405280600881526020017f48617474696d616e00000000000000000000000000000000000000000000000081525081526020016040518060400160405280600681526020017f486174736f6e000000000000000000000000000000000000000000000000000081525081526020016040518060400160405280600881526020017f48656d6d696e677300000000000000000000000000000000000000000000000081525081526020016040518060400160405280600781526020017f48656d696e67730000000000000000000000000000000000000000000000000081525081526020016040518060400160405280600681526020017f48656d736f6e000000000000000000000000000000000000000000000000000081525081526020016040518060400160405280600481526020017f487964650000000000000000000000000000000000000000000000000000000081525081526020016040518060400160405280600581526020017f486964657300000000000000000000000000000000000000000000000000000081525081526020016040518060400160405280600581526020017f487964657300000000000000000000000000000000000000000000000000000081525081526020016040518060400160405280600881526020017f4c6561746865727300000000000000000000000000000000000000000000000081525081526020016040518060400160405280600781526020017f4c6574686572730000000000000000000000000000000000000000000000000081525081526020016040518060400160405280600681526020017f4d6572636572000000000000000000000000000000000000000000000000000081525081526020016040518060400160405280600981526020017f4e6565646c656d616e000000000000000000000000000000000000000000000081525081526020016040518060400160405280600781526020017f4e6565646c65720000000000000000000000000000000000000000000000000081525081526020016040518060400160405280600b81526020017f4e6565646c65776f72746800000000000000000000000000000000000000000081525081526020016040518060400160405280600581526020017f5365616d7300000000000000000000000000000000000000000000000000000081525081526020016040518060400160405280600581526020017f5365656d7300000000000000000000000000000000000000000000000000000081525081526020016040518060400160405280600981526020017f5365656d776f727468000000000000000000000000000000000000000000000081525081526020016040518060400160405280600781526020017f536865617265720000000000000000000000000000000000000000000000000081525081526020016040518060400160405280600781526020017f536865657265720000000000000000000000000000000000000000000000000081525081526020016040518060400160405280600681526020017f536865617273000000000000000000000000000000000000000000000000000081525081526020016040518060400160405280600681526020017f536865657273000000000000000000000000000000000000000000000000000081525081526020016040518060400160405280600981526020017f53686f656d616b6572000000000000000000000000000000000000000000000081525081526020016040518060400160405280600881526020017f537469746368657300000000000000000000000000000000000000000000000081525081526020016040518060400160405280600b81526020017f537469746368776f72746800000000000000000000000000000000000000000081525081526020016040518060400160405280600681526020017f5461696c6f72000000000000000000000000000000000000000000000000000081525081526020016040518060400160405280600681526020017f5461796c6f72000000000000000000000000000000000000000000000000000081525081526020016040518060400160405280600681526020017f54616e6e6572000000000000000000000000000000000000000000000000000081525081526020016040518060400160405280600981526020017f54616e6e65726d616e000000000000000000000000000000000000000000000081525081526020016040518060400160405280600681526020017f546872656464000000000000000000000000000000000000000000000000000081525081526020016040518060400160405280600981526020017f5468726564646c6572000000000000000000000000000000000000000000000081525081526020016040518060400160405280600981526020017f5468726564646d616e000000000000000000000000000000000000000000000081525081526020016040518060400160405280600a81526020017f546872656464616b65720000000000000000000000000000000000000000000081525081526020016040518060400160405280600681526020017f576561766572000000000000000000000000000000000000000000000000000081525081526020016040518060400160405280600681526020017f576565766572000000000000000000000000000000000000000000000000000081525081526020016040518060400160405280600481526020017f576f6f6c0000000000000000000000000000000000000000000000000000000081525081526020016040518060400160405280600981526020017f576f6f6c776f727468000000000000000000000000000000000000000000000081525081526020016040518060400160405280600681526020017f596172646c79000000000000000000000000000000000000000000000000000081525081526020016040518060400160405280600781526020017f596172646c65790000000000000000000000000000000000000000000000000081525081526020016040518060400160405280600581526020017f5961726473000000000000000000000000000000000000000000000000000000815250815250600d90603a62005b959291906200a14b565b506040518061082001604052806040518060400160405280600381526020017f426179000000000000000000000000000000000000000000000000000000000081525081526020016040518060400160405280600581526020017f426179657300000000000000000000000000000000000000000000000000000081525081526020016040518060400160405280600581526020017f426179657200000000000000000000000000000000000000000000000000000081525081526020016040518060400160405280600681526020017f426179657273000000000000000000000000000000000000000000000000000081525081526020016040518060400160405280600781526020017f426561636865720000000000000000000000000000000000000000000000000081525081526020016040518060400160405280600581526020017f426561636800000000000000000000000000000000000000000000000000000081525081526020016040518060400160405280600481526020017f426c75650000000000000000000000000000000000000000000000000000000081525081526020016040518060400160405280600681526020017f426f776d616e000000000000000000000000000000000000000000000000000081525081526020016040518060400160405280600881526020017f436173746177617900000000000000000000000000000000000000000000000081525081526020016040518060400160405280600581526020017f437261626200000000000000000000000000000000000000000000000000000081525081526020016040518060400160405280600481526020017f437261620000000000000000000000000000000000000000000000000000000081525081526020016040518060400160405280600581526020017f437265737400000000000000000000000000000000000000000000000000000081525081526020016040518060400160405280600481526020017f446179730000000000000000000000000000000000000000000000000000000081525081526020016040518060400160405280600581526020017f446179657300000000000000000000000000000000000000000000000000000081525081526020016040518060400160405280600581526020017f44756e657300000000000000000000000000000000000000000000000000000081525081526020016040518060400160405280600581526020017f446f6f6e7300000000000000000000000000000000000000000000000000000081525081526020016040518060400160405280600681526020017f446f6f6e6573000000000000000000000000000000000000000000000000000081525081526020016040518060400160405280600581526020017f44756e6e6500000000000000000000000000000000000000000000000000000081525081526020016040518060400160405280600881526020017f44756e6e656d616e00000000000000000000000000000000000000000000000081525081526020016040518060400160405280600481526020017f456464790000000000000000000000000000000000000000000000000000000081525081526020016040518060400160405280600681526020017f466973686572000000000000000000000000000000000000000000000000000081525081526020016040518060400160405280600781526020017f466973686d616e0000000000000000000000000000000000000000000000000081525081526020016040518060400160405280600781526020017f466c6f776572730000000000000000000000000000000000000000000000000081525081526020016040518060400160405280600681526020017f486172706572000000000000000000000000000000000000000000000000000081525081526020016040518060400160405280600481526020017f486f6f6b0000000000000000000000000000000000000000000000000000000081525081526020016040518060400160405280600581526020017f486f6f6b6500000000000000000000000000000000000000000000000000000081525081526020016040518060400160405280600481526020017f496c65730000000000000000000000000000000000000000000000000000000081525081526020016040518060400160405280600581526020017f49736c657300000000000000000000000000000000000000000000000000000081525081526020016040518060400160405280600581526020017f41696c657300000000000000000000000000000000000000000000000000000081525081526020016040518060400160405280600481526020017f4d6173740000000000000000000000000000000000000000000000000000000081525081526020016040518060400160405280600681526020017f50616c6d6572000000000000000000000000000000000000000000000000000081525081526020016040518060400160405280600581526020017f50616c6d7300000000000000000000000000000000000000000000000000000081525081526020016040518060400160405280600681526020017f5261666d616e000000000000000000000000000000000000000000000000000081525081526020016040518060400160405280600781526020017f526166746d616e0000000000000000000000000000000000000000000000000081525081526020016040518060400160405280600481526020017f5265656c0000000000000000000000000000000000000000000000000000000081525081526020016040518060400160405280600881526020017f5265656c696e677300000000000000000000000000000000000000000000000081525081526020016040518060400160405280600481526020017f53616c740000000000000000000000000000000000000000000000000000000081525081526020016040518060400160405280600781526020017f53656173616c740000000000000000000000000000000000000000000000000081525081526020016040518060400160405280600581526020017f53616e647300000000000000000000000000000000000000000000000000000081525081526020016040518060400160405280600781526020017f53616e646d616e0000000000000000000000000000000000000000000000000081525081526020016040518060400160405280600981526020017f536561627265657a65000000000000000000000000000000000000000000000081525081526020016040518060400160405280600581526020017f5368656c6c00000000000000000000000000000000000000000000000000000081525081526020016040518060400160405280600881526020017f5368656c6c6d616e00000000000000000000000000000000000000000000000081525081526020016040518060400160405280600a81526020017f5368656c6c6d6f756e640000000000000000000000000000000000000000000081525081526020016040518060400160405280600781526020017f5368656c6c65720000000000000000000000000000000000000000000000000081525081526020016040518060400160405280600781526020017f5368656c6c65790000000000000000000000000000000000000000000000000081525081526020016040518060400160405280600681526020017f53686f616c73000000000000000000000000000000000000000000000000000081525081526020016040518060400160405280600681526020017f53696e676572000000000000000000000000000000000000000000000000000081525081526020016040518060400160405280600481526020017f537461720000000000000000000000000000000000000000000000000000000081525081526020016040518060400160405280600581526020017f537461727200000000000000000000000000000000000000000000000000000081525081526020016040518060400160405280600581526020017f537465726e00000000000000000000000000000000000000000000000000000081525081526020016040518060400160405280600681526020017f537465726e65000000000000000000000000000000000000000000000000000081525081526020016040518060400160405280600a81526020017f5374696c6c77617465720000000000000000000000000000000000000000000081525081526020016040518060400160405280600581526020017f53746f726d00000000000000000000000000000000000000000000000000000081525081526020016040518060400160405280600681526020017f53746f726d73000000000000000000000000000000000000000000000000000081525081526020016040518060400160405280600781526020017f53756d6d6572730000000000000000000000000000000000000000000000000081525081526020016040518060400160405280600481526020017f53756e6e0000000000000000000000000000000000000000000000000000000081525081526020016040518060400160405280600681526020017f53756e6e6572000000000000000000000000000000000000000000000000000081525081526020016040518060400160405280600781526020017f5377696d6d65720000000000000000000000000000000000000000000000000081525081526020016040518060400160405280600881526020017f536877696d6d657200000000000000000000000000000000000000000000000081525081526020016040518060400160405280600781526020017f5377796d6d65720000000000000000000000000000000000000000000000000081525081526020016040518060400160405280600981526020017f546964657761746572000000000000000000000000000000000000000000000081525081526020016040518060400160405280600681526020017f576174657273000000000000000000000000000000000000000000000000000081525081526020016040518060400160405280600781526020017f576174746572730000000000000000000000000000000000000000000000000081525081526020016040518060400160405280600881526020017f57617465726d616e000000000000000000000000000000000000000000000000815250815250600e90604162006aad9291906200a1b2565b506040518061076001604052806040518060400160405280600481526020017f417263680000000000000000000000000000000000000000000000000000000081525081526020016040518060400160405280600981526020017f417263686d616b6572000000000000000000000000000000000000000000000081525081526020016040518060400160405280600781526020017f4261736b6574740000000000000000000000000000000000000000000000000081525081526020016040518060400160405280600681526020017f4261736b6574000000000000000000000000000000000000000000000000000081525081526020016040518060400160405280600681526020017f42696c646572000000000000000000000000000000000000000000000000000081525081526020016040518060400160405280600781526020017f4275696c6465720000000000000000000000000000000000000000000000000081525081526020016040518060400160405280600681526020017f42756c646572000000000000000000000000000000000000000000000000000081525081526020016040518060400160405280600581526020017f42696c647300000000000000000000000000000000000000000000000000000081525081526020016040518060400160405280600481526020017f426c6f770000000000000000000000000000000000000000000000000000000081525081526020016040518060400160405280600881526020017f427269636b6d616e00000000000000000000000000000000000000000000000081525081526020016040518060400160405280600781526020017f427269636b65720000000000000000000000000000000000000000000000000081525081526020016040518060400160405280600681526020017f427279636b73000000000000000000000000000000000000000000000000000081525081526020016040518060400160405280600681526020017f427269636b73000000000000000000000000000000000000000000000000000081525081526020016040518060400160405280600581526020017f427572676800000000000000000000000000000000000000000000000000000081525081526020016040518060400160405280600481526020017f426572670000000000000000000000000000000000000000000000000000000081525081526020016040518060400160405280600481526020017f427572670000000000000000000000000000000000000000000000000000000081525081526020016040518060400160405280600781526020017f427572676865720000000000000000000000000000000000000000000000000081525081526020016040518060400160405280600681526020017f426572676572000000000000000000000000000000000000000000000000000081525081526020016040518060400160405280600681526020017f427572676572000000000000000000000000000000000000000000000000000081525081526020016040518060400160405280600981526020017f43617270656e746572000000000000000000000000000000000000000000000081525081526020016040518060400160405280600881526020017f4368616e646c657200000000000000000000000000000000000000000000000081525081526020016040518060400160405280600781526020017f43616e646c65720000000000000000000000000000000000000000000000000081525081526020016040518060400160405280600481526020017f436c61790000000000000000000000000000000000000000000000000000000081525081526020016040518060400160405280600681526020017f436f6f706572000000000000000000000000000000000000000000000000000081525081526020016040518060400160405280600781526020017f437261667465720000000000000000000000000000000000000000000000000081525081526020016040518060400160405280600581526020017f476c61737300000000000000000000000000000000000000000000000000000081525081526020016040518060400160405280600781526020017f476c617a6965720000000000000000000000000000000000000000000000000081525081526020016040518060400160405280600781526020017f476c61736965720000000000000000000000000000000000000000000000000081525081526020016040518060400160405280600681526020017f48616d6d6572000000000000000000000000000000000000000000000000000081525081526020016040518060400160405280600581526020017f4d616b657200000000000000000000000000000000000000000000000000000081525081526020016040518060400160405280600581526020017f4d61736f6e00000000000000000000000000000000000000000000000000000081525081526020016040518060400160405280600581526020017f4d6173656e00000000000000000000000000000000000000000000000000000081525081526020016040518060400160405280600581526020017f4d6173796e00000000000000000000000000000000000000000000000000000081525081526020016040518060400160405280600581526020017f506f74747300000000000000000000000000000000000000000000000000000081525081526020016040518060400160405280600481526020017f506f74740000000000000000000000000000000000000000000000000000000081525081526020016040518060400160405280600681526020017f506f74746572000000000000000000000000000000000000000000000000000081525081526020016040518060400160405280600881526020017f517561727269657200000000000000000000000000000000000000000000000081525081526020016040518060400160405280600981526020017f5175617272796d616e000000000000000000000000000000000000000000000081525081526020016040518060400160405280600481526020017f526f636b0000000000000000000000000000000000000000000000000000000081525081526020016040518060400160405280600781526020017f526f636b6d616e0000000000000000000000000000000000000000000000000081525081526020016040518060400160405280600681526020017f526f636b6572000000000000000000000000000000000000000000000000000081525081526020016040518060400160405280600481526020017f526f6f660000000000000000000000000000000000000000000000000000000081525081526020016040518060400160405280600581526020017f526f6f666500000000000000000000000000000000000000000000000000000081525081526020016040518060400160405280600681526020017f536177796572000000000000000000000000000000000000000000000000000081525081526020016040518060400160405280600581526020017f53746f6e6500000000000000000000000000000000000000000000000000000081525081526020016040518060400160405280600881526020017f53746f6e656d616e00000000000000000000000000000000000000000000000081525081526020016040518060400160405280600681526020017f546f776e6573000000000000000000000000000000000000000000000000000081525081526020016040518060400160405280600581526020017f546f776e7300000000000000000000000000000000000000000000000000000081525081526020016040518060400160405280600581526020017f546f776e7900000000000000000000000000000000000000000000000000000081525081526020016040518060400160405280600481526020017f5761686c0000000000000000000000000000000000000000000000000000000081525081526020016040518060400160405280600481526020017f57616c6c0000000000000000000000000000000000000000000000000000000081525081526020016040518060400160405280600581526020017f5761686c7300000000000000000000000000000000000000000000000000000081525081526020016040518060400160405280600581526020017f57616c6c7300000000000000000000000000000000000000000000000000000081525081526020016040518060400160405280600681526020017f57616c6c6572000000000000000000000000000000000000000000000000000081525081526020016040518060400160405280600681526020017f5761786d616e000000000000000000000000000000000000000000000000000081525081526020016040518060400160405280600381526020017f576178000000000000000000000000000000000000000000000000000000000081525081526020016040518060400160405280600681526020017f5761636b6573000000000000000000000000000000000000000000000000000081525081526020016040518060400160405280600481526020017f576f6f640000000000000000000000000000000000000000000000000000000081525081526020016040518060400160405280600581526020017f576f6f6473000000000000000000000000000000000000000000000000000000815250815250600f90603b620078639291906200a219565b5060405180610d2001604052806040518060400160405280600581526020017f42696c6c7900000000000000000000000000000000000000000000000000000081525081526020016040518060400160405280600681526020017f42696c6c6965000000000000000000000000000000000000000000000000000081525081526020016040518060400160405280600681526020017f426c75666665000000000000000000000000000000000000000000000000000081525081526020016040518060400160405280600c81526020017f426c756666636c696d626572000000000000000000000000000000000000000081525081526020016040518060400160405280600781526020017f426f756c6465720000000000000000000000000000000000000000000000000081525081526020016040518060400160405280600681526020017f42756c646572000000000000000000000000000000000000000000000000000081525081526020016040518060400160405280600481526020017f43616d700000000000000000000000000000000000000000000000000000000081525081526020016040518060400160405280600781526020017f43616d706d616e0000000000000000000000000000000000000000000000000081525081526020016040518060400160405280600781526020017f436c61796d65720000000000000000000000000000000000000000000000000081525081526020016040518060400160405280600681526020017f436c61796d73000000000000000000000000000000000000000000000000000081525081526020016040518060400160405280600781526020017f436c61696d65720000000000000000000000000000000000000000000000000081525081526020016040518060400160405280600481526020017f436f6c650000000000000000000000000000000000000000000000000000000081525081526020016040518060400160405280600581526020017f436f6c657200000000000000000000000000000000000000000000000000000081525081526020016040518060400160405280600781526020017f436f6c656d616e0000000000000000000000000000000000000000000000000081525081526020016040518060400160405280600781526020017f436f616c6d616e0000000000000000000000000000000000000000000000000081525081526020016040518060400160405280600681526020017f436f616c6572000000000000000000000000000000000000000000000000000081525081526020016040518060400160405280600a81526020017f436f616c6469676765720000000000000000000000000000000000000000000081525081526020016040518060400160405280600a81526020017f436f6c656465676765720000000000000000000000000000000000000000000081525081526020016040518060400160405280600681526020017f436f6e646f72000000000000000000000000000000000000000000000000000081525081526020016040518060400160405280600981526020017f436f6e646f726d616e000000000000000000000000000000000000000000000081525081526020016040518060400160405280600581526020017f437261676700000000000000000000000000000000000000000000000000000081525081526020016040518060400160405280600781526020017f437261676d616e0000000000000000000000000000000000000000000000000081525081526020016040518060400160405280600581526020017f446967677300000000000000000000000000000000000000000000000000000081525081526020016040518060400160405280600681526020017f446967676572000000000000000000000000000000000000000000000000000081525081526020016040518060400160405280600781526020017f446967676d616e0000000000000000000000000000000000000000000000000081525081526020016040518060400160405280600681526020017f446967676572000000000000000000000000000000000000000000000000000081525081526020016040518060400160405280600781526020017f446967676574740000000000000000000000000000000000000000000000000081525081526020016040518060400160405280600b81526020017f447261676f6e686f61726400000000000000000000000000000000000000000081525081526020016040518060400160405280600a81526020017f447261676f6e686f72640000000000000000000000000000000000000000000081525081526020016040518060400160405280600681526020017f447261676f6e000000000000000000000000000000000000000000000000000081525081526020016040518060400160405280600581526020017f4472616b6500000000000000000000000000000000000000000000000000000081525081526020016040518060400160405280600681526020017f447265646765000000000000000000000000000000000000000000000000000081525081526020016040518060400160405280600781526020017f447265646765720000000000000000000000000000000000000000000000000081525081526020016040518060400160405280600481526020017f48616c6c0000000000000000000000000000000000000000000000000000000081525081526020016040518060400160405280600481526020017f4861756c0000000000000000000000000000000000000000000000000000000081525081526020016040518060400160405280600781526020017f486569676874730000000000000000000000000000000000000000000000000081525081526020016040518060400160405280600681526020017f486967687473000000000000000000000000000000000000000000000000000081525081526020016040518060400160405280600581526020017f487974657300000000000000000000000000000000000000000000000000000081525081526020016040518060400160405280600581526020017f486974657300000000000000000000000000000000000000000000000000000081525081526020016040518060400160405280600881526020017f486967686c616e6400000000000000000000000000000000000000000000000081525081526020016040518060400160405280600581526020017f48696c6c7300000000000000000000000000000000000000000000000000000081525081526020016040518060400160405280600481526020017f48696c6c0000000000000000000000000000000000000000000000000000000081525081526020016040518060400160405280600b81526020017f48696c6c636c696d62657200000000000000000000000000000000000000000081525081526020016040518060400160405280600a81526020017f48796c6c746f707065720000000000000000000000000000000000000000000081525081526020016040518060400160405280600581526020017f486f61726400000000000000000000000000000000000000000000000000000081525081526020016040518060400160405280600481526020017f486f72640000000000000000000000000000000000000000000000000000000081525081526020016040518060400160405280600481526020017f486f61720000000000000000000000000000000000000000000000000000000081525081526020016040518060400160405280600a81526020017f486f61726469676765720000000000000000000000000000000000000000000081525081526020016040518060400160405280600981526020017f486f72646567676572000000000000000000000000000000000000000000000081525081526020016040518060400160405280600481526020017f4b6964640000000000000000000000000000000000000000000000000000000081525081526020016040518060400160405280600681526020017f4b69706d616e000000000000000000000000000000000000000000000000000081525081526020016040518060400160405280600681526020017f4b6970706572000000000000000000000000000000000000000000000000000081525081526020016040518060400160405280600681526020017f4b6970736f6e000000000000000000000000000000000000000000000000000081525081526020016040518060400160405280600b81526020017f4b6f707065726669656c6400000000000000000000000000000000000000000081525081526020016040518060400160405280600581526020017f4d696e657200000000000000000000000000000000000000000000000000000081525081526020016040518060400160405280600581526020017f4d796e657200000000000000000000000000000000000000000000000000000081525081526020016040518060400160405280600581526020017f4d796e6f7200000000000000000000000000000000000000000000000000000081525081526020016040518060400160405280600581526020017f4d696e6f7200000000000000000000000000000000000000000000000000000081525081526020016040518060400160405280600481526020017f4d6f6c650000000000000000000000000000000000000000000000000000000081525081526020016040518060400160405280600581526020017f4d6f6c657200000000000000000000000000000000000000000000000000000081525081526020016040518060400160405280600681526020017f4d6f6c6c6572000000000000000000000000000000000000000000000000000081525081526020016040518060400160405280600681526020017f4d6f6c736f6e000000000000000000000000000000000000000000000000000081525081526020016040518060400160405280600681526020017f4d6f6c73656e000000000000000000000000000000000000000000000000000081525081526020016040518060400160405280600481526020017f4f7265730000000000000000000000000000000000000000000000000000000081525081526020016040518060400160405280600381526020017f4f7272000000000000000000000000000000000000000000000000000000000081525081526020016040518060400160405280600481526020017f4f7272730000000000000000000000000000000000000000000000000000000081525081526020016040518060400160405280600981526020017f4f7265646967676572000000000000000000000000000000000000000000000081525081526020016040518060400160405280600981526020017f4f7272646567676572000000000000000000000000000000000000000000000081525081526020016040518060400160405280600581526020017f4f72736f6e00000000000000000000000000000000000000000000000000000081525081526020016040518060400160405280600681526020017f4f727273656e000000000000000000000000000000000000000000000000000081525081526020016040518060400160405280600381526020017f50616e000000000000000000000000000000000000000000000000000000000081525081526020016040518060400160405280600481526020017f50616e730000000000000000000000000000000000000000000000000000000081525081526020016040518060400160405280600981526020017f50616e6e65726d616e000000000000000000000000000000000000000000000081525081526020016040518060400160405280600781526020017f50616e6e696e670000000000000000000000000000000000000000000000000081525081526020016040518060400160405280600581526020017f5065616b7300000000000000000000000000000000000000000000000000000081525081526020016040518060400160405280600581526020017f5065656b7300000000000000000000000000000000000000000000000000000081525081526020016040518060400160405280600481526020017f50696b650000000000000000000000000000000000000000000000000000000081525081526020016040518060400160405280600481526020017f50796b650000000000000000000000000000000000000000000000000000000081525081526020016040518060400160405280600b81526020017f50696b65636c696d62657200000000000000000000000000000000000000000081525081526020016040518060400160405280600a81526020017f50796b65746f707065720000000000000000000000000000000000000000000081525081526020016040518060400160405280600381526020017f506978000000000000000000000000000000000000000000000000000000000081525081526020016040518060400160405280600781526020017f5069636b6d616e0000000000000000000000000000000000000000000000000081525081526020016040518060400160405280600681526020017f5069636b6573000000000000000000000000000000000000000000000000000081525081526020016040518060400160405280600681526020017f5079636b6573000000000000000000000000000000000000000000000000000081525081526020016040518060400160405280600781526020017f5069636b656e730000000000000000000000000000000000000000000000000081525081526020016040518060400160405280600881526020017f517561727269657200000000000000000000000000000000000000000000000081525081526020016040518060400160405280600981526020017f5175617272796d616e000000000000000000000000000000000000000000000081525081526020016040518060400160405280600581526020017f526964676500000000000000000000000000000000000000000000000000000081525081526020016040518060400160405280600c81526020017f5269646765636c696d626572000000000000000000000000000000000000000081525081526020016040518060400160405280600b81526020017f5269646765746f7070657200000000000000000000000000000000000000000081525081526020016040518060400160405280600481526020017f526f636b0000000000000000000000000000000000000000000000000000000081525081526020016040518060400160405280600781526020017f526f636b6d616e0000000000000000000000000000000000000000000000000081525081526020016040518060400160405280600681526020017f526f636b6572000000000000000000000000000000000000000000000000000081525081526020016040518060400160405280600981526020017f526f636b7269646765000000000000000000000000000000000000000000000081525081526020016040518060400160405280600481526020017f536e6f770000000000000000000000000000000000000000000000000000000081525081526020016040518060400160405280600681526020017f536e6f776573000000000000000000000000000000000000000000000000000081525081526020016040518060400160405280600581526020017f537061646500000000000000000000000000000000000000000000000000000081525081526020016040518060400160405280600e81526020017f53706164657220537072696e677300000000000000000000000000000000000081525081526020016040518060400160405280600881526020017f537072696e67657200000000000000000000000000000000000000000000000081525081526020016040518060400160405280600581526020017f53746f6e6500000000000000000000000000000000000000000000000000000081525081526020016040518060400160405280600881526020017f53746f6e656d616e00000000000000000000000000000000000000000000000081525081526020016040518060400160405280600981526020017f556e64657268696c6c000000000000000000000000000000000000000000000081525081526020016040518060400160405280600981526020017f556e646572776f6f64000000000000000000000000000000000000000000000081525081526020016040518060400160405280600881526020017f556e6465726d616e00000000000000000000000000000000000000000000000081525081526020016040518060400160405280600681526020017f57616c6b657200000000000000000000000000000000000000000000000000008152508152506010906069620090b39291906200a280565b506040518061076001604052806040518060400160405280600481526020017f426172720000000000000000000000000000000000000000000000000000000081525081526020016040518060400160405280600581526020017f426172726500000000000000000000000000000000000000000000000000000081525081526020016040518060400160405280600481526020017f436173680000000000000000000000000000000000000000000000000000000081525081526020016040518060400160405280600681526020017f436f70706572000000000000000000000000000000000000000000000000000081525081526020016040518060400160405280600781526020017f436f70706572730000000000000000000000000000000000000000000000000081525081526020016040518060400160405280600581526020017f437572727900000000000000000000000000000000000000000000000000000081525081526020016040518060400160405280600581526020017f4465616c7300000000000000000000000000000000000000000000000000000081525081526020016040518060400160405280600581526020017f4465656c7300000000000000000000000000000000000000000000000000000081525081526020016040518060400160405280600481526020017f4465656c0000000000000000000000000000000000000000000000000000000081525081526020016040518060400160405280600881526020017f4465656c616b657200000000000000000000000000000000000000000000000081525081526020016040518060400160405280600781526020017f4465656c6d616e0000000000000000000000000000000000000000000000000081525081526020016040518060400160405280600781526020017f4469616d6f6e640000000000000000000000000000000000000000000000000081525081526020016040518060400160405280600581526020017f476c61737300000000000000000000000000000000000000000000000000000081525081526020016040518060400160405280600781526020017f476c617a6965720000000000000000000000000000000000000000000000000081525081526020016040518060400160405280600781526020017f476c61736965720000000000000000000000000000000000000000000000000081525081526020016040518060400160405280600481526020017f476f6c640000000000000000000000000000000000000000000000000000000081525081526020016040518060400160405280600681526020017f476f6c64656e000000000000000000000000000000000000000000000000000081525081526020016040518060400160405280600981526020017f476f6c64736d697468000000000000000000000000000000000000000000000081525081526020016040518060400160405280600781526020017f476f6c646d616e0000000000000000000000000000000000000000000000000081525081526020016040518060400160405280600681526020017f4a6577656c73000000000000000000000000000000000000000000000000000081525081526020016040518060400160405280600581526020017f4a756c657300000000000000000000000000000000000000000000000000000081525081526020016040518060400160405280600581526020017f4a65776c7300000000000000000000000000000000000000000000000000000081525081526020016040518060400160405280600681526020017f4c656e646572000000000000000000000000000000000000000000000000000081525081526020016040518060400160405280600981526020017f4c656e6465726d616e000000000000000000000000000000000000000000000081525081526020016040518060400160405280600681526020017f4c796e646572000000000000000000000000000000000000000000000000000081525081526020016040518060400160405280600681526020017f4d6572636572000000000000000000000000000000000000000000000000000081525081526020016040518060400160405280600581526020017f4d6f6e657900000000000000000000000000000000000000000000000000000081525081526020016040518060400160405280600581526020017f4d756e6e7900000000000000000000000000000000000000000000000000000081525081526020016040518060400160405280600581526020017f4d6f6e6e7900000000000000000000000000000000000000000000000000000081525081526020016040518060400160405280600681526020017f4d756e6e6565000000000000000000000000000000000000000000000000000081525081526020016040518060400160405280600681526020017f4d6f6e6e6565000000000000000000000000000000000000000000000000000081525081526020016040518060400160405280600781526020017f506570706572730000000000000000000000000000000000000000000000000081525081526020016040518060400160405280600681526020017f506570706572000000000000000000000000000000000000000000000000000081525081526020016040518060400160405280600481526020017f526963680000000000000000000000000000000000000000000000000000000081525081526020016040518060400160405280600781526020017f526963686d616e0000000000000000000000000000000000000000000000000081525081526020016040518060400160405280600781526020017f526963686574740000000000000000000000000000000000000000000000000081525081526020016040518060400160405280600681526020017f526963686573000000000000000000000000000000000000000000000000000081525081526020016040518060400160405280600781526020017f53616666726f6e0000000000000000000000000000000000000000000000000081525081526020016040518060400160405280600481526020017f536167650000000000000000000000000000000000000000000000000000000081525081526020016040518060400160405280600481526020017f53616c740000000000000000000000000000000000000000000000000000000081525081526020016040518060400160405280600681526020017f5363616c6573000000000000000000000000000000000000000000000000000081525081526020016040518060400160405280600581526020017f5368696e6500000000000000000000000000000000000000000000000000000081525081526020016040518060400160405280600581526020017f536869707300000000000000000000000000000000000000000000000000000081525081526020016040518060400160405280600781526020017f536368697070730000000000000000000000000000000000000000000000000081525081526020016040518060400160405280600681526020017f536869707073000000000000000000000000000000000000000000000000000081525081526020016040518060400160405280600781526020017f536869706d616e0000000000000000000000000000000000000000000000000081525081526020016040518060400160405280600981526020017f5363686970706d616e000000000000000000000000000000000000000000000081525081526020016040518060400160405280600681526020017f53696c766572000000000000000000000000000000000000000000000000000081525081526020016040518060400160405280600681526020017f53796c766572000000000000000000000000000000000000000000000000000081525081526020016040518060400160405280600981526020017f53696c7665726d616e000000000000000000000000000000000000000000000081525081526020016040518060400160405280600581526020017f536d616c6c00000000000000000000000000000000000000000000000000000081525081526020016040518060400160405280600681526020017f536d616c6c73000000000000000000000000000000000000000000000000000081525081526020016040518060400160405280600681526020017f537069636572000000000000000000000000000000000000000000000000000081525081526020016040518060400160405280600881526020017f53706963656d616e00000000000000000000000000000000000000000000000081525081526020016040518060400160405280600481526020017f537461720000000000000000000000000000000000000000000000000000000081525081526020016040518060400160405280600581526020017f537461727200000000000000000000000000000000000000000000000000000081525081526020016040518060400160405280600581526020017f5468796d6500000000000000000000000000000000000000000000000000000081525081526020016040518060400160405280600481526020017f576172650000000000000000000000000000000000000000000000000000000081525081526020016040518060400160405280600481526020017f576f6f6c00000000000000000000000000000000000000000000000000000000815250815250601190603b62009e699291906200a219565b5034801562009e7757600080fd5b506040518060400160405280600981526020017f54686520457069637300000000000000000000000000000000000000000000008152506040518060400160405280600481526020017f4550494300000000000000000000000000000000000000000000000000000000815250816000908051906020019062009efc92919062009f1e565b50806001908051906020019062009f1592919062009f1e565b5050506200a3d9565b82805462009f2c906200a374565b90600052602060002090601f01602090048101928262009f50576000855562009f9c565b82601f1062009f6b57805160ff191683800117855562009f9c565b8280016001018555821562009f9c579182015b8281111562009f9b57825182559160200191906001019062009f7e565b5b50905062009fab91906200a2e7565b5090565b8280548282559060005260206000209081019282156200a003579160200282015b828111156200a00257825182908051906020019062009ff192919062009f1e565b509160200191906001019062009fd0565b5b5090506200a01291906200a306565b5090565b8280548282559060005260206000209081019282156200a06a579160200282015b828111156200a0695782518290805190602001906200a05892919062009f1e565b50916020019190600101906200a037565b5b5090506200a07991906200a306565b5090565b8280548282559060005260206000209081019282156200a0d1579160200282015b828111156200a0d05782518290805190602001906200a0bf92919062009f1e565b50916020019190600101906200a09e565b5b5090506200a0e091906200a306565b5090565b8280548282559060005260206000209081019282156200a138579160200282015b828111156200a1375782518290805190602001906200a12692919062009f1e565b50916020019190600101906200a105565b5b5090506200a14791906200a306565b5090565b8280548282559060005260206000209081019282156200a19f579160200282015b828111156200a19e5782518290805190602001906200a18d92919062009f1e565b50916020019190600101906200a16c565b5b5090506200a1ae91906200a306565b5090565b8280548282559060005260206000209081019282156200a206579160200282015b828111156200a2055782518290805190602001906200a1f492919062009f1e565b50916020019190600101906200a1d3565b5b5090506200a21591906200a306565b5090565b8280548282559060005260206000209081019282156200a26d579160200282015b828111156200a26c5782518290805190602001906200a25b92919062009f1e565b50916020019190600101906200a23a565b5b5090506200a27c91906200a306565b5090565b8280548282559060005260206000209081019282156200a2d4579160200282015b828111156200a2d35782518290805190602001906200a2c292919062009f1e565b50916020019190600101906200a2a1565b5b5090506200a2e391906200a306565b5090565b5b808211156200a3025760008160009055506001016200a2e8565b5090565b5b808211156200a32a57600081816200a32091906200a32e565b506001016200a307565b5090565b5080546200a33c906200a374565b6000825580601f106200a35057506200a371565b601f0160209004906000526020600020908101906200a37091906200a2e7565b5b50565b600060028204905060018216806200a38d57607f821691505b602082108114156200a3a4576200a3a36200a3aa565b5b50919050565b7f4e487b7100000000000000000000000000000000000000000000000000000000600052602260045260246000fd5b61442f806200a3e96000396000f3fe608060405234801561001057600080fd5b50600436106101165760003560e01c806370a08231116100a2578063c87b56dd11610071578063c87b56dd146102df578063cdf653061461030f578063de9d132f1461032d578063e985e9c514610337578063f712a73e1461036757610116565b806370a082311461025957806395d89b4114610289578063a22cb465146102a7578063b88d4fde146102c357610116565b806323b872dd116100e957806323b872dd146101b557806342842e0e146101d157806346534cf9146101ed578063496977631461020b5780636352211e1461022957610116565b806301ffc9a71461011b57806306fdde031461014b578063081812fc14610169578063095ea7b314610199575b600080fd5b6101356004803603810190610130919061293e565b610397565b6040516101429190613c83565b60405180910390f35b610153610479565b6040516101609190613c9e565b60405180910390f35b610183600480360381019061017e9190612a0f565b61050b565b6040516101909190613c1c565b60405180910390f35b6101b360048036038101906101ae9190612902565b610590565b005b6101cf60048036038101906101ca91906127fc565b6106a8565b005b6101eb60048036038101906101e691906127fc565b610708565b005b6101f5610728565b6040516102029190613ec0565b60405180910390f35b610213610732565b6040516102209190613ec0565b60405180910390f35b610243600480360381019061023e9190612a0f565b610743565b6040516102509190613c1c565b60405180910390f35b610273600480360381019061026e9190612797565b6107f5565b6040516102809190613ec0565b60405180910390f35b6102916108ad565b60405161029e9190613c9e565b60405180910390f35b6102c160048036038101906102bc91906128c6565b61093f565b005b6102dd60048036038101906102d8919061284b565b610ac0565b005b6102f960048036038101906102f49190612a0f565b610b22565b6040516103069190613c9e565b60405180910390f35b610317610c74565b6040516103249190613ec0565b60405180910390f35b610335610c7a565b005b610351600480360381019061034c91906127c0565b6115f7565b60405161035e9190613c83565b60405180910390f35b610381600480360381019061037c9190612990565b61168b565b60405161038e9190613c9e565b60405180910390f35b60007f80ac58cd000000000000000000000000000000000000000000000000000000007bffffffffffffffffffffffffffffffffffffffffffffffffffffffff1916827bffffffffffffffffffffffffffffffffffffffffffffffffffffffff1916148061046257507f5b5e139f000000000000000000000000000000000000000000000000000000007bffffffffffffffffffffffffffffffffffffffffffffffffffffffff1916827bffffffffffffffffffffffffffffffffffffffffffffffffffffffff1916145b8061047257506104718261171d565b5b9050919050565b606060008054610488906141e4565b80601f01602080910402602001604051908101604052809291908181526020018280546104b4906141e4565b80156105015780601f106104d657610100808354040283529160200191610501565b820191906000526020600020905b8154815290600101906020018083116104e457829003601f168201915b5050505050905090565b600061051682611787565b610555576040517f08c379a000000000000000000000000000000000000000000000000000000000815260040161054c90613e20565b60405180910390fd5b6004600083815260200190815260200160002060009054906101000a900473ffffffffffffffffffffffffffffffffffffffff169050919050565b600061059b82610743565b90508073ffffffffffffffffffffffffffffffffffffffff168373ffffffffffffffffffffffffffffffffffffffff16141561060c576040517f08c379a000000000000000000000000000000000000000000000000000000000815260040161060390613e80565b60405180910390fd5b8073ffffffffffffffffffffffffffffffffffffffff1661062b6117f3565b73ffffffffffffffffffffffffffffffffffffffff16148061065a5750610659816106546117f3565b6115f7565b5b610699576040517f08c379a000000000000000000000000000000000000000000000000000000000815260040161069090613d60565b60405180910390fd5b6106a383836117fb565b505050565b6106b96106b36117f3565b826118b4565b6106f8576040517f08c379a00000000000000000000000000000000000000000000000000000000081526004016106ef90613ea0565b60405180910390fd5b610703838383611992565b505050565b61072383838360405180602001604052806000815250610ac0565b505050565b6000610539905090565b600061073e6007611bee565b905090565b6000806002600084815260200190815260200160002060009054906101000a900473ffffffffffffffffffffffffffffffffffffffff169050600073ffffffffffffffffffffffffffffffffffffffff168173ffffffffffffffffffffffffffffffffffffffff1614156107ec576040517f08c379a00000000000000000000000000000000000000000000000000000000081526004016107e390613da0565b60405180910390fd5b80915050919050565b60008073ffffffffffffffffffffffffffffffffffffffff168273ffffffffffffffffffffffffffffffffffffffff161415610866576040517f08c379a000000000000000000000000000000000000000000000000000000000815260040161085d90613d80565b60405180910390fd5b600360008373ffffffffffffffffffffffffffffffffffffffff1673ffffffffffffffffffffffffffffffffffffffff168152602001908152602001600020549050919050565b6060600180546108bc906141e4565b80601f01602080910402602001604051908101604052809291908181526020018280546108e8906141e4565b80156109355780601f1061090a57610100808354040283529160200191610935565b820191906000526020600020905b81548152906001019060200180831161091857829003601f168201915b5050505050905090565b6109476117f3565b73ffffffffffffffffffffffffffffffffffffffff168273ffffffffffffffffffffffffffffffffffffffff1614156109b5576040517f08c379a00000000000000000000000000000000000000000000000000000000081526004016109ac90613d20565b60405180910390fd5b80600560006109c26117f3565b73ffffffffffffffffffffffffffffffffffffffff1673ffffffffffffffffffffffffffffffffffffffff16815260200190815260200160002060008473ffffffffffffffffffffffffffffffffffffffff1673ffffffffffffffffffffffffffffffffffffffff16815260200190815260200160002060006101000a81548160ff0219169083151502179055508173ffffffffffffffffffffffffffffffffffffffff16610a6f6117f3565b73ffffffffffffffffffffffffffffffffffffffff167f17307eab39ab6107e8899845ad3d59bd9653f200f220920489ca2b5937696c3183604051610ab49190613c83565b60405180910390a35050565b610ad1610acb6117f3565b836118b4565b610b10576040517f08c379a0000000000000000000000000000000000000000000000000000000008152600401610b0790613ea0565b60405180910390fd5b610b1c84848484611bfc565b50505050565b6060610b2d82611787565b610b6c576040517f08c379a0000000000000000000000000000000000000000000000000000000008152600401610b6390613e00565b60405180910390fd5b6000600660008481526020019081526020016000208054610b8c906141e4565b80601f0160208091040260200160405190810160405280929190818152602001828054610bb8906141e4565b8015610c055780601f10610bda57610100808354040283529160200191610c05565b820191906000526020600020905b815481529060010190602001808311610be857829003601f168201915b505050505090506000610c16611c58565b9050600081511415610c2c578192505050610c6f565b600082511115610c61578082604051602001610c499291906138c8565b60405160208183030381529060405292505050610c6f565b610c6a84611c6f565b925050505b919050565b61053981565b6000610c866007611bee565b90506000610c9382611d16565b9050600060098080549050610cc684604051602001610cb29190613bfa565b604051602081830303815290604052611ec3565b610cd0919061425f565b81548110610d07577f4e487b7100000000000000000000000000000000000000000000000000000000600052603260045260246000fd5b906000526020600020018054610d1c906141e4565b80601f0160208091040260200160405190810160405280929190818152602001828054610d48906141e4565b8015610d955780601f10610d6a57610100808354040283529160200191610d95565b820191906000526020600020905b815481529060010190602001808311610d7857829003601f168201915b505050505090506000600a8080549050610dcd85604051602001610db99190613bd8565b604051602081830303815290604052611ec3565b610dd7919061425f565b81548110610e0e577f4e487b7100000000000000000000000000000000000000000000000000000000600052603260045260246000fd5b906000526020600020018054610e23906141e4565b80601f0160208091040260200160405190810160405280929190818152602001828054610e4f906141e4565b8015610e9c5780601f10610e7157610100808354040283529160200191610e9c565b820191906000526020600020905b815481529060010190602001808311610e7f57829003601f168201915b505050505090506000600b8080549050610ed486604051602001610ec09190613b94565b604051602081830303815290604052611ec3565b610ede919061425f565b81548110610f15577f4e487b7100000000000000000000000000000000000000000000000000000000600052603260045260246000fd5b906000526020600020018054610f2a906141e4565b80601f0160208091040260200160405190810160405280929190818152602001828054610f56906141e4565b8015610fa35780601f10610f7857610100808354040283529160200191610fa3565b820191906000526020600020905b815481529060010190602001808311610f8657829003601f168201915b505050505090506000600c8080549050610fdb87604051602001610fc79190613ad1565b604051602081830303815290604052611ec3565b610fe5919061425f565b8154811061101c577f4e487b7100000000000000000000000000000000000000000000000000000000600052603260045260246000fd5b906000526020600020018054611031906141e4565b80601f016020809104026020016040519081016040528092919081815260200182805461105d906141e4565b80156110aa5780601f1061107f576101008083540402835291602001916110aa565b820191906000526020600020905b81548152906001019060200180831161108d57829003601f168201915b505050505090506000600d80805490506110e2886040516020016110ce9190613b72565b604051602081830303815290604052611ec3565b6110ec919061425f565b81548110611123577f4e487b7100000000000000000000000000000000000000000000000000000000600052603260045260246000fd5b906000526020600020018054611138906141e4565b80601f0160208091040260200160405190810160405280929190818152602001828054611164906141e4565b80156111b15780601f10611186576101008083540402835291602001916111b1565b820191906000526020600020905b81548152906001019060200180831161119457829003601f168201915b505050505090506000600e80805490506111e9896040516020016111d59190613aaf565b604051602081830303815290604052611ec3565b6111f3919061425f565b8154811061122a577f4e487b7100000000000000000000000000000000000000000000000000000000600052603260045260246000fd5b90600052602060002001805461123f906141e4565b80601f016020809104026020016040519081016040528092919081815260200182805461126b906141e4565b80156112b85780601f1061128d576101008083540402835291602001916112b8565b820191906000526020600020905b81548152906001019060200180831161129b57829003601f168201915b505050505090506000600f80805490506112f08a6040516020016112dc9190613a8d565b604051602081830303815290604052611ec3565b6112fa919061425f565b81548110611331577f4e487b7100000000000000000000000000000000000000000000000000000000600052603260045260246000fd5b906000526020600020018054611346906141e4565b80601f0160208091040260200160405190810160405280929190818152602001828054611372906141e4565b80156113bf5780601f10611394576101008083540402835291602001916113bf565b820191906000526020600020905b8154815290600101906020018083116113a257829003601f168201915b505050505090506000601080805490506113f78b6040516020016113e39190613bb6565b604051602081830303815290604052611ec3565b611401919061425f565b81548110611438577f4e487b7100000000000000000000000000000000000000000000000000000000600052603260045260246000fd5b90600052602060002001805461144d906141e4565b80601f0160208091040260200160405190810160405280929190818152602001828054611479906141e4565b80156114c65780601f1061149b576101008083540402835291602001916114c6565b820191906000526020600020905b8154815290600101906020018083116114a957829003601f168201915b50505050509050600088888888888888886040516020016114ee9897969594939291906138ec565b6040516020818303038152906040529050600060088a8a8a8a8a8a8a8a604051602001611523999897969594939291906139ab565b6040516020818303038152906040529050600061156a838461154485611ef6565b60405160200161155693929190613af3565b604051602081830303815290604052611ef6565b905060008160405160200161157f9190613b50565b604051602081830303815290604052905061159a338f6120b4565b6115a48e826120d2565b6115ae6007612146565b7f94d6ff200488cdd10988e4231e6cd137c58358a6095774752fc33277afdcd4488e336040516115df929190613edb565b60405180910390a15050505050505050505050505050565b6000600560008473ffffffffffffffffffffffffffffffffffffffff1673ffffffffffffffffffffffffffffffffffffffff16815260200190815260200160002060008373ffffffffffffffffffffffffffffffffffffffff1673ffffffffffffffffffffffffffffffffffffffff16815260200190815260200160002060009054906101000a900460ff16905092915050565b606060006116c18561169c86611d16565b6040516020016116ad9291906138c8565b604051602081830303815290604052611ec3565b90508251816116d0919061425f565b905082818151811061170b577f4e487b7100000000000000000000000000000000000000000000000000000000600052603260045260246000fd5b60200260200101519150509392505050565b60007f01ffc9a7000000000000000000000000000000000000000000000000000000007bffffffffffffffffffffffffffffffffffffffffffffffffffffffff1916827bffffffffffffffffffffffffffffffffffffffffffffffffffffffff1916149050919050565b60008073ffffffffffffffffffffffffffffffffffffffff166002600084815260200190815260200160002060009054906101000a900473ffffffffffffffffffffffffffffffffffffffff1673ffffffffffffffffffffffffffffffffffffffff1614159050919050565b600033905090565b816004600083815260200190815260200160002060006101000a81548173ffffffffffffffffffffffffffffffffffffffff021916908373ffffffffffffffffffffffffffffffffffffffff160217905550808273ffffffffffffffffffffffffffffffffffffffff1661186e83610743565b73ffffffffffffffffffffffffffffffffffffffff167f8c5be1e5ebec7d5bd14f71427d1e84f3dd0314c0f7b2291e5b200ac8c7c3b92560405160405180910390a45050565b60006118bf82611787565b6118fe576040517f08c379a00000000000000000000000000000000000000000000000000000000081526004016118f590613d40565b60405180910390fd5b600061190983610743565b90508073ffffffffffffffffffffffffffffffffffffffff168473ffffffffffffffffffffffffffffffffffffffff16148061197857508373ffffffffffffffffffffffffffffffffffffffff166119608461050b565b73ffffffffffffffffffffffffffffffffffffffff16145b80611989575061198881856115f7565b5b91505092915050565b8273ffffffffffffffffffffffffffffffffffffffff166119b282610743565b73ffffffffffffffffffffffffffffffffffffffff1614611a08576040517f08c379a00000000000000000000000000000000000000000000000000000000081526004016119ff90613e40565b60405180910390fd5b600073ffffffffffffffffffffffffffffffffffffffff168273ffffffffffffffffffffffffffffffffffffffff161415611a78576040517f08c379a0000000000000000000000000000000000000000000000000000000008152600401611a6f90613d00565b60405180910390fd5b611a8383838361215c565b611a8e6000826117fb565b6001600360008573ffffffffffffffffffffffffffffffffffffffff1673ffffffffffffffffffffffffffffffffffffffff1681526020019081526020016000206000828254611ade91906140fa565b925050819055506001600360008473ffffffffffffffffffffffffffffffffffffffff1673ffffffffffffffffffffffffffffffffffffffff1681526020019081526020016000206000828254611b359190614019565b92505081905550816002600083815260200190815260200160002060006101000a81548173ffffffffffffffffffffffffffffffffffffffff021916908373ffffffffffffffffffffffffffffffffffffffff160217905550808273ffffffffffffffffffffffffffffffffffffffff168473ffffffffffffffffffffffffffffffffffffffff167fddf252ad1be2c89b69c2b068fc378daa952ba7f163c4a11628f55a4df523b3ef60405160405180910390a4505050565b600081600001549050919050565b611c07848484611992565b611c1384848484612161565b611c52576040517f08c379a0000000000000000000000000000000000000000000000000000000008152600401611c4990613cc0565b60405180910390fd5b50505050565b606060405180602001604052806000815250905090565b6060611c7a82611787565b611cb9576040517f08c379a0000000000000000000000000000000000000000000000000000000008152600401611cb090613e60565b60405180910390fd5b6000611cc3611c58565b90506000815111611ce35760405180602001604052806000815250611d0e565b80611ced84611d16565b604051602001611cfe9291906138c8565b6040516020818303038152906040525b915050919050565b60606000821415611d5e576040518060400160405280600181526020017f30000000000000000000000000000000000000000000000000000000000000008152509050611ebe565b600082905060005b60008214611d90578080611d7990614216565b915050600a82611d89919061406f565b9150611d66565b60008167ffffffffffffffff811115611dd2577f4e487b7100000000000000000000000000000000000000000000000000000000600052604160045260246000fd5b6040519080825280601f01601f191660200182016040528015611e045781602001600182028036833780820191505090505b5090505b60008514611eb757600182611e1d91906140fa565b9150600a85611e2c919061425f565b6030611e389190614019565b60f81b818381518110611e74577f4e487b7100000000000000000000000000000000000000000000000000000000600052603260045260246000fd5b60200101907effffffffffffffffffffffffffffffffffffffffffffffffffffffffffffff1916908160001a905350600a85611eb0919061406f565b9450611e08565b8093505050505b919050565b600081604051602001611ed691906138b1565b6040516020818303038152906040528051906020012060001c9050919050565b60606000825190506000811415611f1f57604051806020016040528060008152509150506120af565b60006003600283611f309190614019565b611f3a919061406f565b6004611f4691906140a0565b90506000602082611f579190614019565b67ffffffffffffffff811115611f96577f4e487b7100000000000000000000000000000000000000000000000000000000600052604160045260246000fd5b6040519080825280601f01601f191660200182016040528015611fc85781602001600182028036833780820191505090505b50905060006040518060600160405280604081526020016143ba604091399050600181016020830160005b8681101561206c5760038101905062ffffff818a015116603f8160121c168401518060081b905060ff603f83600c1c1686015116810190508060081b905060ff603f8360061c1686015116810190508060081b905060ff603f831686015116810190508060e01b90508084526004840193505050611ff3565b5060038606600181146120865760028114612096576120a1565b613d3d60f01b60028303526120a1565b603d60f81b60018303525b508484525050819450505050505b919050565b6120ce8282604051806020016040528060008152506122f8565b5050565b6120db82611787565b61211a576040517f08c379a000000000000000000000000000000000000000000000000000000000815260040161211190613dc0565b60405180910390fd5b80600660008481526020019081526020016000209080519060200190612141929190612534565b505050565b6001816000016000828254019250508190555050565b505050565b60006121828473ffffffffffffffffffffffffffffffffffffffff16612353565b156122eb578373ffffffffffffffffffffffffffffffffffffffff1663150b7a026121ab6117f3565b8786866040518563ffffffff1660e01b81526004016121cd9493929190613c37565b602060405180830381600087803b1580156121e757600080fd5b505af192505050801561221857506040513d601f19601f820116820180604052508101906122159190612967565b60015b61229b573d8060008114612248576040519150601f19603f3d011682016040523d82523d6000602084013e61224d565b606091505b50600081511415612293576040517f08c379a000000000000000000000000000000000000000000000000000000000815260040161228a90613cc0565b60405180910390fd5b805181602001fd5b63150b7a0260e01b7bffffffffffffffffffffffffffffffffffffffffffffffffffffffff1916817bffffffffffffffffffffffffffffffffffffffffffffffffffffffff1916149150506122f0565b600190505b949350505050565b6123028383612366565b61230f6000848484612161565b61234e576040517f08c379a000000000000000000000000000000000000000000000000000000000815260040161234590613cc0565b60405180910390fd5b505050565b600080823b905060008111915050919050565b600073ffffffffffffffffffffffffffffffffffffffff168273ffffffffffffffffffffffffffffffffffffffff1614156123d6576040517f08c379a00000000000000000000000000000000000000000000000000000000081526004016123cd90613de0565b60405180910390fd5b6123df81611787565b1561241f576040517f08c379a000000000000000000000000000000000000000000000000000000000815260040161241690613ce0565b60405180910390fd5b61242b6000838361215c565b6001600360008473ffffffffffffffffffffffffffffffffffffffff1673ffffffffffffffffffffffffffffffffffffffff168152602001908152602001600020600082825461247b9190614019565b92505081905550816002600083815260200190815260200160002060006101000a81548173ffffffffffffffffffffffffffffffffffffffff021916908373ffffffffffffffffffffffffffffffffffffffff160217905550808273ffffffffffffffffffffffffffffffffffffffff16600073ffffffffffffffffffffffffffffffffffffffff167fddf252ad1be2c89b69c2b068fc378daa952ba7f163c4a11628f55a4df523b3ef60405160405180910390a45050565b828054612540906141e4565b90600052602060002090601f01602090048101928261256257600085556125a9565b82601f1061257b57805160ff19168380011785556125a9565b828001600101855582156125a9579182015b828111156125a857825182559160200191906001019061258d565b5b5090506125b691906125ba565b5090565b5b808211156125d35760008160009055506001016125bb565b5090565b60006125ea6125e584613f35565b613f04565b9050808382526020820190508260005b8581101561262a57813585016126108882612758565b8452602084019350602083019250506001810190506125fa565b5050509392505050565b600061264761264284613f61565b613f04565b90508281526020810184848401111561265f57600080fd5b61266a8482856141a2565b509392505050565b600061268561268084613f91565b613f04565b90508281526020810184848401111561269d57600080fd5b6126a88482856141a2565b509392505050565b6000813590506126bf8161435d565b92915050565b600082601f8301126126d657600080fd5b81356126e68482602086016125d7565b91505092915050565b6000813590506126fe81614374565b92915050565b6000813590506127138161438b565b92915050565b6000815190506127288161438b565b92915050565b600082601f83011261273f57600080fd5b813561274f848260208601612634565b91505092915050565b600082601f83011261276957600080fd5b8135612779848260208601612672565b91505092915050565b600081359050612791816143a2565b92915050565b6000602082840312156127a957600080fd5b60006127b7848285016126b0565b91505092915050565b600080604083850312156127d357600080fd5b60006127e1858286016126b0565b92505060206127f2858286016126b0565b9150509250929050565b60008060006060848603121561281157600080fd5b600061281f868287016126b0565b9350506020612830868287016126b0565b925050604061284186828701612782565b9150509250925092565b6000806000806080858703121561286157600080fd5b600061286f878288016126b0565b9450506020612880878288016126b0565b935050604061289187828801612782565b925050606085013567ffffffffffffffff8111156128ae57600080fd5b6128ba8782880161272e565b91505092959194509250565b600080604083850312156128d957600080fd5b60006128e7858286016126b0565b92505060206128f8858286016126ef565b9150509250929050565b6000806040838503121561291557600080fd5b6000612923858286016126b0565b925050602061293485828601612782565b9150509250929050565b60006020828403121561295057600080fd5b600061295e84828501612704565b91505092915050565b60006020828403121561297957600080fd5b600061298784828501612719565b91505092915050565b6000806000606084860312156129a557600080fd5b600084013567ffffffffffffffff8111156129bf57600080fd5b6129cb86828701612758565b93505060206129dc86828701612782565b925050604084013567ffffffffffffffff8111156129f957600080fd5b612a05868287016126c5565b9150509250925092565b600060208284031215612a2157600080fd5b6000612a2f84828501612782565b91505092915050565b612a418161412e565b82525050565b612a5081614140565b82525050565b6000612a6182613fd6565b612a6b8185613fec565b9350612a7b8185602086016141b1565b612a848161434c565b840191505092915050565b6000612a9a82613fe1565b612aa48185613ffd565b9350612ab48185602086016141b1565b612abd8161434c565b840191505092915050565b6000612ad382613fe1565b612add818561400e565b9350612aed8185602086016141b1565b80840191505092915050565b60008154612b06816141e4565b612b10818661400e565b94506001821660008114612b2b5760018114612b3c57612b6f565b60ff19831686528186019350612b6f565b612b4585613fc1565b60005b83811015612b6757815481890152600182019150602081019050612b48565b838801955050505b50505092915050565b6000612b8560368361400e565b91507f3c2f746578743e3c7465787420636c6173733d276261736527206d617267696e60008301527f3d273270782720783d2734252720793d27333225273e000000000000000000006020830152603682019050919050565b6000612beb60368361400e565b91507f3c2f746578743e3c7465787420636c6173733d276261736527206d617267696e60008301527f3d273270782720783d2734252720793d27343025273e000000000000000000006020830152603682019050919050565b6000612c51602e8361400e565b91507f3c7465787420636c6173733d276261736527206d617267696e3d27327078272060008301527f783d2734252720793d273825273e0000000000000000000000000000000000006020830152602e82019050919050565b6000612cb760138361400e565b91507f222c20226465736372697074696f6e223a2022000000000000000000000000006000830152601382019050919050565b6000612cf7603283613ffd565b91507f4552433732313a207472616e7366657220746f206e6f6e20455243373231526560008301527f63656976657220696d706c656d656e74657200000000000000000000000000006020830152604082019050919050565b6000612d5d60088361400e565b91507f43524146544552530000000000000000000000000000000000000000000000006000830152600882019050919050565b6000612d9d601c83613ffd565b91507f4552433732313a20746f6b656e20616c7265616479206d696e746564000000006000830152602082019050919050565b6000612ddd60098361400e565b91507f49534c414e4445525300000000000000000000000000000000000000000000006000830152600982019050919050565b6000612e1d60468361400e565b91507f2045646974696f6e206f662044696e6f736175727320616e642043617665732260008301527f2c2022696d616765223a2022646174613a696d6167652f7376672b786d6c3b6260208301527f61736536342c00000000000000000000000000000000000000000000000000006040830152604682019050919050565b6000612ea9602483613ffd565b91507f4552433732313a207472616e7366657220746f20746865207a65726f2061646460008301527f72657373000000000000000000000000000000000000000000000000000000006020830152604082019050919050565b6000612f0f601983613ffd565b91507f4552433732313a20617070726f766520746f2063616c6c6572000000000000006000830152602082019050919050565b6000612f4f602c83613ffd565b91507f4552433732313a206f70657261746f7220717565727920666f72206e6f6e657860008301527f697374656e7420746f6b656e00000000000000000000000000000000000000006020830152604082019050919050565b6000612fb5600d8361400e565b91507f3c2f746578743e3c2f7376673e000000000000000000000000000000000000006000830152600d82019050919050565b6000612ff560018361400e565b91507f20000000000000000000000000000000000000000000000000000000000000006000830152600182019050919050565b6000613035603883613ffd565b91507f4552433732313a20617070726f76652063616c6c6572206973206e6f74206f7760008301527f6e6572206e6f7220617070726f76656420666f7220616c6c00000000000000006020830152604082019050919050565b600061309b60368361400e565b91507f3c2f746578743e3c7465787420636c6173733d276261736527206d617267696e60008301527f3d273270782720783d2734252720793d27313625273e000000000000000000006020830152603682019050919050565b600061310160368361400e565b91507f3c2f746578743e3c7465787420636c6173733d276261736527206d617267696e60008301527f3d273270782720783d2734252720793d27343825273e000000000000000000006020830152603682019050919050565b600061316760368361400e565b91507f3c2f746578743e3c7465787420636c6173733d276261736527206d617267696e60008301527f3d273270782720783d2734252720793d27363425273e000000000000000000006020830152603682019050919050565b60006131cd602a83613ffd565b91507f4552433732313a2062616c616e636520717565727920666f7220746865207a6560008301527f726f2061646472657373000000000000000000000000000000000000000000006020830152604082019050919050565b6000613233602983613ffd565b91507f4552433732313a206f776e657220717565727920666f72206e6f6e657869737460008301527f656e7420746f6b656e00000000000000000000000000000000000000000000006020830152604082019050919050565b6000613299602e83613ffd565b91507f45524337323155524953746f726167653a2055524920736574206f66206e6f6e60008301527f6578697374656e7420746f6b656e0000000000000000000000000000000000006020830152604082019050919050565b60006132ff60028361400e565b91507f227d0000000000000000000000000000000000000000000000000000000000006000830152600282019050919050565b600061333f602083613ffd565b91507f4552433732313a206d696e7420746f20746865207a65726f20616464726573736000830152602082019050919050565b600061337f600c8361400e565b91507f46524f5a454e5f4c414e445300000000000000000000000000000000000000006000830152600c82019050919050565b60006133bf603183613ffd565b91507f45524337323155524953746f726167653a2055524920717565727920666f722060008301527f6e6f6e6578697374656e7420746f6b656e0000000000000000000000000000006020830152604082019050919050565b6000613425602c83613ffd565b91507f4552433732313a20617070726f76656420717565727920666f72206e6f6e657860008301527f697374656e7420746f6b656e00000000000000000000000000000000000000006020830152604082019050919050565b600061348b602983613ffd565b91507f4552433732313a207472616e73666572206f6620746f6b656e2074686174206960008301527f73206e6f74206f776e00000000000000000000000000000000000000000000006020830152604082019050919050565b60006134f160368361400e565b91507f3c2f746578743e3c7465787420636c6173733d276261736527206d617267696e60008301527f3d273270782720783d2734252720793d27323425273e000000000000000000006020830152603682019050919050565b6000613557602f83613ffd565b91507f4552433732314d657461646174613a2055524920717565727920666f72206e6f60008301527f6e6578697374656e7420746f6b656e00000000000000000000000000000000006020830152604082019050919050565b60006135bd600a8361400e565b91507f7b226e616d65223a2022000000000000000000000000000000000000000000006000830152600a82019050919050565b60006135fd60368361400e565b91507f3c2f746578743e3c7465787420636c6173733d276261736527206d617267696e60008301527f3d273270782720783d2734252720793d27353625273e000000000000000000006020830152603682019050919050565b6000613663602183613ffd565b91507f4552433732313a20617070726f76616c20746f2063757272656e74206f776e6560008301527f72000000000000000000000000000000000000000000000000000000000000006020830152604082019050919050565b60006136c9601d8361400e565b91507f646174613a6170706c69636174696f6e2f6a736f6e3b6261736536342c0000006000830152601d82019050919050565b6000613709603183613ffd565b91507f4552433732313a207472616e736665722063616c6c6572206973206e6f74206f60008301527f776e6572206e6f7220617070726f7665640000000000000000000000000000006020830152604082019050919050565b600061376f600e8361400e565b91507f4741524d454e545f4d414b4552530000000000000000000000000000000000006000830152600e82019050919050565b60006137af600b8361400e565b91507f464f4f445f4d414b4552530000000000000000000000000000000000000000006000830152600b82019050919050565b60006137ef600d8361400e565b91507f4d4f554e5441494e5f464f4c4b000000000000000000000000000000000000006000830152600d82019050919050565b600061382f60098361400e565b91507f4641524d5f464f4c4b00000000000000000000000000000000000000000000006000830152600982019050919050565b600061386f600b8361400e565b91507f4445534552545f464f4c4b0000000000000000000000000000000000000000006000830152600b82019050919050565b6138ab81614198565b82525050565b60006138bd8284612ac8565b915081905092915050565b60006138d48285612ac8565b91506138e08284612ac8565b91508190509392505050565b60006138f8828b612ac8565b915061390382612fe8565b915061390f828a612ac8565b915061391a82612fe8565b91506139268289612ac8565b915061393182612fe8565b915061393d8288612ac8565b915061394882612fe8565b91506139548287612ac8565b915061395f82612fe8565b915061396b8286612ac8565b915061397682612fe8565b91506139828285612ac8565b915061398d82612fe8565b91506139998284612ac8565b91508190509998505050505050505050565b60006139b7828c612af9565b91506139c282612c44565b91506139ce828b612ac8565b91506139d98261308e565b91506139e5828a612ac8565b91506139f0826134e4565b91506139fc8289612ac8565b9150613a0782612b78565b9150613a138288612ac8565b9150613a1e82612bde565b9150613a2a8287612ac8565b9150613a35826130f4565b9150613a418286612ac8565b9150613a4c826135f0565b9150613a588285612ac8565b9150613a638261315a565b9150613a6f8284612ac8565b9150613a7a82612fa8565b91508190509a9950505050505050505050565b6000613a9882612d50565b9150613aa48284612ac8565b915081905092915050565b6000613aba82612dd0565b9150613ac68284612ac8565b915081905092915050565b6000613adc82613372565b9150613ae88284612ac8565b915081905092915050565b6000613afe826135b0565b9150613b0a8286612ac8565b9150613b1582612caa565b9150613b218285612ac8565b9150613b2c82612e10565b9150613b388284612ac8565b9150613b43826132f2565b9150819050949350505050565b6000613b5b826136bc565b9150613b678284612ac8565b915081905092915050565b6000613b7d82613762565b9150613b898284612ac8565b915081905092915050565b6000613b9f826137a2565b9150613bab8284612ac8565b915081905092915050565b6000613bc1826137e2565b9150613bcd8284612ac8565b915081905092915050565b6000613be382613822565b9150613bef8284612ac8565b915081905092915050565b6000613c0582613862565b9150613c118284612ac8565b915081905092915050565b6000602082019050613c316000830184612a38565b92915050565b6000608082019050613c4c6000830187612a38565b613c596020830186612a38565b613c6660408301856138a2565b8181036060830152613c788184612a56565b905095945050505050565b6000602082019050613c986000830184612a47565b92915050565b60006020820190508181036000830152613cb88184612a8f565b905092915050565b60006020820190508181036000830152613cd981612cea565b9050919050565b60006020820190508181036000830152613cf981612d90565b9050919050565b60006020820190508181036000830152613d1981612e9c565b9050919050565b60006020820190508181036000830152613d3981612f02565b9050919050565b60006020820190508181036000830152613d5981612f42565b9050919050565b60006020820190508181036000830152613d7981613028565b9050919050565b60006020820190508181036000830152613d99816131c0565b9050919050565b60006020820190508181036000830152613db981613226565b9050919050565b60006020820190508181036000830152613dd98161328c565b9050919050565b60006020820190508181036000830152613df981613332565b9050919050565b60006020820190508181036000830152613e19816133b2565b9050919050565b60006020820190508181036000830152613e3981613418565b9050919050565b60006020820190508181036000830152613e598161347e565b9050919050565b60006020820190508181036000830152613e798161354a565b9050919050565b60006020820190508181036000830152613e9981613656565b9050919050565b60006020820190508181036000830152613eb9816136fc565b9050919050565b6000602082019050613ed560008301846138a2565b92915050565b6000604082019050613ef060008301856138a2565b613efd6020830184612a38565b9392505050565b6000604051905081810181811067ffffffffffffffff82111715613f2b57613f2a61431d565b5b8060405250919050565b600067ffffffffffffffff821115613f5057613f4f61431d565b5b602082029050602081019050919050565b600067ffffffffffffffff821115613f7c57613f7b61431d565b5b601f19601f8301169050602081019050919050565b600067ffffffffffffffff821115613fac57613fab61431d565b5b601f19601f8301169050602081019050919050565b60008190508160005260206000209050919050565b600081519050919050565b600081519050919050565b600082825260208201905092915050565b600082825260208201905092915050565b600081905092915050565b600061402482614198565b915061402f83614198565b9250827fffffffffffffffffffffffffffffffffffffffffffffffffffffffffffffffff0382111561406457614063614290565b5b828201905092915050565b600061407a82614198565b915061408583614198565b925082614095576140946142bf565b5b828204905092915050565b60006140ab82614198565b91506140b683614198565b9250817fffffffffffffffffffffffffffffffffffffffffffffffffffffffffffffffff04831182151516156140ef576140ee614290565b5b828202905092915050565b600061410582614198565b915061411083614198565b92508282101561412357614122614290565b5b828203905092915050565b600061413982614178565b9050919050565b60008115159050919050565b60007fffffffff0000000000000000000000000000000000000000000000000000000082169050919050565b600073ffffffffffffffffffffffffffffffffffffffff82169050919050565b6000819050919050565b82818337600083830152505050565b60005b838110156141cf5780820151818401526020810190506141b4565b838111156141de576000848401525b50505050565b600060028204905060018216806141fc57607f821691505b602082108114156142105761420f6142ee565b5b50919050565b600061422182614198565b91507fffffffffffffffffffffffffffffffffffffffffffffffffffffffffffffffff82141561425457614253614290565b5b600182019050919050565b600061426a82614198565b915061427583614198565b925082614285576142846142bf565b5b828206905092915050565b7f4e487b7100000000000000000000000000000000000000000000000000000000600052601160045260246000fd5b7f4e487b7100000000000000000000000000000000000000000000000000000000600052601260045260246000fd5b7f4e487b7100000000000000000000000000000000000000000000000000000000600052602260045260246000fd5b7f4e487b7100000000000000000000000000000000000000000000000000000000600052604160045260246000fd5b6000601f19601f8301169050919050565b6143668161412e565b811461437157600080fd5b50565b61437d81614140565b811461438857600080fd5b50565b6143948161414c565b811461439f57600080fd5b50565b6143ab81614198565b81146143b657600080fd5b5056fe4142434445464748494a4b4c4d4e4f505152535455565758595a6162636465666768696a6b6c6d6e6f707172737475767778797a303132333435363738392b2fa2646970667358221220a26038e7ac7aea810ee3873af0a07448d57826cc17de6c98232294bfc075989e64736f6c634300080000333c73766720786d6c6e733d27687474703a2f2f7777772e77332e6f72672f323030302f73766727207072657365727665417370656374526174696f3d27784d696e594d696e206d656574272076696577426f783d273020302033353020333530273e3c7374796c653e2e62617365207b2066696c6c3a2077686974653b20666f6e742d66616d696c793a2073657269663b20666f6e742d73697a653a20323470783b207d3c2f7374796c653e3c726563742077696474683d273130302527206865696768743d2731303025272066696c6c3d27626c61636b27202f3e",
  "linkReferences": {},
  "deployedLinkReferences": {}
}