{
  "_format": "hh-sol-artifact-1",
  "contractName": "EpicNFT",
  "sourceName": "contracts/EpicNFT.sol",
  "abi": [
    {
      "inputs": [],
      "stateMutability": "nonpayable",
      "type": "constructor"
    },
    {
      "anonymous": false,
      "inputs": [
        {
          "indexed": true,
          "internalType": "address",
          "name": "owner",
          "type": "address"
        },
        {
          "indexed": true,
          "internalType": "address",
          "name": "approved",
          "type": "address"
        },
        {
          "indexed": true,
          "internalType": "uint256",
          "name": "tokenId",
          "type": "uint256"
        }
      ],
      "name": "Approval",
      "type": "event"
    },
    {
      "anonymous": false,
      "inputs": [
        {
          "indexed": true,
          "internalType": "address",
          "name": "owner",
          "type": "address"
        },
        {
          "indexed": true,
          "internalType": "address",
          "name": "operator",
          "type": "address"
        },
        {
          "indexed": false,
          "internalType": "bool",
          "name": "approved",
          "type": "bool"
        }
      ],
      "name": "ApprovalForAll",
      "type": "event"
    },
    {
      "anonymous": false,
      "inputs": [
        {
          "indexed": false,
          "internalType": "uint256",
          "name": "",
          "type": "uint256"
        },
        {
          "indexed": false,
          "internalType": "address",
          "name": "",
          "type": "address"
        }
      ],
      "name": "EpicMinted",
      "type": "event"
    },
    {
      "anonymous": false,
      "inputs": [
        {
          "indexed": true,
          "internalType": "address",
          "name": "from",
          "type": "address"
        },
        {
          "indexed": true,
          "internalType": "address",
          "name": "to",
          "type": "address"
        },
        {
          "indexed": true,
          "internalType": "uint256",
          "name": "tokenId",
          "type": "uint256"
        }
      ],
      "name": "Transfer",
      "type": "event"
    },
    {
      "inputs": [
        {
          "internalType": "address",
          "name": "to",
          "type": "address"
        },
        {
          "internalType": "uint256",
          "name": "tokenId",
          "type": "uint256"
        }
      ],
      "name": "approve",
      "outputs": [],
      "stateMutability": "nonpayable",
      "type": "function"
    },
    {
      "inputs": [
        {
          "internalType": "address",
          "name": "owner",
          "type": "address"
        }
      ],
      "name": "balanceOf",
      "outputs": [
        {
          "internalType": "uint256",
          "name": "",
          "type": "uint256"
        }
      ],
      "stateMutability": "view",
      "type": "function"
    },
    {
      "inputs": [
        {
          "internalType": "uint256",
          "name": "tokenId",
          "type": "uint256"
        }
      ],
      "name": "getApproved",
      "outputs": [
        {
          "internalType": "address",
          "name": "",
          "type": "address"
        }
      ],
      "stateMutability": "view",
      "type": "function"
    },
    {
      "inputs": [
        {
          "internalType": "address",
          "name": "owner",
          "type": "address"
        },
        {
          "internalType": "address",
          "name": "operator",
          "type": "address"
        }
      ],
      "name": "isApprovedForAll",
      "outputs": [
        {
          "internalType": "bool",
          "name": "",
          "type": "bool"
        }
      ],
      "stateMutability": "view",
      "type": "function"
    },
    {
      "inputs": [],
      "name": "makeAnEpicNFT",
      "outputs": [],
      "stateMutability": "nonpayable",
      "type": "function"
    },
    {
      "inputs": [],
      "name": "name",
      "outputs": [
        {
          "internalType": "string",
          "name": "",
          "type": "string"
        }
      ],
      "stateMutability": "view",
      "type": "function"
    },
    {
      "inputs": [
        {
          "internalType": "uint256",
          "name": "tokenId",
          "type": "uint256"
        }
      ],
      "name": "ownerOf",
      "outputs": [
        {
          "internalType": "address",
          "name": "",
          "type": "address"
        }
      ],
      "stateMutability": "view",
      "type": "function"
    },
    {
      "inputs": [
        {
          "internalType": "string",
          "name": "list_name",
          "type": "string"
        },
        {
          "internalType": "uint256",
          "name": "tokenId",
          "type": "uint256"
        },
        {
          "internalType": "string[]",
          "name": "list",
          "type": "string[]"
        }
      ],
      "name": "pickRandomWord",
      "outputs": [
        {
          "internalType": "string",
          "name": "",
          "type": "string"
        }
      ],
      "stateMutability": "view",
      "type": "function"
    },
    {
      "inputs": [
        {
          "internalType": "address",
          "name": "from",
          "type": "address"
        },
        {
          "internalType": "address",
          "name": "to",
          "type": "address"
        },
        {
          "internalType": "uint256",
          "name": "tokenId",
          "type": "uint256"
        }
      ],
      "name": "safeTransferFrom",
      "outputs": [],
      "stateMutability": "nonpayable",
      "type": "function"
    },
    {
      "inputs": [
        {
          "internalType": "address",
          "name": "from",
          "type": "address"
        },
        {
          "internalType": "address",
          "name": "to",
          "type": "address"
        },
        {
          "internalType": "uint256",
          "name": "tokenId",
          "type": "uint256"
        },
        {
          "internalType": "bytes",
          "name": "_data",
          "type": "bytes"
        }
      ],
      "name": "safeTransferFrom",
      "outputs": [],
      "stateMutability": "nonpayable",
      "type": "function"
    },
    {
      "inputs": [
        {
          "internalType": "address",
          "name": "operator",
          "type": "address"
        },
        {
          "internalType": "bool",
          "name": "approved",
          "type": "bool"
        }
      ],
      "name": "setApprovalForAll",
      "outputs": [],
      "stateMutability": "nonpayable",
      "type": "function"
    },
    {
      "inputs": [
        {
          "internalType": "bytes4",
          "name": "interfaceId",
          "type": "bytes4"
        }
      ],
      "name": "supportsInterface",
      "outputs": [
        {
          "internalType": "bool",
          "name": "",
          "type": "bool"
        }
      ],
      "stateMutability": "view",
      "type": "function"
    },
    {
      "inputs": [],
      "name": "symbol",
      "outputs": [
        {
          "internalType": "string",
          "name": "",
          "type": "string"
        }
      ],
      "stateMutability": "view",
      "type": "function"
    },
    {
      "inputs": [
        {
          "internalType": "uint256",
          "name": "tokenId",
          "type": "uint256"
        }
      ],
      "name": "tokenURI",
      "outputs": [
        {
          "internalType": "string",
          "name": "",
          "type": "string"
        }
      ],
      "stateMutability": "view",
      "type": "function"
    },
    {
      "inputs": [
        {
          "internalType": "address",
          "name": "from",
          "type": "address"
        },
        {
          "internalType": "address",
          "name": "to",
          "type": "address"
        },
        {
          "internalType": "uint256",
          "name": "tokenId",
          "type": "uint256"
        }
      ],
      "name": "transferFrom",
      "outputs": [],
      "stateMutability": "nonpayable",
      "type": "function"
    }
  ],
  "bytecode": "0x608060405260405180610100016040528060dc81526020016200eaa260dc913960089080519060200190620000369291906200a035565b506040518061086001604052806040518060400160405280600681526020017f427269676874000000000000000000000000000000000000000000000000000081525081526020016040518060400160405280600581526020017f42726f776e00000000000000000000000000000000000000000000000000000081525081526020016040518060400160405280600681526020017f42726f776e65000000000000000000000000000000000000000000000000000081525081526020016040518060400160405280600981526020017f427275736866697265000000000000000000000000000000000000000000000081525081526020016040518060400160405280600481526020017f43616d700000000000000000000000000000000000000000000000000000000081525081526020016040518060400160405280600781526020017f43616d706d616e0000000000000000000000000000000000000000000000000081525081526020016040518060400160405280600681526020017f43616e796f6e000000000000000000000000000000000000000000000000000081525081526020016040518060400160405280600981526020017f437269636b65747473000000000000000000000000000000000000000000000081525081526020016040518060400160405280600881526020017f437269636b65747300000000000000000000000000000000000000000000000081525081526020016040518060400160405280600581526020017f44756e657300000000000000000000000000000000000000000000000000000081525081526020016040518060400160405280600581526020017f446f6f6e7300000000000000000000000000000000000000000000000000000081525081526020016040518060400160405280600681526020017f446f6f6e6573000000000000000000000000000000000000000000000000000081525081526020016040518060400160405280600581526020017f44756e6e6500000000000000000000000000000000000000000000000000000081525081526020016040518060400160405280600881526020017f44756e6e656d616e00000000000000000000000000000000000000000000000081525081526020016040518060400160405280600581526020017f466c61747300000000000000000000000000000000000000000000000000000081525081526020016040518060400160405280600381526020017f466f78000000000000000000000000000000000000000000000000000000000081525081526020016040518060400160405280600481526020017f466f78780000000000000000000000000000000000000000000000000000000081525081526020016040518060400160405280600481526020017f476f6c640000000000000000000000000000000000000000000000000000000081525081526020016040518060400160405280600681526020017f476f6c64656e000000000000000000000000000000000000000000000000000081525081526020016040518060400160405280600481526020017f477265790000000000000000000000000000000000000000000000000000000081525081526020016040518060400160405280600481526020017f477261790000000000000000000000000000000000000000000000000000000081525081526020016040518060400160405280600581526020017f47756c636800000000000000000000000000000000000000000000000000000081525081526020016040518060400160405280600581526020017f47756c6c7900000000000000000000000000000000000000000000000000000081525081526020016040518060400160405280600581526020017f486172647900000000000000000000000000000000000000000000000000000081525081526020016040518060400160405280600581526020017f48696c6c7300000000000000000000000000000000000000000000000000000081525081526020016040518060400160405280600481526020017f48696c6c0000000000000000000000000000000000000000000000000000000081525081526020016040518060400160405280600681526020017f486f70706572000000000000000000000000000000000000000000000000000081525081526020016040518060400160405280600681526020017f48756e746572000000000000000000000000000000000000000000000000000081525081526020016040518060400160405280600881526020017f48756e74736d616e00000000000000000000000000000000000000000000000081525081526020016040518060400160405280600581526020017f4d6172636800000000000000000000000000000000000000000000000000000081525081526020016040518060400160405280600781526020017f4d6172636865720000000000000000000000000000000000000000000000000081525081526020016040518060400160405280600481526020017f4d6f6f6e0000000000000000000000000000000000000000000000000000000081525081526020016040518060400160405280600781526020017f5265646d6f6f6e0000000000000000000000000000000000000000000000000081525081526020016040518060400160405280600681526020017f50616c6d6572000000000000000000000000000000000000000000000000000081525081526020016040518060400160405280600581526020017f50616c6d7300000000000000000000000000000000000000000000000000000081525081526020016040518060400160405280600881526020017f506561727472656500000000000000000000000000000000000000000000000081525081526020016040518060400160405280600781526020017f506561726d616e0000000000000000000000000000000000000000000000000081525081526020016040518060400160405280600481526020017f526564640000000000000000000000000000000000000000000000000000000081525081526020016040518060400160405280600381526020017f526564000000000000000000000000000000000000000000000000000000000081525081526020016040518060400160405280600581526020017f526964657200000000000000000000000000000000000000000000000000000081525081526020016040518060400160405280600581526020017f527964657200000000000000000000000000000000000000000000000000000081525081526020016040518060400160405280600481526020017f526f636b0000000000000000000000000000000000000000000000000000000081525081526020016040518060400160405280600781526020017f526f636b6d616e0000000000000000000000000000000000000000000000000081525081526020016040518060400160405280600481526020017f526f636b0000000000000000000000000000000000000000000000000000000081525081526020016040518060400160405280600781526020017f526f636b6d616e0000000000000000000000000000000000000000000000000081525081526020016040518060400160405280600681526020017f526f636b6572000000000000000000000000000000000000000000000000000081525081526020016040518060400160405280600581526020017f53616e647300000000000000000000000000000000000000000000000000000081525081526020016040518060400160405280600681526020017f5363616c6573000000000000000000000000000000000000000000000000000081525081526020016040518060400160405280600881526020017f5265647363616c6500000000000000000000000000000000000000000000000081525081526020016040518060400160405280600981526020017f477265797363616c65000000000000000000000000000000000000000000000081525081526020016040518060400160405280600681526020017f53696e676572000000000000000000000000000000000000000000000000000081525081526020016040518060400160405280600581526020017f536d616c6c00000000000000000000000000000000000000000000000000000081525081526020016040518060400160405280600681526020017f536d616c6c73000000000000000000000000000000000000000000000000000081525081526020016040518060400160405280600481526020017f537461720000000000000000000000000000000000000000000000000000000081525081526020016040518060400160405280600581526020017f537461727200000000000000000000000000000000000000000000000000000081525081526020016040518060400160405280600581526020017f53746f6e6500000000000000000000000000000000000000000000000000000081525081526020016040518060400160405280600881526020017f53746f6e656d616e00000000000000000000000000000000000000000000000081525081526020016040518060400160405280600581526020017f53746f726d00000000000000000000000000000000000000000000000000000081525081526020016040518060400160405280600681526020017f53746f726d73000000000000000000000000000000000000000000000000000081525081526020016040518060400160405280600781526020017f537472696465720000000000000000000000000000000000000000000000000081525081526020016040518060400160405280600781526020017f537472796465720000000000000000000000000000000000000000000000000081525081526020016040518060400160405280600481526020017f53756e6e0000000000000000000000000000000000000000000000000000000081525081526020016040518060400160405280600681526020017f53756e6e6572000000000000000000000000000000000000000000000000000081525081526020016040518060400160405280600a81526020017f54756d626c65776565640000000000000000000000000000000000000000000081525081526020016040518060400160405280600681526020017f57616c6b6572000000000000000000000000000000000000000000000000000081525081526020016040518060400160405280600581526020017f576174657200000000000000000000000000000000000000000000000000000081525081526020016040518060400160405280600781526020017f5761747465727300000000000000000000000000000000000000000000000000815250815250600990604362000fc49291906200a0c6565b50604051806110a001604052806040518060400160405280600981526020017f4170706c6574726565000000000000000000000000000000000000000000000081525081526020016040518060400160405280600681526020017f4170706c6572000000000000000000000000000000000000000000000000000081525081526020016040518060400160405280600681526020017f4170706c696e000000000000000000000000000000000000000000000000000081525081526020016040518060400160405280600681526020017f4261726c6579000000000000000000000000000000000000000000000000000081525081526020016040518060400160405280600a81526020017f4261726c6579636f726e0000000000000000000000000000000000000000000081525081526020016040518060400160405280600a81526020017f4261726c657977696e650000000000000000000000000000000000000000000081525081526020016040518060400160405280600581526020017f4261726e7300000000000000000000000000000000000000000000000000000081525081526020016040518060400160405280600681526020017f4261726e6573000000000000000000000000000000000000000000000000000081525081526020016040518060400160405280600781526020017f4261726e6172640000000000000000000000000000000000000000000000000081525081526020016040518060400160405280600581526020017f4265616e7300000000000000000000000000000000000000000000000000000081525081526020016040518060400160405280600781526020017f4265616e6d616e0000000000000000000000000000000000000000000000000081525081526020016040518060400160405280600981526020017f4265616e7374616c6b000000000000000000000000000000000000000000000081525081526020016040518060400160405280600581526020017f426572727900000000000000000000000000000000000000000000000000000081525081526020016040518060400160405280600981526020017f42657272796c616e64000000000000000000000000000000000000000000000081525081526020016040518060400160405280600581526020017f426c6f6f6d00000000000000000000000000000000000000000000000000000081525081526020016040518060400160405280600981526020017f426c6f6f6d6c616e64000000000000000000000000000000000000000000000081525081526020016040518060400160405280600581526020017f42726f776e00000000000000000000000000000000000000000000000000000081525081526020016040518060400160405280600981526020017f42726f776e6c616e64000000000000000000000000000000000000000000000081525081526020016040518060400160405280600881526020017f42726f776e61726400000000000000000000000000000000000000000000000081525081526020016040518060400160405280600481526020017f42756c6c0000000000000000000000000000000000000000000000000000000081525081526020016040518060400160405280600881526020017f42756c6c7961726400000000000000000000000000000000000000000000000081525081526020016040518060400160405280600781526020017f436162626167650000000000000000000000000000000000000000000000000081525081526020016040518060400160405280600781526020017f4b6162626167650000000000000000000000000000000000000000000000000081525081526020016040518060400160405280600681526020017f436f74746f6e000000000000000000000000000000000000000000000000000081525081526020016040518060400160405280600a81526020017f436f74746f6e736565640000000000000000000000000000000000000000000081525081526020016040518060400160405280600681526020017f43726f707065000000000000000000000000000000000000000000000000000081525081526020016040518060400160405280600781526020017f43726f706d616e0000000000000000000000000000000000000000000000000081525081526020016040518060400160405280600881526020017f44616972796d616e00000000000000000000000000000000000000000000000081525081526020016040518060400160405280600881526020017f44617272796d616e00000000000000000000000000000000000000000000000081525081526020016040518060400160405280600581526020017f446172727900000000000000000000000000000000000000000000000000000081525081526020016040518060400160405280600581526020017f446572727900000000000000000000000000000000000000000000000000000081525081526020016040518060400160405280600681526020017f4661726d6572000000000000000000000000000000000000000000000000000081525081526020016040518060400160405280600681526020017f4661726d6f72000000000000000000000000000000000000000000000000000081525081526020016040518060400160405280600681526020017f4669656c6473000000000000000000000000000000000000000000000000000081525081526020016040518060400160405280600781526020017f4669656c6465720000000000000000000000000000000000000000000000000081525081526020016040518060400160405280600881526020017f4669656c646d616e00000000000000000000000000000000000000000000000081525081526020016040518060400160405280600581526020017f466c61747300000000000000000000000000000000000000000000000000000081525081526020016040518060400160405280600881526020017f526564666c61747300000000000000000000000000000000000000000000000081525081526020016040518060400160405280600981526020017f53616e64666c617473000000000000000000000000000000000000000000000081525081526020016040518060400160405280600a81526020017f53746f6e65666c6174730000000000000000000000000000000000000000000081525081526020016040518060400160405280600781526020017f466c6f776572730000000000000000000000000000000000000000000000000081525081526020016040518060400160405280600781526020017f476172646e65720000000000000000000000000000000000000000000000000081525081526020016040518060400160405280600881526020017f47617264656e657200000000000000000000000000000000000000000000000081525081526020016040518060400160405280600881526020017f47617264696e657200000000000000000000000000000000000000000000000081525081526020016040518060400160405280600581526020017f477265656e00000000000000000000000000000000000000000000000000000081525081526020016040518060400160405280600681526020017f477265656e65000000000000000000000000000000000000000000000000000081525081526020016040518060400160405280600981526020017f477265656e6c616e64000000000000000000000000000000000000000000000081525081526020016040518060400160405280600981526020017f477265656e79617264000000000000000000000000000000000000000000000081525081526020016040518060400160405280600581526020017f47726f766500000000000000000000000000000000000000000000000000000081525081526020016040518060400160405280600981526020017f47726f76656c616e64000000000000000000000000000000000000000000000081525081526020016040518060400160405280600481526020017f486179730000000000000000000000000000000000000000000000000000000081525081526020016040518060400160405280600581526020017f486179657300000000000000000000000000000000000000000000000000000081525081526020016040518060400160405280600781526020017f486179776172640000000000000000000000000000000000000000000000000081525081526020016040518060400160405280600981526020017f48656e6b6565706572000000000000000000000000000000000000000000000081525081526020016040518060400160405280600981526020017f48656e6e65726d616e000000000000000000000000000000000000000000000081525081526020016040518060400160405280600481526020017f486572640000000000000000000000000000000000000000000000000000000081525081526020016040518060400160405280600481526020017f487572640000000000000000000000000000000000000000000000000000000081525081526020016040518060400160405280600881526020017f486572646c616e6400000000000000000000000000000000000000000000000081525081526020016040518060400160405280600481526020017f4c616e640000000000000000000000000000000000000000000000000000000081525081526020016040518060400160405280600681526020017f4c616e646572000000000000000000000000000000000000000000000000000081525081526020016040518060400160405280600581526020017f4d6172657300000000000000000000000000000000000000000000000000000081525081526020016040518060400160405280600481526020017f4d6179720000000000000000000000000000000000000000000000000000000081525081526020016040518060400160405280600481526020017f4d6169720000000000000000000000000000000000000000000000000000000081525081526020016040518060400160405280600781526020017f4d6561646f77730000000000000000000000000000000000000000000000000081525081526020016040518060400160405280600481526020017f4d696c6b0000000000000000000000000000000000000000000000000000000081525081526020016040518060400160405280600681526020017f4d696c6c6574000000000000000000000000000000000000000000000000000081525081526020016040518060400160405280600781526020017f4d696c6c6574740000000000000000000000000000000000000000000000000081525081526020016040518060400160405280600581526020017f4d696c6c7300000000000000000000000000000000000000000000000000000081525081526020016040518060400160405280600681526020017f4d696c6c6572000000000000000000000000000000000000000000000000000081525081526020016040518060400160405280600781526020017f4d696c6c6172640000000000000000000000000000000000000000000000000081525081526020016040518060400160405280600581526020017f4e6565707300000000000000000000000000000000000000000000000000000081525081526020016040518060400160405280600881526020017f4e6565706c616e6400000000000000000000000000000000000000000000000081525081526020016040518060400160405280600481526020017f4e7574740000000000000000000000000000000000000000000000000000000081525081526020016040518060400160405280600681526020017f4e75746d616e000000000000000000000000000000000000000000000000000081525081526020016040518060400160405280600581526020017f4f6174657300000000000000000000000000000000000000000000000000000081525081526020016040518060400160405280600481526020017f4f6174730000000000000000000000000000000000000000000000000000000081525081526020016040518060400160405280600881526020017f4f7665726c616e6400000000000000000000000000000000000000000000000081525081526020016040518060400160405280600981526020017f4f7665726669656c64000000000000000000000000000000000000000000000081525081526020016040518060400160405280600881526020017f506561727472656500000000000000000000000000000000000000000000000081525081526020016040518060400160405280600781526020017f506561726d616e0000000000000000000000000000000000000000000000000081525081526020016040518060400160405280600581526020017f506561736500000000000000000000000000000000000000000000000000000081525081526020016040518060400160405280600681526020017f506561706f64000000000000000000000000000000000000000000000000000081525081526020016040518060400160405280600781526020017f506561626f64790000000000000000000000000000000000000000000000000081525081526020016040518060400160405280600681526020017f5069636b6574000000000000000000000000000000000000000000000000000081525081526020016040518060400160405280600881526020017f5069636b6574747300000000000000000000000000000000000000000000000081525081526020016040518060400160405280600781526020017f5069636b656e730000000000000000000000000000000000000000000000000081525081526020016040518060400160405280600781526020017f5069636b6d616e0000000000000000000000000000000000000000000000000081525081526020016040518060400160405280600581526020017f506c616e7400000000000000000000000000000000000000000000000000000081525081526020016040518060400160405280600781526020017f506c616e7465720000000000000000000000000000000000000000000000000081525081526020016040518060400160405280600981526020017f506c6f7567686d616e000000000000000000000000000000000000000000000081525081526020016040518060400160405280600781526020017f506c6f776d616e0000000000000000000000000000000000000000000000000081525081526020016040518060400160405280600b81526020017f506c6f75676865726d616e00000000000000000000000000000000000000000081525081526020016040518060400160405280600681526020017f506f6c6c656e000000000000000000000000000000000000000000000000000081525081526020016040518060400160405280600681526020017f506f6c6c696e000000000000000000000000000000000000000000000000000081525081526020016040518060400160405280600581526020017f506f6c6c7900000000000000000000000000000000000000000000000000000081525081526020016040518060400160405280600781526020017f506f6c6c6172640000000000000000000000000000000000000000000000000081525081526020016040518060400160405280600581526020017f5261696e7300000000000000000000000000000000000000000000000000000081525081526020016040518060400160405280600681526020017f5261696e6573000000000000000000000000000000000000000000000000000081525081526020016040518060400160405280600581526020017f5261796e7300000000000000000000000000000000000000000000000000000081525081526020016040518060400160405280600681526020017f5261796e6573000000000000000000000000000000000000000000000000000081525081526020016040518060400160405280600781526020017f5261696e6172640000000000000000000000000000000000000000000000000081525081526020016040518060400160405280600481526020017f526f6f740000000000000000000000000000000000000000000000000000000081525081526020016040518060400160405280600581526020017f526f6f746500000000000000000000000000000000000000000000000000000081525081526020016040518060400160405280600781526020017f5275746c616e640000000000000000000000000000000000000000000000000081525081526020016040518060400160405280600881526020017f536865706865726400000000000000000000000000000000000000000000000081525081526020016040518060400160405280600781526020017f536865706172640000000000000000000000000000000000000000000000000081525081526020016040518060400160405280600781526020017f536865707972640000000000000000000000000000000000000000000000000081525081526020016040518060400160405280600781526020017f536865617265720000000000000000000000000000000000000000000000000081525081526020016040518060400160405280600781526020017f536865657265720000000000000000000000000000000000000000000000000081525081526020016040518060400160405280600681526020017f536865617273000000000000000000000000000000000000000000000000000081525081526020016040518060400160405280600681526020017f536865657273000000000000000000000000000000000000000000000000000081525081526020016040518060400160405280600581526020017f536f77657200000000000000000000000000000000000000000000000000000081525081526020016040518060400160405280600681526020017f536f77617264000000000000000000000000000000000000000000000000000081525081526020016040518060400160405280600481526020017f546174650000000000000000000000000000000000000000000000000000000081525081526020016040518060400160405280600581526020017f546174657200000000000000000000000000000000000000000000000000000081525081526020016040518060400160405280600681526020017f546872657368000000000000000000000000000000000000000000000000000081525081526020016040518060400160405280600981526020017f546872657368657474000000000000000000000000000000000000000000000081525081526020016040518060400160405280600681526020017f54696c6c6572000000000000000000000000000000000000000000000000000081525081526020016040518060400160405280600781526020017f54696c6c6d616e0000000000000000000000000000000000000000000000000081525081526020016040518060400160405280600581526020017f56696e657300000000000000000000000000000000000000000000000000000081525081526020016040518060400160405280600881526020017f56696e656c616e6400000000000000000000000000000000000000000000000081525081526020016040518060400160405280600881526020017f57686561746c657900000000000000000000000000000000000000000000000081525081526020016040518060400160405280600781526020017f57686561746c790000000000000000000000000000000000000000000000000081525081526020016040518060400160405280600581526020017f576865617400000000000000000000000000000000000000000000000000000081525081526020016040518060400160405280600981526020017f5768697474616b6572000000000000000000000000000000000000000000000081525081526020016040518060400160405280600781526020017f576869746172640000000000000000000000000000000000000000000000000081525081526020016040518060400160405280600781526020017f57696e6e6f77730000000000000000000000000000000000000000000000000081525081526020016040518060400160405280600881526020017f57696e6e6f77657200000000000000000000000000000000000000000000000081525081526020016040518060400160405280600481526020017f576f6f6c0000000000000000000000000000000000000000000000000000000081525081526020016040518060400160405280600781526020017f576f6f6c6172640000000000000000000000000000000000000000000000000081525081526020016040518060400160405280600681526020017f596172646c79000000000000000000000000000000000000000000000000000081525081526020016040518060400160405280600781526020017f596172646c65790000000000000000000000000000000000000000000000000081525081526020016040518060400160405280600581526020017f5961726473000000000000000000000000000000000000000000000000000000815250815250600a90608562002e889291906200a12d565b506040518061092001604052806040518060400160405280600481526020017f416c65730000000000000000000000000000000000000000000000000000000081525081526020016040518060400160405280600681526020017f416c656d616e000000000000000000000000000000000000000000000000000081525081526020016040518060400160405280600481526020017f416c65720000000000000000000000000000000000000000000000000000000081525081526020016040518060400160405280600581526020017f42616b657200000000000000000000000000000000000000000000000000000081525081526020016040518060400160405280600481526020017f42616b650000000000000000000000000000000000000000000000000000000081525081526020016040518060400160405280600781526020017f42616b656c65720000000000000000000000000000000000000000000000000081525081526020016040518060400160405280600481526020017f426172720000000000000000000000000000000000000000000000000000000081525081526020016040518060400160405280600581526020017f426172726500000000000000000000000000000000000000000000000000000081525081526020016040518060400160405280600681526020017f4261726d616e000000000000000000000000000000000000000000000000000081525081526020016040518060400160405280600581526020017f426572727900000000000000000000000000000000000000000000000000000081525081526020016040518060400160405280600881526020017f42657272796d616e00000000000000000000000000000000000000000000000081525081526020016040518060400160405280600881526020017f42657272696d616e00000000000000000000000000000000000000000000000081525081526020016040518060400160405280600581526020017f426f796c6500000000000000000000000000000000000000000000000000000081525081526020016040518060400160405280600681526020017f426f696c6573000000000000000000000000000000000000000000000000000081525081526020016040518060400160405280600681526020017f426f796c6573000000000000000000000000000000000000000000000000000081525081526020016040518060400160405280600681526020017f427265776572000000000000000000000000000000000000000000000000000081525081526020016040518060400160405280600881526020017f427265777374657200000000000000000000000000000000000000000000000081525081526020016040518060400160405280600781526020017f42726f796c65730000000000000000000000000000000000000000000000000081525081526020016040518060400160405280600781526020017f42726f696c65730000000000000000000000000000000000000000000000000081525081526020016040518060400160405280600781526020017f42726f796c65720000000000000000000000000000000000000000000000000081525081526020016040518060400160405280600781526020017f427574636865720000000000000000000000000000000000000000000000000081525081526020016040518060400160405280600881526020017f427574636865747400000000000000000000000000000000000000000000000081525081526020016040518060400160405280600481526020017f436f6f6b0000000000000000000000000000000000000000000000000000000081525081526020016040518060400160405280600481526020017f446963650000000000000000000000000000000000000000000000000000000081525081526020016040518060400160405280600a81526020017f446f75676865726d616e0000000000000000000000000000000000000000000081525081526020016040518060400160405280600781526020017f446f75676865720000000000000000000000000000000000000000000000000081525081526020016040518060400160405280600381526020017f467279000000000000000000000000000000000000000000000000000000000081525081526020016040518060400160405280600481526020017f467265790000000000000000000000000000000000000000000000000000000081525081526020016040518060400160405280600681526020017f4672796d616e000000000000000000000000000000000000000000000000000081525081526020016040518060400160405280600781526020017f476172646e65720000000000000000000000000000000000000000000000000081525081526020016040518060400160405280600881526020017f47617264656e657200000000000000000000000000000000000000000000000081525081526020016040518060400160405280600881526020017f47617264696e657200000000000000000000000000000000000000000000000081525081526020016040518060400160405280600681526020017f4772696c6c73000000000000000000000000000000000000000000000000000081525081526020016040518060400160405280600881526020017f4772696c6c65747400000000000000000000000000000000000000000000000081525081526020016040518060400160405280600581526020017f496e6e657300000000000000000000000000000000000000000000000000000081525081526020016040518060400160405280600681526020017f496e6e6d616e000000000000000000000000000000000000000000000000000081525081526020016040518060400160405280600581526020017f496e6d616e00000000000000000000000000000000000000000000000000000081525081526020016040518060400160405280600681526020017f4b6574746c65000000000000000000000000000000000000000000000000000081525081526020016040518060400160405280600b81526020017f4b6574746c65626c61636b00000000000000000000000000000000000000000081525081526020016040518060400160405280600981526020017f4b6574746c656d616e000000000000000000000000000000000000000000000081525081526020016040518060400160405280600881526020017f4b6e6561646c657200000000000000000000000000000000000000000000000081525081526020016040518060400160405280600881526020017f4b6e6561646d616e00000000000000000000000000000000000000000000000081525081526020016040518060400160405280600481526020017f4d696c6b0000000000000000000000000000000000000000000000000000000081525081526020016040518060400160405280600681526020017f4d696c6c6572000000000000000000000000000000000000000000000000000081525081526020016040518060400160405280600581526020017f4d696c6c7300000000000000000000000000000000000000000000000000000081525081526020016040518060400160405280600681526020017f4d696c6c6572000000000000000000000000000000000000000000000000000081525081526020016040518060400160405280600881526020017f50616c6577696e6500000000000000000000000000000000000000000000000081525081526020016040518060400160405280600381526020017f50616e000000000000000000000000000000000000000000000000000000000081525081526020016040518060400160405280600981526020017f50616e6e65726d616e000000000000000000000000000000000000000000000081525081526020016040518060400160405280600781526020017f50616e6e696e670000000000000000000000000000000000000000000000000081525081526020016040518060400160405280600781526020017f506570706572730000000000000000000000000000000000000000000000000081525081526020016040518060400160405280600681526020017f506570706572000000000000000000000000000000000000000000000000000081525081526020016040518060400160405280600781526020017f5069636b6c65720000000000000000000000000000000000000000000000000081525081526020016040518060400160405280600981526020017f5069636b6c656d616e000000000000000000000000000000000000000000000081525081526020016040518060400160405280600781526020017f5069636b6c65730000000000000000000000000000000000000000000000000081525081526020016040518060400160405280600681526020017f5069656d616e000000000000000000000000000000000000000000000000000081525081526020016040518060400160405280600881526020017f5069656d616b657200000000000000000000000000000000000000000000000081525081526020016040518060400160405280600581526020017f506f74747300000000000000000000000000000000000000000000000000000081525081526020016040518060400160405280600481526020017f506f74740000000000000000000000000000000000000000000000000000000081525081526020016040518060400160405280600681526020017f506f74746572000000000000000000000000000000000000000000000000000081525081526020016040518060400160405280600781526020017f52656477696e650000000000000000000000000000000000000000000000000081525081526020016040518060400160405280600a81526020017f526f61737465726d616e0000000000000000000000000000000000000000000081525081526020016040518060400160405280600481526020017f53616c740000000000000000000000000000000000000000000000000000000081525081526020016040518060400160405280600681526020017f53616c746572000000000000000000000000000000000000000000000000000081525081526020016040518060400160405280600581526020017f53696d6d7300000000000000000000000000000000000000000000000000000081525081526020016040518060400160405280600981526020017f53696d6d65726d616e000000000000000000000000000000000000000000000081525081526020016040518060400160405280600981526020017f536c61756768746572000000000000000000000000000000000000000000000081525081526020016040518060400160405280600581526020017f536d6f6b6500000000000000000000000000000000000000000000000000000081525081526020016040518060400160405280600681526020017f536d6f6b6572000000000000000000000000000000000000000000000000000081525081526020016040518060400160405280600581526020017f56696e657300000000000000000000000000000000000000000000000000000081525081526020016040518060400160405280600781526020017f56696e746e65720000000000000000000000000000000000000000000000000081525081526020016040518060400160405280600f81526020017f56696e616b65722057696e616b6572000000000000000000000000000000000081525081526020016040518060400160405280600781526020017f57696e656d616e00000000000000000000000000000000000000000000000000815250815250600b90604962003f789291906200a194565b50604051806107e001604052806040518060400160405280600581526020017f426967677300000000000000000000000000000000000000000000000000000081525081526020016040518060400160405280600481526020017f426967670000000000000000000000000000000000000000000000000000000081525081526020016040518060400160405280600581526020017f427967677300000000000000000000000000000000000000000000000000000081525081526020016040518060400160405280600481526020017f43616d700000000000000000000000000000000000000000000000000000000081525081526020016040518060400160405280600781526020017f43616d706d616e0000000000000000000000000000000000000000000000000081525081526020016040518060400160405280600681526020017f436f61746573000000000000000000000000000000000000000000000000000081525081526020016040518060400160405280600581526020017f46726f737400000000000000000000000000000000000000000000000000000081525081526020016040518060400160405280600581526020017f467572727300000000000000000000000000000000000000000000000000000081525081526020016040518060400160405280600781526020017f467572726d616e0000000000000000000000000000000000000000000000000081525081526020016040518060400160405280600781526020017f47726179736b790000000000000000000000000000000000000000000000000081525081526020016040518060400160405280600881526020017f5768697465736b7900000000000000000000000000000000000000000000000081525081526020016040518060400160405280600881526020017f426c61636b736b7900000000000000000000000000000000000000000000000081525081526020016040518060400160405280600481526020017f477265790000000000000000000000000000000000000000000000000000000081525081526020016040518060400160405280600481526020017f477261790000000000000000000000000000000000000000000000000000000081525081526020016040518060400160405280600581526020017f486172647900000000000000000000000000000000000000000000000000000081525081526020016040518060400160405280600881526020017f4861726469736f6e00000000000000000000000000000000000000000000000081525081526020016040518060400160405280600881526020017f486172646c616e6400000000000000000000000000000000000000000000000081525081526020016040518060400160405280600781526020017f4861726c616e640000000000000000000000000000000000000000000000000081525081526020016040518060400160405280600581526020017f48696c6c7300000000000000000000000000000000000000000000000000000081525081526020016040518060400160405280600481526020017f48696c6c0000000000000000000000000000000000000000000000000000000081525081526020016040518060400160405280600581526020017f48796c6c7300000000000000000000000000000000000000000000000000000081525081526020016040518060400160405280600681526020017f48756e746572000000000000000000000000000000000000000000000000000081525081526020016040518060400160405280600881526020017f48756e74736d616e00000000000000000000000000000000000000000000000081525081526020016040518060400160405280600381526020017f496365000000000000000000000000000000000000000000000000000000000081525081526020016040518060400160405280600781526020017f4963656c616e640000000000000000000000000000000000000000000000000081525081526020016040518060400160405280600781526020017f49636577696e640000000000000000000000000000000000000000000000000081525081526020016040518060400160405280600981526020017f496365637574746572000000000000000000000000000000000000000000000081525081526020016040518060400160405280600781526020017f5963656c616e640000000000000000000000000000000000000000000000000081525081526020016040518060400160405280600781526020017f59636577696e640000000000000000000000000000000000000000000000000081525081526020016040518060400160405280600981526020017f596365637574746572000000000000000000000000000000000000000000000081525081526020016040518060400160405280600981526020017f4c6f6e676e69676874000000000000000000000000000000000000000000000081525081526020016040518060400160405280600881526020017f4c6f6e676461726b00000000000000000000000000000000000000000000000081525081526020016040518060400160405280600481526020017f4d6f6f6e0000000000000000000000000000000000000000000000000000000081525081526020016040518060400160405280600a81526020017f57696e7465726d6f6f6e0000000000000000000000000000000000000000000081525081526020016040518060400160405280600581526020017f4e6f72746800000000000000000000000000000000000000000000000000000081525081526020016040518060400160405280600881526020017f4e6f7274686d616e00000000000000000000000000000000000000000000000081525081526020016040518060400160405280600681526020017f4e6f726d616e000000000000000000000000000000000000000000000000000081525081526020016040518060400160405280600981526020017f4e6f7274686c616e64000000000000000000000000000000000000000000000081525081526020016040518060400160405280600781526020017f4e6f726c616e640000000000000000000000000000000000000000000000000081525081526020016040518060400160405280600381526020017f506978000000000000000000000000000000000000000000000000000000000081525081526020016040518060400160405280600781526020017f5069636b6d616e0000000000000000000000000000000000000000000000000081525081526020016040518060400160405280600681526020017f5069636b6573000000000000000000000000000000000000000000000000000081525081526020016040518060400160405280600681526020017f5079636b6573000000000000000000000000000000000000000000000000000081525081526020016040518060400160405280600681526020017f5365616c6573000000000000000000000000000000000000000000000000000081525081526020016040518060400160405280600581526020017f5365616c7300000000000000000000000000000000000000000000000000000081525081526020016040518060400160405280600681526020017f53696c766572000000000000000000000000000000000000000000000000000081525081526020016040518060400160405280600a81526020017f53696c7665726d6f6f6e0000000000000000000000000000000000000000000081525081526020016040518060400160405280600681526020017f53796c766572000000000000000000000000000000000000000000000000000081525081526020016040518060400160405280600481526020017f536e6f770000000000000000000000000000000000000000000000000000000081525081526020016040518060400160405280600681526020017f536e6f776573000000000000000000000000000000000000000000000000000081525081526020016040518060400160405280600481526020017f537461720000000000000000000000000000000000000000000000000000000081525081526020016040518060400160405280600581526020017f537461727200000000000000000000000000000000000000000000000000000081525081526020016040518060400160405280600981526020017f4e6f72746873746172000000000000000000000000000000000000000000000081525081526020016040518060400160405280600581526020017f53746f6e6500000000000000000000000000000000000000000000000000000081525081526020016040518060400160405280600881526020017f53746f6e656d616e00000000000000000000000000000000000000000000000081525081526020016040518060400160405280600781526020017f537472696465720000000000000000000000000000000000000000000000000081525081526020016040518060400160405280600781526020017f537472796465720000000000000000000000000000000000000000000000000081525081526020016040518060400160405280600681526020017f57616c6b6572000000000000000000000000000000000000000000000000000081525081526020016040518060400160405280600581526020017f576869746500000000000000000000000000000000000000000000000000000081525081526020016040518060400160405280600581526020017f576879746500000000000000000000000000000000000000000000000000000081525081526020016040518060400160405280600681526020017f57696e746572000000000000000000000000000000000000000000000000000081525081526020016040518060400160405280600781526020017f57696e746572730000000000000000000000000000000000000000000000000081525081526020016040518060400160405280600781526020017f57796e7465727300000000000000000000000000000000000000000000000000815250815250600c90603f62004e1a9291906200a1fb565b506040518061074001604052806040518060400160405280600681526020017f426f6262696e000000000000000000000000000000000000000000000000000081525081526020016040518060400160405280600481526020017f426f6c740000000000000000000000000000000000000000000000000000000081525081526020016040518060400160405280600581526020017f426f6c746500000000000000000000000000000000000000000000000000000081525081526020016040518060400160405280600681526020017f426f6c746572000000000000000000000000000000000000000000000000000081525081526020016040518060400160405280600681526020017f427574746f6e000000000000000000000000000000000000000000000000000081525081526020016040518060400160405280600b81526020017f427574746f6e776f72746800000000000000000000000000000000000000000081525081526020016040518060400160405280600681526020017f436170657273000000000000000000000000000000000000000000000000000081525081526020016040518060400160405280600681526020017f436f61746573000000000000000000000000000000000000000000000000000081525081526020016040518060400160405280600681526020017f436f74746f6e000000000000000000000000000000000000000000000000000081525081526020016040518060400160405280600481526020017f447965720000000000000000000000000000000000000000000000000000000081525081526020016040518060400160405280600381526020017f447965000000000000000000000000000000000000000000000000000000000081525081526020016040518060400160405280600881526020017f447965776f72746800000000000000000000000000000000000000000000000081525081526020016040518060400160405280600781526020017f44796572736f6e0000000000000000000000000000000000000000000000000081525081526020016040518060400160405280600581526020017f4479736f6e00000000000000000000000000000000000000000000000000000081525081526020016040518060400160405280600681526020017f46656c746572000000000000000000000000000000000000000000000000000081525081526020016040518060400160405280600981526020017f46656c7465726d616e000000000000000000000000000000000000000000000081525081526020016040518060400160405280600681526020017f476c6f766572000000000000000000000000000000000000000000000000000081525081526020016040518060400160405280600681526020017f486174746572000000000000000000000000000000000000000000000000000081525081526020016040518060400160405280600581526020017f486174747900000000000000000000000000000000000000000000000000000081525081526020016040518060400160405280600881526020017f48617474696d616e00000000000000000000000000000000000000000000000081525081526020016040518060400160405280600681526020017f486174736f6e000000000000000000000000000000000000000000000000000081525081526020016040518060400160405280600881526020017f48656d6d696e677300000000000000000000000000000000000000000000000081525081526020016040518060400160405280600781526020017f48656d696e67730000000000000000000000000000000000000000000000000081525081526020016040518060400160405280600681526020017f48656d736f6e000000000000000000000000000000000000000000000000000081525081526020016040518060400160405280600481526020017f487964650000000000000000000000000000000000000000000000000000000081525081526020016040518060400160405280600581526020017f486964657300000000000000000000000000000000000000000000000000000081525081526020016040518060400160405280600581526020017f487964657300000000000000000000000000000000000000000000000000000081525081526020016040518060400160405280600881526020017f4c6561746865727300000000000000000000000000000000000000000000000081525081526020016040518060400160405280600781526020017f4c6574686572730000000000000000000000000000000000000000000000000081525081526020016040518060400160405280600681526020017f4d6572636572000000000000000000000000000000000000000000000000000081525081526020016040518060400160405280600981526020017f4e6565646c656d616e000000000000000000000000000000000000000000000081525081526020016040518060400160405280600781526020017f4e6565646c65720000000000000000000000000000000000000000000000000081525081526020016040518060400160405280600b81526020017f4e6565646c65776f72746800000000000000000000000000000000000000000081525081526020016040518060400160405280600581526020017f5365616d7300000000000000000000000000000000000000000000000000000081525081526020016040518060400160405280600581526020017f5365656d7300000000000000000000000000000000000000000000000000000081525081526020016040518060400160405280600981526020017f5365656d776f727468000000000000000000000000000000000000000000000081525081526020016040518060400160405280600781526020017f536865617265720000000000000000000000000000000000000000000000000081525081526020016040518060400160405280600781526020017f536865657265720000000000000000000000000000000000000000000000000081525081526020016040518060400160405280600681526020017f536865617273000000000000000000000000000000000000000000000000000081525081526020016040518060400160405280600681526020017f536865657273000000000000000000000000000000000000000000000000000081525081526020016040518060400160405280600981526020017f53686f656d616b6572000000000000000000000000000000000000000000000081525081526020016040518060400160405280600881526020017f537469746368657300000000000000000000000000000000000000000000000081525081526020016040518060400160405280600b81526020017f537469746368776f72746800000000000000000000000000000000000000000081525081526020016040518060400160405280600681526020017f5461696c6f72000000000000000000000000000000000000000000000000000081525081526020016040518060400160405280600681526020017f5461796c6f72000000000000000000000000000000000000000000000000000081525081526020016040518060400160405280600681526020017f54616e6e6572000000000000000000000000000000000000000000000000000081525081526020016040518060400160405280600981526020017f54616e6e65726d616e000000000000000000000000000000000000000000000081525081526020016040518060400160405280600681526020017f546872656464000000000000000000000000000000000000000000000000000081525081526020016040518060400160405280600981526020017f5468726564646c6572000000000000000000000000000000000000000000000081525081526020016040518060400160405280600981526020017f5468726564646d616e000000000000000000000000000000000000000000000081525081526020016040518060400160405280600a81526020017f546872656464616b65720000000000000000000000000000000000000000000081525081526020016040518060400160405280600681526020017f576561766572000000000000000000000000000000000000000000000000000081525081526020016040518060400160405280600681526020017f576565766572000000000000000000000000000000000000000000000000000081525081526020016040518060400160405280600481526020017f576f6f6c0000000000000000000000000000000000000000000000000000000081525081526020016040518060400160405280600981526020017f576f6f6c776f727468000000000000000000000000000000000000000000000081525081526020016040518060400160405280600681526020017f596172646c79000000000000000000000000000000000000000000000000000081525081526020016040518060400160405280600781526020017f596172646c65790000000000000000000000000000000000000000000000000081525081526020016040518060400160405280600581526020017f5961726473000000000000000000000000000000000000000000000000000000815250815250600d90603a62005b959291906200a262565b506040518061082001604052806040518060400160405280600381526020017f426179000000000000000000000000000000000000000000000000000000000081525081526020016040518060400160405280600581526020017f426179657300000000000000000000000000000000000000000000000000000081525081526020016040518060400160405280600581526020017f426179657200000000000000000000000000000000000000000000000000000081525081526020016040518060400160405280600681526020017f426179657273000000000000000000000000000000000000000000000000000081525081526020016040518060400160405280600781526020017f426561636865720000000000000000000000000000000000000000000000000081525081526020016040518060400160405280600581526020017f426561636800000000000000000000000000000000000000000000000000000081525081526020016040518060400160405280600481526020017f426c75650000000000000000000000000000000000000000000000000000000081525081526020016040518060400160405280600681526020017f426f776d616e000000000000000000000000000000000000000000000000000081525081526020016040518060400160405280600881526020017f436173746177617900000000000000000000000000000000000000000000000081525081526020016040518060400160405280600581526020017f437261626200000000000000000000000000000000000000000000000000000081525081526020016040518060400160405280600481526020017f437261620000000000000000000000000000000000000000000000000000000081525081526020016040518060400160405280600581526020017f437265737400000000000000000000000000000000000000000000000000000081525081526020016040518060400160405280600481526020017f446179730000000000000000000000000000000000000000000000000000000081525081526020016040518060400160405280600581526020017f446179657300000000000000000000000000000000000000000000000000000081525081526020016040518060400160405280600581526020017f44756e657300000000000000000000000000000000000000000000000000000081525081526020016040518060400160405280600581526020017f446f6f6e7300000000000000000000000000000000000000000000000000000081525081526020016040518060400160405280600681526020017f446f6f6e6573000000000000000000000000000000000000000000000000000081525081526020016040518060400160405280600581526020017f44756e6e6500000000000000000000000000000000000000000000000000000081525081526020016040518060400160405280600881526020017f44756e6e656d616e00000000000000000000000000000000000000000000000081525081526020016040518060400160405280600481526020017f456464790000000000000000000000000000000000000000000000000000000081525081526020016040518060400160405280600681526020017f466973686572000000000000000000000000000000000000000000000000000081525081526020016040518060400160405280600781526020017f466973686d616e0000000000000000000000000000000000000000000000000081525081526020016040518060400160405280600781526020017f466c6f776572730000000000000000000000000000000000000000000000000081525081526020016040518060400160405280600681526020017f486172706572000000000000000000000000000000000000000000000000000081525081526020016040518060400160405280600481526020017f486f6f6b0000000000000000000000000000000000000000000000000000000081525081526020016040518060400160405280600581526020017f486f6f6b6500000000000000000000000000000000000000000000000000000081525081526020016040518060400160405280600481526020017f496c65730000000000000000000000000000000000000000000000000000000081525081526020016040518060400160405280600581526020017f49736c657300000000000000000000000000000000000000000000000000000081525081526020016040518060400160405280600581526020017f41696c657300000000000000000000000000000000000000000000000000000081525081526020016040518060400160405280600481526020017f4d6173740000000000000000000000000000000000000000000000000000000081525081526020016040518060400160405280600681526020017f50616c6d6572000000000000000000000000000000000000000000000000000081525081526020016040518060400160405280600581526020017f50616c6d7300000000000000000000000000000000000000000000000000000081525081526020016040518060400160405280600681526020017f5261666d616e000000000000000000000000000000000000000000000000000081525081526020016040518060400160405280600781526020017f526166746d616e0000000000000000000000000000000000000000000000000081525081526020016040518060400160405280600481526020017f5265656c0000000000000000000000000000000000000000000000000000000081525081526020016040518060400160405280600881526020017f5265656c696e677300000000000000000000000000000000000000000000000081525081526020016040518060400160405280600481526020017f53616c740000000000000000000000000000000000000000000000000000000081525081526020016040518060400160405280600781526020017f53656173616c740000000000000000000000000000000000000000000000000081525081526020016040518060400160405280600581526020017f53616e647300000000000000000000000000000000000000000000000000000081525081526020016040518060400160405280600781526020017f53616e646d616e0000000000000000000000000000000000000000000000000081525081526020016040518060400160405280600981526020017f536561627265657a65000000000000000000000000000000000000000000000081525081526020016040518060400160405280600581526020017f5368656c6c00000000000000000000000000000000000000000000000000000081525081526020016040518060400160405280600881526020017f5368656c6c6d616e00000000000000000000000000000000000000000000000081525081526020016040518060400160405280600a81526020017f5368656c6c6d6f756e640000000000000000000000000000000000000000000081525081526020016040518060400160405280600781526020017f5368656c6c65720000000000000000000000000000000000000000000000000081525081526020016040518060400160405280600781526020017f5368656c6c65790000000000000000000000000000000000000000000000000081525081526020016040518060400160405280600681526020017f53686f616c73000000000000000000000000000000000000000000000000000081525081526020016040518060400160405280600681526020017f53696e676572000000000000000000000000000000000000000000000000000081525081526020016040518060400160405280600481526020017f537461720000000000000000000000000000000000000000000000000000000081525081526020016040518060400160405280600581526020017f537461727200000000000000000000000000000000000000000000000000000081525081526020016040518060400160405280600581526020017f537465726e00000000000000000000000000000000000000000000000000000081525081526020016040518060400160405280600681526020017f537465726e65000000000000000000000000000000000000000000000000000081525081526020016040518060400160405280600a81526020017f5374696c6c77617465720000000000000000000000000000000000000000000081525081526020016040518060400160405280600581526020017f53746f726d00000000000000000000000000000000000000000000000000000081525081526020016040518060400160405280600681526020017f53746f726d73000000000000000000000000000000000000000000000000000081525081526020016040518060400160405280600781526020017f53756d6d6572730000000000000000000000000000000000000000000000000081525081526020016040518060400160405280600481526020017f53756e6e0000000000000000000000000000000000000000000000000000000081525081526020016040518060400160405280600681526020017f53756e6e6572000000000000000000000000000000000000000000000000000081525081526020016040518060400160405280600781526020017f5377696d6d65720000000000000000000000000000000000000000000000000081525081526020016040518060400160405280600881526020017f536877696d6d657200000000000000000000000000000000000000000000000081525081526020016040518060400160405280600781526020017f5377796d6d65720000000000000000000000000000000000000000000000000081525081526020016040518060400160405280600981526020017f546964657761746572000000000000000000000000000000000000000000000081525081526020016040518060400160405280600681526020017f576174657273000000000000000000000000000000000000000000000000000081525081526020016040518060400160405280600781526020017f576174746572730000000000000000000000000000000000000000000000000081525081526020016040518060400160405280600881526020017f57617465726d616e000000000000000000000000000000000000000000000000815250815250600e90604162006aad9291906200a2c9565b506040518061076001604052806040518060400160405280600481526020017f417263680000000000000000000000000000000000000000000000000000000081525081526020016040518060400160405280600981526020017f417263686d616b6572000000000000000000000000000000000000000000000081525081526020016040518060400160405280600781526020017f4261736b6574740000000000000000000000000000000000000000000000000081525081526020016040518060400160405280600681526020017f4261736b6574000000000000000000000000000000000000000000000000000081525081526020016040518060400160405280600681526020017f42696c646572000000000000000000000000000000000000000000000000000081525081526020016040518060400160405280600781526020017f4275696c6465720000000000000000000000000000000000000000000000000081525081526020016040518060400160405280600681526020017f42756c646572000000000000000000000000000000000000000000000000000081525081526020016040518060400160405280600581526020017f42696c647300000000000000000000000000000000000000000000000000000081525081526020016040518060400160405280600481526020017f426c6f770000000000000000000000000000000000000000000000000000000081525081526020016040518060400160405280600881526020017f427269636b6d616e00000000000000000000000000000000000000000000000081525081526020016040518060400160405280600781526020017f427269636b65720000000000000000000000000000000000000000000000000081525081526020016040518060400160405280600681526020017f427279636b73000000000000000000000000000000000000000000000000000081525081526020016040518060400160405280600681526020017f427269636b73000000000000000000000000000000000000000000000000000081525081526020016040518060400160405280600581526020017f427572676800000000000000000000000000000000000000000000000000000081525081526020016040518060400160405280600481526020017f426572670000000000000000000000000000000000000000000000000000000081525081526020016040518060400160405280600481526020017f427572670000000000000000000000000000000000000000000000000000000081525081526020016040518060400160405280600781526020017f427572676865720000000000000000000000000000000000000000000000000081525081526020016040518060400160405280600681526020017f426572676572000000000000000000000000000000000000000000000000000081525081526020016040518060400160405280600681526020017f427572676572000000000000000000000000000000000000000000000000000081525081526020016040518060400160405280600981526020017f43617270656e746572000000000000000000000000000000000000000000000081525081526020016040518060400160405280600881526020017f4368616e646c657200000000000000000000000000000000000000000000000081525081526020016040518060400160405280600781526020017f43616e646c65720000000000000000000000000000000000000000000000000081525081526020016040518060400160405280600481526020017f436c61790000000000000000000000000000000000000000000000000000000081525081526020016040518060400160405280600681526020017f436f6f706572000000000000000000000000000000000000000000000000000081525081526020016040518060400160405280600781526020017f437261667465720000000000000000000000000000000000000000000000000081525081526020016040518060400160405280600581526020017f476c61737300000000000000000000000000000000000000000000000000000081525081526020016040518060400160405280600781526020017f476c617a6965720000000000000000000000000000000000000000000000000081525081526020016040518060400160405280600781526020017f476c61736965720000000000000000000000000000000000000000000000000081525081526020016040518060400160405280600681526020017f48616d6d6572000000000000000000000000000000000000000000000000000081525081526020016040518060400160405280600581526020017f4d616b657200000000000000000000000000000000000000000000000000000081525081526020016040518060400160405280600581526020017f4d61736f6e00000000000000000000000000000000000000000000000000000081525081526020016040518060400160405280600581526020017f4d6173656e00000000000000000000000000000000000000000000000000000081525081526020016040518060400160405280600581526020017f4d6173796e00000000000000000000000000000000000000000000000000000081525081526020016040518060400160405280600581526020017f506f74747300000000000000000000000000000000000000000000000000000081525081526020016040518060400160405280600481526020017f506f74740000000000000000000000000000000000000000000000000000000081525081526020016040518060400160405280600681526020017f506f74746572000000000000000000000000000000000000000000000000000081525081526020016040518060400160405280600881526020017f517561727269657200000000000000000000000000000000000000000000000081525081526020016040518060400160405280600981526020017f5175617272796d616e000000000000000000000000000000000000000000000081525081526020016040518060400160405280600481526020017f526f636b0000000000000000000000000000000000000000000000000000000081525081526020016040518060400160405280600781526020017f526f636b6d616e0000000000000000000000000000000000000000000000000081525081526020016040518060400160405280600681526020017f526f636b6572000000000000000000000000000000000000000000000000000081525081526020016040518060400160405280600481526020017f526f6f660000000000000000000000000000000000000000000000000000000081525081526020016040518060400160405280600581526020017f526f6f666500000000000000000000000000000000000000000000000000000081525081526020016040518060400160405280600681526020017f536177796572000000000000000000000000000000000000000000000000000081525081526020016040518060400160405280600581526020017f53746f6e6500000000000000000000000000000000000000000000000000000081525081526020016040518060400160405280600881526020017f53746f6e656d616e00000000000000000000000000000000000000000000000081525081526020016040518060400160405280600681526020017f546f776e6573000000000000000000000000000000000000000000000000000081525081526020016040518060400160405280600581526020017f546f776e7300000000000000000000000000000000000000000000000000000081525081526020016040518060400160405280600581526020017f546f776e7900000000000000000000000000000000000000000000000000000081525081526020016040518060400160405280600481526020017f5761686c0000000000000000000000000000000000000000000000000000000081525081526020016040518060400160405280600481526020017f57616c6c0000000000000000000000000000000000000000000000000000000081525081526020016040518060400160405280600581526020017f5761686c7300000000000000000000000000000000000000000000000000000081525081526020016040518060400160405280600581526020017f57616c6c7300000000000000000000000000000000000000000000000000000081525081526020016040518060400160405280600681526020017f57616c6c6572000000000000000000000000000000000000000000000000000081525081526020016040518060400160405280600681526020017f5761786d616e000000000000000000000000000000000000000000000000000081525081526020016040518060400160405280600381526020017f576178000000000000000000000000000000000000000000000000000000000081525081526020016040518060400160405280600681526020017f5761636b6573000000000000000000000000000000000000000000000000000081525081526020016040518060400160405280600481526020017f576f6f640000000000000000000000000000000000000000000000000000000081525081526020016040518060400160405280600581526020017f576f6f6473000000000000000000000000000000000000000000000000000000815250815250600f90603b620078639291906200a330565b5060405180610d2001604052806040518060400160405280600581526020017f42696c6c7900000000000000000000000000000000000000000000000000000081525081526020016040518060400160405280600681526020017f42696c6c6965000000000000000000000000000000000000000000000000000081525081526020016040518060400160405280600681526020017f426c75666665000000000000000000000000000000000000000000000000000081525081526020016040518060400160405280600c81526020017f426c756666636c696d626572000000000000000000000000000000000000000081525081526020016040518060400160405280600781526020017f426f756c6465720000000000000000000000000000000000000000000000000081525081526020016040518060400160405280600681526020017f42756c646572000000000000000000000000000000000000000000000000000081525081526020016040518060400160405280600481526020017f43616d700000000000000000000000000000000000000000000000000000000081525081526020016040518060400160405280600781526020017f43616d706d616e0000000000000000000000000000000000000000000000000081525081526020016040518060400160405280600781526020017f436c61796d65720000000000000000000000000000000000000000000000000081525081526020016040518060400160405280600681526020017f436c61796d73000000000000000000000000000000000000000000000000000081525081526020016040518060400160405280600781526020017f436c61696d65720000000000000000000000000000000000000000000000000081525081526020016040518060400160405280600481526020017f436f6c650000000000000000000000000000000000000000000000000000000081525081526020016040518060400160405280600581526020017f436f6c657200000000000000000000000000000000000000000000000000000081525081526020016040518060400160405280600781526020017f436f6c656d616e0000000000000000000000000000000000000000000000000081525081526020016040518060400160405280600781526020017f436f616c6d616e0000000000000000000000000000000000000000000000000081525081526020016040518060400160405280600681526020017f436f616c6572000000000000000000000000000000000000000000000000000081525081526020016040518060400160405280600a81526020017f436f616c6469676765720000000000000000000000000000000000000000000081525081526020016040518060400160405280600a81526020017f436f6c656465676765720000000000000000000000000000000000000000000081525081526020016040518060400160405280600681526020017f436f6e646f72000000000000000000000000000000000000000000000000000081525081526020016040518060400160405280600981526020017f436f6e646f726d616e000000000000000000000000000000000000000000000081525081526020016040518060400160405280600581526020017f437261676700000000000000000000000000000000000000000000000000000081525081526020016040518060400160405280600781526020017f437261676d616e0000000000000000000000000000000000000000000000000081525081526020016040518060400160405280600581526020017f446967677300000000000000000000000000000000000000000000000000000081525081526020016040518060400160405280600681526020017f446967676572000000000000000000000000000000000000000000000000000081525081526020016040518060400160405280600781526020017f446967676d616e0000000000000000000000000000000000000000000000000081525081526020016040518060400160405280600681526020017f446967676572000000000000000000000000000000000000000000000000000081525081526020016040518060400160405280600781526020017f446967676574740000000000000000000000000000000000000000000000000081525081526020016040518060400160405280600b81526020017f447261676f6e686f61726400000000000000000000000000000000000000000081525081526020016040518060400160405280600a81526020017f447261676f6e686f72640000000000000000000000000000000000000000000081525081526020016040518060400160405280600681526020017f447261676f6e000000000000000000000000000000000000000000000000000081525081526020016040518060400160405280600581526020017f4472616b6500000000000000000000000000000000000000000000000000000081525081526020016040518060400160405280600681526020017f447265646765000000000000000000000000000000000000000000000000000081525081526020016040518060400160405280600781526020017f447265646765720000000000000000000000000000000000000000000000000081525081526020016040518060400160405280600481526020017f48616c6c0000000000000000000000000000000000000000000000000000000081525081526020016040518060400160405280600481526020017f4861756c0000000000000000000000000000000000000000000000000000000081525081526020016040518060400160405280600781526020017f486569676874730000000000000000000000000000000000000000000000000081525081526020016040518060400160405280600681526020017f486967687473000000000000000000000000000000000000000000000000000081525081526020016040518060400160405280600581526020017f487974657300000000000000000000000000000000000000000000000000000081525081526020016040518060400160405280600581526020017f486974657300000000000000000000000000000000000000000000000000000081525081526020016040518060400160405280600881526020017f486967686c616e6400000000000000000000000000000000000000000000000081525081526020016040518060400160405280600581526020017f48696c6c7300000000000000000000000000000000000000000000000000000081525081526020016040518060400160405280600481526020017f48696c6c0000000000000000000000000000000000000000000000000000000081525081526020016040518060400160405280600b81526020017f48696c6c636c696d62657200000000000000000000000000000000000000000081525081526020016040518060400160405280600a81526020017f48796c6c746f707065720000000000000000000000000000000000000000000081525081526020016040518060400160405280600581526020017f486f61726400000000000000000000000000000000000000000000000000000081525081526020016040518060400160405280600481526020017f486f72640000000000000000000000000000000000000000000000000000000081525081526020016040518060400160405280600481526020017f486f61720000000000000000000000000000000000000000000000000000000081525081526020016040518060400160405280600a81526020017f486f61726469676765720000000000000000000000000000000000000000000081525081526020016040518060400160405280600981526020017f486f72646567676572000000000000000000000000000000000000000000000081525081526020016040518060400160405280600481526020017f4b6964640000000000000000000000000000000000000000000000000000000081525081526020016040518060400160405280600681526020017f4b69706d616e000000000000000000000000000000000000000000000000000081525081526020016040518060400160405280600681526020017f4b6970706572000000000000000000000000000000000000000000000000000081525081526020016040518060400160405280600681526020017f4b6970736f6e000000000000000000000000000000000000000000000000000081525081526020016040518060400160405280600b81526020017f4b6f707065726669656c6400000000000000000000000000000000000000000081525081526020016040518060400160405280600581526020017f4d696e657200000000000000000000000000000000000000000000000000000081525081526020016040518060400160405280600581526020017f4d796e657200000000000000000000000000000000000000000000000000000081525081526020016040518060400160405280600581526020017f4d796e6f7200000000000000000000000000000000000000000000000000000081525081526020016040518060400160405280600581526020017f4d696e6f7200000000000000000000000000000000000000000000000000000081525081526020016040518060400160405280600481526020017f4d6f6c650000000000000000000000000000000000000000000000000000000081525081526020016040518060400160405280600581526020017f4d6f6c657200000000000000000000000000000000000000000000000000000081525081526020016040518060400160405280600681526020017f4d6f6c6c6572000000000000000000000000000000000000000000000000000081525081526020016040518060400160405280600681526020017f4d6f6c736f6e000000000000000000000000000000000000000000000000000081525081526020016040518060400160405280600681526020017f4d6f6c73656e000000000000000000000000000000000000000000000000000081525081526020016040518060400160405280600481526020017f4f7265730000000000000000000000000000000000000000000000000000000081525081526020016040518060400160405280600381526020017f4f7272000000000000000000000000000000000000000000000000000000000081525081526020016040518060400160405280600481526020017f4f7272730000000000000000000000000000000000000000000000000000000081525081526020016040518060400160405280600981526020017f4f7265646967676572000000000000000000000000000000000000000000000081525081526020016040518060400160405280600981526020017f4f7272646567676572000000000000000000000000000000000000000000000081525081526020016040518060400160405280600581526020017f4f72736f6e00000000000000000000000000000000000000000000000000000081525081526020016040518060400160405280600681526020017f4f727273656e000000000000000000000000000000000000000000000000000081525081526020016040518060400160405280600381526020017f50616e000000000000000000000000000000000000000000000000000000000081525081526020016040518060400160405280600481526020017f50616e730000000000000000000000000000000000000000000000000000000081525081526020016040518060400160405280600981526020017f50616e6e65726d616e000000000000000000000000000000000000000000000081525081526020016040518060400160405280600781526020017f50616e6e696e670000000000000000000000000000000000000000000000000081525081526020016040518060400160405280600581526020017f5065616b7300000000000000000000000000000000000000000000000000000081525081526020016040518060400160405280600581526020017f5065656b7300000000000000000000000000000000000000000000000000000081525081526020016040518060400160405280600481526020017f50696b650000000000000000000000000000000000000000000000000000000081525081526020016040518060400160405280600481526020017f50796b650000000000000000000000000000000000000000000000000000000081525081526020016040518060400160405280600b81526020017f50696b65636c696d62657200000000000000000000000000000000000000000081525081526020016040518060400160405280600a81526020017f50796b65746f707065720000000000000000000000000000000000000000000081525081526020016040518060400160405280600381526020017f506978000000000000000000000000000000000000000000000000000000000081525081526020016040518060400160405280600781526020017f5069636b6d616e0000000000000000000000000000000000000000000000000081525081526020016040518060400160405280600681526020017f5069636b6573000000000000000000000000000000000000000000000000000081525081526020016040518060400160405280600681526020017f5079636b6573000000000000000000000000000000000000000000000000000081525081526020016040518060400160405280600781526020017f5069636b656e730000000000000000000000000000000000000000000000000081525081526020016040518060400160405280600881526020017f517561727269657200000000000000000000000000000000000000000000000081525081526020016040518060400160405280600981526020017f5175617272796d616e000000000000000000000000000000000000000000000081525081526020016040518060400160405280600581526020017f526964676500000000000000000000000000000000000000000000000000000081525081526020016040518060400160405280600c81526020017f5269646765636c696d626572000000000000000000000000000000000000000081525081526020016040518060400160405280600b81526020017f5269646765746f7070657200000000000000000000000000000000000000000081525081526020016040518060400160405280600481526020017f526f636b0000000000000000000000000000000000000000000000000000000081525081526020016040518060400160405280600781526020017f526f636b6d616e0000000000000000000000000000000000000000000000000081525081526020016040518060400160405280600681526020017f526f636b6572000000000000000000000000000000000000000000000000000081525081526020016040518060400160405280600981526020017f526f636b7269646765000000000000000000000000000000000000000000000081525081526020016040518060400160405280600481526020017f536e6f770000000000000000000000000000000000000000000000000000000081525081526020016040518060400160405280600681526020017f536e6f776573000000000000000000000000000000000000000000000000000081525081526020016040518060400160405280600581526020017f537061646500000000000000000000000000000000000000000000000000000081525081526020016040518060400160405280600e81526020017f53706164657220537072696e677300000000000000000000000000000000000081525081526020016040518060400160405280600881526020017f537072696e67657200000000000000000000000000000000000000000000000081525081526020016040518060400160405280600581526020017f53746f6e6500000000000000000000000000000000000000000000000000000081525081526020016040518060400160405280600881526020017f53746f6e656d616e00000000000000000000000000000000000000000000000081525081526020016040518060400160405280600981526020017f556e64657268696c6c000000000000000000000000000000000000000000000081525081526020016040518060400160405280600981526020017f556e646572776f6f64000000000000000000000000000000000000000000000081525081526020016040518060400160405280600881526020017f556e6465726d616e00000000000000000000000000000000000000000000000081525081526020016040518060400160405280600681526020017f57616c6b657200000000000000000000000000000000000000000000000000008152508152506010906069620090b39291906200a397565b506040518061076001604052806040518060400160405280600481526020017f426172720000000000000000000000000000000000000000000000000000000081525081526020016040518060400160405280600581526020017f426172726500000000000000000000000000000000000000000000000000000081525081526020016040518060400160405280600481526020017f436173680000000000000000000000000000000000000000000000000000000081525081526020016040518060400160405280600681526020017f436f70706572000000000000000000000000000000000000000000000000000081525081526020016040518060400160405280600781526020017f436f70706572730000000000000000000000000000000000000000000000000081525081526020016040518060400160405280600581526020017f437572727900000000000000000000000000000000000000000000000000000081525081526020016040518060400160405280600581526020017f4465616c7300000000000000000000000000000000000000000000000000000081525081526020016040518060400160405280600581526020017f4465656c7300000000000000000000000000000000000000000000000000000081525081526020016040518060400160405280600481526020017f4465656c0000000000000000000000000000000000000000000000000000000081525081526020016040518060400160405280600881526020017f4465656c616b657200000000000000000000000000000000000000000000000081525081526020016040518060400160405280600781526020017f4465656c6d616e0000000000000000000000000000000000000000000000000081525081526020016040518060400160405280600781526020017f4469616d6f6e640000000000000000000000000000000000000000000000000081525081526020016040518060400160405280600581526020017f476c61737300000000000000000000000000000000000000000000000000000081525081526020016040518060400160405280600781526020017f476c617a6965720000000000000000000000000000000000000000000000000081525081526020016040518060400160405280600781526020017f476c61736965720000000000000000000000000000000000000000000000000081525081526020016040518060400160405280600481526020017f476f6c640000000000000000000000000000000000000000000000000000000081525081526020016040518060400160405280600681526020017f476f6c64656e000000000000000000000000000000000000000000000000000081525081526020016040518060400160405280600981526020017f476f6c64736d697468000000000000000000000000000000000000000000000081525081526020016040518060400160405280600781526020017f476f6c646d616e0000000000000000000000000000000000000000000000000081525081526020016040518060400160405280600681526020017f4a6577656c73000000000000000000000000000000000000000000000000000081525081526020016040518060400160405280600581526020017f4a756c657300000000000000000000000000000000000000000000000000000081525081526020016040518060400160405280600581526020017f4a65776c7300000000000000000000000000000000000000000000000000000081525081526020016040518060400160405280600681526020017f4c656e646572000000000000000000000000000000000000000000000000000081525081526020016040518060400160405280600981526020017f4c656e6465726d616e000000000000000000000000000000000000000000000081525081526020016040518060400160405280600681526020017f4c796e646572000000000000000000000000000000000000000000000000000081525081526020016040518060400160405280600681526020017f4d6572636572000000000000000000000000000000000000000000000000000081525081526020016040518060400160405280600581526020017f4d6f6e657900000000000000000000000000000000000000000000000000000081525081526020016040518060400160405280600581526020017f4d756e6e7900000000000000000000000000000000000000000000000000000081525081526020016040518060400160405280600581526020017f4d6f6e6e7900000000000000000000000000000000000000000000000000000081525081526020016040518060400160405280600681526020017f4d756e6e6565000000000000000000000000000000000000000000000000000081525081526020016040518060400160405280600681526020017f4d6f6e6e6565000000000000000000000000000000000000000000000000000081525081526020016040518060400160405280600781526020017f506570706572730000000000000000000000000000000000000000000000000081525081526020016040518060400160405280600681526020017f506570706572000000000000000000000000000000000000000000000000000081525081526020016040518060400160405280600481526020017f526963680000000000000000000000000000000000000000000000000000000081525081526020016040518060400160405280600781526020017f526963686d616e0000000000000000000000000000000000000000000000000081525081526020016040518060400160405280600781526020017f526963686574740000000000000000000000000000000000000000000000000081525081526020016040518060400160405280600681526020017f526963686573000000000000000000000000000000000000000000000000000081525081526020016040518060400160405280600781526020017f53616666726f6e0000000000000000000000000000000000000000000000000081525081526020016040518060400160405280600481526020017f536167650000000000000000000000000000000000000000000000000000000081525081526020016040518060400160405280600481526020017f53616c740000000000000000000000000000000000000000000000000000000081525081526020016040518060400160405280600681526020017f5363616c6573000000000000000000000000000000000000000000000000000081525081526020016040518060400160405280600581526020017f5368696e6500000000000000000000000000000000000000000000000000000081525081526020016040518060400160405280600581526020017f536869707300000000000000000000000000000000000000000000000000000081525081526020016040518060400160405280600781526020017f536368697070730000000000000000000000000000000000000000000000000081525081526020016040518060400160405280600681526020017f536869707073000000000000000000000000000000000000000000000000000081525081526020016040518060400160405280600781526020017f536869706d616e0000000000000000000000000000000000000000000000000081525081526020016040518060400160405280600981526020017f5363686970706d616e000000000000000000000000000000000000000000000081525081526020016040518060400160405280600681526020017f53696c766572000000000000000000000000000000000000000000000000000081525081526020016040518060400160405280600681526020017f53796c766572000000000000000000000000000000000000000000000000000081525081526020016040518060400160405280600981526020017f53696c7665726d616e000000000000000000000000000000000000000000000081525081526020016040518060400160405280600581526020017f536d616c6c00000000000000000000000000000000000000000000000000000081525081526020016040518060400160405280600681526020017f536d616c6c73000000000000000000000000000000000000000000000000000081525081526020016040518060400160405280600681526020017f537069636572000000000000000000000000000000000000000000000000000081525081526020016040518060400160405280600881526020017f53706963656d616e00000000000000000000000000000000000000000000000081525081526020016040518060400160405280600481526020017f537461720000000000000000000000000000000000000000000000000000000081525081526020016040518060400160405280600581526020017f537461727200000000000000000000000000000000000000000000000000000081525081526020016040518060400160405280600581526020017f5468796d6500000000000000000000000000000000000000000000000000000081525081526020016040518060400160405280600481526020017f576172650000000000000000000000000000000000000000000000000000000081525081526020016040518060400160405280600481526020017f576f6f6c00000000000000000000000000000000000000000000000000000000815250815250601190603b62009e699291906200a330565b5034801562009e7757600080fd5b506040518060400160405280600c81526020017f45706963436f6e747261637400000000000000000000000000000000000000008152506040518060400160405280600481526020017f4550494300000000000000000000000000000000000000000000000000000000815250816000908051906020019062009efc9291906200a035565b50806001908051906020019062009f159291906200a035565b50505062009f636040518060400160405280601981526020017f45706963436f6e747261637420636f6e7374727563746564210000000000000081525062009f6960201b620017061760201c565b6200a5b8565b6200a0098160405160240162009f8091906200a4cc565b6040516020818303038152906040527f41304fac000000000000000000000000000000000000000000000000000000007bffffffffffffffffffffffffffffffffffffffffffffffffffffffff19166020820180517bffffffffffffffffffffffffffffffffffffffffffffffffffffffff83818316178352505050506200a00c60201b60201c565b50565b60008151905060006a636f6e736f6c652e6c6f679050602083016000808483855afa5050505050565b8280546200a043906200a542565b90600052602060002090601f0160209004810192826200a06757600085556200a0b3565b82601f106200a08257805160ff19168380011785556200a0b3565b828001600101855582156200a0b3579182015b828111156200a0b25782518255916020019190600101906200a095565b5b5090506200a0c291906200a3fe565b5090565b8280548282559060005260206000209081019282156200a11a579160200282015b828111156200a1195782518290805190602001906200a1089291906200a035565b50916020019190600101906200a0e7565b5b5090506200a12991906200a41d565b5090565b8280548282559060005260206000209081019282156200a181579160200282015b828111156200a1805782518290805190602001906200a16f9291906200a035565b50916020019190600101906200a14e565b5b5090506200a19091906200a41d565b5090565b8280548282559060005260206000209081019282156200a1e8579160200282015b828111156200a1e75782518290805190602001906200a1d69291906200a035565b50916020019190600101906200a1b5565b5b5090506200a1f791906200a41d565b5090565b8280548282559060005260206000209081019282156200a24f579160200282015b828111156200a24e5782518290805190602001906200a23d9291906200a035565b50916020019190600101906200a21c565b5b5090506200a25e91906200a41d565b5090565b8280548282559060005260206000209081019282156200a2b6579160200282015b828111156200a2b55782518290805190602001906200a2a49291906200a035565b50916020019190600101906200a283565b5b5090506200a2c591906200a41d565b5090565b8280548282559060005260206000209081019282156200a31d579160200282015b828111156200a31c5782518290805190602001906200a30b9291906200a035565b50916020019190600101906200a2ea565b5b5090506200a32c91906200a41d565b5090565b8280548282559060005260206000209081019282156200a384579160200282015b828111156200a3835782518290805190602001906200a3729291906200a035565b50916020019190600101906200a351565b5b5090506200a39391906200a41d565b5090565b8280548282559060005260206000209081019282156200a3eb579160200282015b828111156200a3ea5782518290805190602001906200a3d99291906200a035565b50916020019190600101906200a3b8565b5b5090506200a3fa91906200a41d565b5090565b5b808211156200a4195760008160009055506001016200a3ff565b5090565b5b808211156200a44157600081816200a43791906200a445565b506001016200a41e565b5090565b5080546200a453906200a542565b6000825580601f106200a46757506200a488565b601f0160209004906000526020600020908101906200a48791906200a3fe565b5b50565b60006200a498826200a4f0565b6200a4a481856200a4fb565b93506200a4b68185602086016200a50c565b6200a4c1816200a5a7565b840191505092915050565b600060208201905081810360008301526200a4e881846200a48b565b905092915050565b600081519050919050565b600082825260208201905092915050565b60005b838110156200a52c5780820151818401526020810190506200a50f565b838111156200a53c576000848401525b50505050565b600060028204905060018216806200a55b57607f821691505b602082108114156200a572576200a5716200a578565b5b50919050565b7f4e487b7100000000000000000000000000000000000000000000000000000000600052602260045260246000fd5b6000601f19601f8301169050919050565b6144da806200a5c86000396000f3fe608060405234801561001057600080fd5b50600436106100f55760003560e01c806370a0823111610097578063c87b56dd11610066578063c87b56dd14610282578063de9d132f146102b2578063e985e9c5146102bc578063f712a73e146102ec576100f5565b806370a08231146101fc57806395d89b411461022c578063a22cb4651461024a578063b88d4fde14610266576100f5565b8063095ea7b3116100d3578063095ea7b31461017857806323b872dd1461019457806342842e0e146101b05780636352211e146101cc576100f5565b806301ffc9a7146100fa57806306fdde031461012a578063081812fc14610148575b600080fd5b610114600480360381019061010f91906129e9565b61031c565b6040516101219190613d2e565b60405180910390f35b6101326103fe565b60405161013f9190613d49565b60405180910390f35b610162600480360381019061015d9190612aba565b610490565b60405161016f9190613cc7565b60405180910390f35b610192600480360381019061018d91906129ad565b610515565b005b6101ae60048036038101906101a991906128a7565b61062d565b005b6101ca60048036038101906101c591906128a7565b61068d565b005b6101e660048036038101906101e19190612aba565b6106ad565b6040516101f39190613cc7565b60405180910390f35b61021660048036038101906102119190612842565b61075f565b6040516102239190613f6b565b60405180910390f35b610234610817565b6040516102419190613d49565b60405180910390f35b610264600480360381019061025f9190612971565b6108a9565b005b610280600480360381019061027b91906128f6565b610a2a565b005b61029c60048036038101906102979190612aba565b610a8c565b6040516102a99190613d49565b60405180910390f35b6102ba610bde565b005b6102d660048036038101906102d1919061286b565b6115e0565b6040516102e39190613d2e565b60405180910390f35b61030660048036038101906103019190612a3b565b611674565b6040516103139190613d49565b60405180910390f35b60007f80ac58cd000000000000000000000000000000000000000000000000000000007bffffffffffffffffffffffffffffffffffffffffffffffffffffffff1916827bffffffffffffffffffffffffffffffffffffffffffffffffffffffff191614806103e757507f5b5e139f000000000000000000000000000000000000000000000000000000007bffffffffffffffffffffffffffffffffffffffffffffffffffffffff1916827bffffffffffffffffffffffffffffffffffffffffffffffffffffffff1916145b806103f757506103f68261179f565b5b9050919050565b60606000805461040d9061428f565b80601f01602080910402602001604051908101604052809291908181526020018280546104399061428f565b80156104865780601f1061045b57610100808354040283529160200191610486565b820191906000526020600020905b81548152906001019060200180831161046957829003601f168201915b5050505050905090565b600061049b82611809565b6104da576040517f08c379a00000000000000000000000000000000000000000000000000000000081526004016104d190613ecb565b60405180910390fd5b6004600083815260200190815260200160002060009054906101000a900473ffffffffffffffffffffffffffffffffffffffff169050919050565b6000610520826106ad565b90508073ffffffffffffffffffffffffffffffffffffffff168373ffffffffffffffffffffffffffffffffffffffff161415610591576040517f08c379a000000000000000000000000000000000000000000000000000000000815260040161058890613f2b565b60405180910390fd5b8073ffffffffffffffffffffffffffffffffffffffff166105b0611875565b73ffffffffffffffffffffffffffffffffffffffff1614806105df57506105de816105d9611875565b6115e0565b5b61061e576040517f08c379a000000000000000000000000000000000000000000000000000000000815260040161061590613e0b565b60405180910390fd5b610628838361187d565b505050565b61063e610638611875565b82611936565b61067d576040517f08c379a000000000000000000000000000000000000000000000000000000000815260040161067490613f4b565b60405180910390fd5b610688838383611a14565b505050565b6106a883838360405180602001604052806000815250610a2a565b505050565b6000806002600084815260200190815260200160002060009054906101000a900473ffffffffffffffffffffffffffffffffffffffff169050600073ffffffffffffffffffffffffffffffffffffffff168173ffffffffffffffffffffffffffffffffffffffff161415610756576040517f08c379a000000000000000000000000000000000000000000000000000000000815260040161074d90613e4b565b60405180910390fd5b80915050919050565b60008073ffffffffffffffffffffffffffffffffffffffff168273ffffffffffffffffffffffffffffffffffffffff1614156107d0576040517f08c379a00000000000000000000000000000000000000000000000000000000081526004016107c790613e2b565b60405180910390fd5b600360008373ffffffffffffffffffffffffffffffffffffffff1673ffffffffffffffffffffffffffffffffffffffff168152602001908152602001600020549050919050565b6060600180546108269061428f565b80601f01602080910402602001604051908101604052809291908181526020018280546108529061428f565b801561089f5780601f106108745761010080835404028352916020019161089f565b820191906000526020600020905b81548152906001019060200180831161088257829003601f168201915b5050505050905090565b6108b1611875565b73ffffffffffffffffffffffffffffffffffffffff168273ffffffffffffffffffffffffffffffffffffffff16141561091f576040517f08c379a000000000000000000000000000000000000000000000000000000000815260040161091690613dcb565b60405180910390fd5b806005600061092c611875565b73ffffffffffffffffffffffffffffffffffffffff1673ffffffffffffffffffffffffffffffffffffffff16815260200190815260200160002060008473ffffffffffffffffffffffffffffffffffffffff1673ffffffffffffffffffffffffffffffffffffffff16815260200190815260200160002060006101000a81548160ff0219169083151502179055508173ffffffffffffffffffffffffffffffffffffffff166109d9611875565b73ffffffffffffffffffffffffffffffffffffffff167f17307eab39ab6107e8899845ad3d59bd9653f200f220920489ca2b5937696c3183604051610a1e9190613d2e565b60405180910390a35050565b610a3b610a35611875565b83611936565b610a7a576040517f08c379a0000000000000000000000000000000000000000000000000000000008152600401610a7190613f4b565b60405180910390fd5b610a8684848484611c70565b50505050565b6060610a9782611809565b610ad6576040517f08c379a0000000000000000000000000000000000000000000000000000000008152600401610acd90613eab565b60405180910390fd5b6000600660008481526020019081526020016000208054610af69061428f565b80601f0160208091040260200160405190810160405280929190818152602001828054610b229061428f565b8015610b6f5780601f10610b4457610100808354040283529160200191610b6f565b820191906000526020600020905b815481529060010190602001808311610b5257829003601f168201915b505050505090506000610b80611ccc565b9050600081511415610b96578192505050610bd9565b600082511115610bcb578082604051602001610bb3929190613973565b60405160208183030381529060405292505050610bd9565b610bd484611ce3565b925050505b919050565b6000610bea6007611d8a565b90506000610bf782611d98565b9050600060098080549050610c2a84604051602001610c169190613ca5565b604051602081830303815290604052611f45565b610c34919061430a565b81548110610c6b577f4e487b7100000000000000000000000000000000000000000000000000000000600052603260045260246000fd5b906000526020600020018054610c809061428f565b80601f0160208091040260200160405190810160405280929190818152602001828054610cac9061428f565b8015610cf95780601f10610cce57610100808354040283529160200191610cf9565b820191906000526020600020905b815481529060010190602001808311610cdc57829003601f168201915b505050505090506000600a8080549050610d3185604051602001610d1d9190613c83565b604051602081830303815290604052611f45565b610d3b919061430a565b81548110610d72577f4e487b7100000000000000000000000000000000000000000000000000000000600052603260045260246000fd5b906000526020600020018054610d879061428f565b80601f0160208091040260200160405190810160405280929190818152602001828054610db39061428f565b8015610e005780601f10610dd557610100808354040283529160200191610e00565b820191906000526020600020905b815481529060010190602001808311610de357829003601f168201915b505050505090506000600b8080549050610e3886604051602001610e249190613c3f565b604051602081830303815290604052611f45565b610e42919061430a565b81548110610e79577f4e487b7100000000000000000000000000000000000000000000000000000000600052603260045260246000fd5b906000526020600020018054610e8e9061428f565b80601f0160208091040260200160405190810160405280929190818152602001828054610eba9061428f565b8015610f075780601f10610edc57610100808354040283529160200191610f07565b820191906000526020600020905b815481529060010190602001808311610eea57829003601f168201915b505050505090506000600c8080549050610f3f87604051602001610f2b9190613b7c565b604051602081830303815290604052611f45565b610f49919061430a565b81548110610f80577f4e487b7100000000000000000000000000000000000000000000000000000000600052603260045260246000fd5b906000526020600020018054610f959061428f565b80601f0160208091040260200160405190810160405280929190818152602001828054610fc19061428f565b801561100e5780601f10610fe35761010080835404028352916020019161100e565b820191906000526020600020905b815481529060010190602001808311610ff157829003601f168201915b505050505090506000600d8080549050611046886040516020016110329190613c1d565b604051602081830303815290604052611f45565b611050919061430a565b81548110611087577f4e487b7100000000000000000000000000000000000000000000000000000000600052603260045260246000fd5b90600052602060002001805461109c9061428f565b80601f01602080910402602001604051908101604052809291908181526020018280546110c89061428f565b80156111155780601f106110ea57610100808354040283529160200191611115565b820191906000526020600020905b8154815290600101906020018083116110f857829003601f168201915b505050505090506000600e808054905061114d896040516020016111399190613b5a565b604051602081830303815290604052611f45565b611157919061430a565b8154811061118e577f4e487b7100000000000000000000000000000000000000000000000000000000600052603260045260246000fd5b9060005260206000200180546111a39061428f565b80601f01602080910402602001604051908101604052809291908181526020018280546111cf9061428f565b801561121c5780601f106111f15761010080835404028352916020019161121c565b820191906000526020600020905b8154815290600101906020018083116111ff57829003601f168201915b505050505090506000600f80805490506112548a6040516020016112409190613b38565b604051602081830303815290604052611f45565b61125e919061430a565b81548110611295577f4e487b7100000000000000000000000000000000000000000000000000000000600052603260045260246000fd5b9060005260206000200180546112aa9061428f565b80601f01602080910402602001604051908101604052809291908181526020018280546112d69061428f565b80156113235780601f106112f857610100808354040283529160200191611323565b820191906000526020600020905b81548152906001019060200180831161130657829003601f168201915b5050505050905060006010808054905061135b8b6040516020016113479190613c61565b604051602081830303815290604052611f45565b611365919061430a565b8154811061139c577f4e487b7100000000000000000000000000000000000000000000000000000000600052603260045260246000fd5b9060005260206000200180546113b19061428f565b80601f01602080910402602001604051908101604052809291908181526020018280546113dd9061428f565b801561142a5780601f106113ff5761010080835404028352916020019161142a565b820191906000526020600020905b81548152906001019060200180831161140d57829003601f168201915b5050505050905060008888888888888888604051602001611452989796959493929190613997565b6040516020818303038152906040529050600060088a8a8a8a8a8a8a8a60405160200161148799989796959493929190613a56565b604051602081830303815290604052905060006114ce83846114a885611f78565b6040516020016114ba93929190613b9e565b604051602081830303815290604052611f78565b90506000816040516020016114e39190613bfb565b60405160208183030381529060405290506115326040518060400160405280601581526020017f0a2d2d2d2d2d2d2d2d2d2d2d2d2d2d2d2d2d2d2d2d0000000000000000000000815250611706565b61153b81611706565b6115796040518060400160405280601581526020017f2d2d2d2d2d2d2d2d2d2d2d2d2d2d2d2d2d2d2d2d0a0000000000000000000000815250611706565b611583338f612136565b61158d8e82612154565b61159760076121c8565b7f94d6ff200488cdd10988e4231e6cd137c58358a6095774752fc33277afdcd4488e336040516115c8929190613f86565b60405180910390a15050505050505050505050505050565b6000600560008473ffffffffffffffffffffffffffffffffffffffff1673ffffffffffffffffffffffffffffffffffffffff16815260200190815260200160002060008373ffffffffffffffffffffffffffffffffffffffff1673ffffffffffffffffffffffffffffffffffffffff16815260200190815260200160002060009054906101000a900460ff16905092915050565b606060006116aa8561168586611d98565b604051602001611696929190613973565b604051602081830303815290604052611f45565b90508251816116b9919061430a565b90508281815181106116f4577f4e487b7100000000000000000000000000000000000000000000000000000000600052603260045260246000fd5b60200260200101519150509392505050565b61179c8160405160240161171a9190613d49565b6040516020818303038152906040527f41304fac000000000000000000000000000000000000000000000000000000007bffffffffffffffffffffffffffffffffffffffffffffffffffffffff19166020820180517bffffffffffffffffffffffffffffffffffffffffffffffffffffffff83818316178352505050506121de565b50565b60007f01ffc9a7000000000000000000000000000000000000000000000000000000007bffffffffffffffffffffffffffffffffffffffffffffffffffffffff1916827bffffffffffffffffffffffffffffffffffffffffffffffffffffffff1916149050919050565b60008073ffffffffffffffffffffffffffffffffffffffff166002600084815260200190815260200160002060009054906101000a900473ffffffffffffffffffffffffffffffffffffffff1673ffffffffffffffffffffffffffffffffffffffff1614159050919050565b600033905090565b816004600083815260200190815260200160002060006101000a81548173ffffffffffffffffffffffffffffffffffffffff021916908373ffffffffffffffffffffffffffffffffffffffff160217905550808273ffffffffffffffffffffffffffffffffffffffff166118f0836106ad565b73ffffffffffffffffffffffffffffffffffffffff167f8c5be1e5ebec7d5bd14f71427d1e84f3dd0314c0f7b2291e5b200ac8c7c3b92560405160405180910390a45050565b600061194182611809565b611980576040517f08c379a000000000000000000000000000000000000000000000000000000000815260040161197790613deb565b60405180910390fd5b600061198b836106ad565b90508073ffffffffffffffffffffffffffffffffffffffff168473ffffffffffffffffffffffffffffffffffffffff1614806119fa57508373ffffffffffffffffffffffffffffffffffffffff166119e284610490565b73ffffffffffffffffffffffffffffffffffffffff16145b80611a0b5750611a0a81856115e0565b5b91505092915050565b8273ffffffffffffffffffffffffffffffffffffffff16611a34826106ad565b73ffffffffffffffffffffffffffffffffffffffff1614611a8a576040517f08c379a0000000000000000000000000000000000000000000000000000000008152600401611a8190613eeb565b60405180910390fd5b600073ffffffffffffffffffffffffffffffffffffffff168273ffffffffffffffffffffffffffffffffffffffff161415611afa576040517f08c379a0000000000000000000000000000000000000000000000000000000008152600401611af190613dab565b60405180910390fd5b611b05838383612207565b611b1060008261187d565b6001600360008573ffffffffffffffffffffffffffffffffffffffff1673ffffffffffffffffffffffffffffffffffffffff1681526020019081526020016000206000828254611b6091906141a5565b925050819055506001600360008473ffffffffffffffffffffffffffffffffffffffff1673ffffffffffffffffffffffffffffffffffffffff1681526020019081526020016000206000828254611bb791906140c4565b92505081905550816002600083815260200190815260200160002060006101000a81548173ffffffffffffffffffffffffffffffffffffffff021916908373ffffffffffffffffffffffffffffffffffffffff160217905550808273ffffffffffffffffffffffffffffffffffffffff168473ffffffffffffffffffffffffffffffffffffffff167fddf252ad1be2c89b69c2b068fc378daa952ba7f163c4a11628f55a4df523b3ef60405160405180910390a4505050565b611c7b848484611a14565b611c878484848461220c565b611cc6576040517f08c379a0000000000000000000000000000000000000000000000000000000008152600401611cbd90613d6b565b60405180910390fd5b50505050565b606060405180602001604052806000815250905090565b6060611cee82611809565b611d2d576040517f08c379a0000000000000000000000000000000000000000000000000000000008152600401611d2490613f0b565b60405180910390fd5b6000611d37611ccc565b90506000815111611d575760405180602001604052806000815250611d82565b80611d6184611d98565b604051602001611d72929190613973565b6040516020818303038152906040525b915050919050565b600081600001549050919050565b60606000821415611de0576040518060400160405280600181526020017f30000000000000000000000000000000000000000000000000000000000000008152509050611f40565b600082905060005b60008214611e12578080611dfb906142c1565b915050600a82611e0b919061411a565b9150611de8565b60008167ffffffffffffffff811115611e54577f4e487b7100000000000000000000000000000000000000000000000000000000600052604160045260246000fd5b6040519080825280601f01601f191660200182016040528015611e865781602001600182028036833780820191505090505b5090505b60008514611f3957600182611e9f91906141a5565b9150600a85611eae919061430a565b6030611eba91906140c4565b60f81b818381518110611ef6577f4e487b7100000000000000000000000000000000000000000000000000000000600052603260045260246000fd5b60200101907effffffffffffffffffffffffffffffffffffffffffffffffffffffffffffff1916908160001a905350600a85611f32919061411a565b9450611e8a565b8093505050505b919050565b600081604051602001611f58919061395c565b6040516020818303038152906040528051906020012060001c9050919050565b60606000825190506000811415611fa15760405180602001604052806000815250915050612131565b60006003600283611fb291906140c4565b611fbc919061411a565b6004611fc8919061414b565b90506000602082611fd991906140c4565b67ffffffffffffffff811115612018577f4e487b7100000000000000000000000000000000000000000000000000000000600052604160045260246000fd5b6040519080825280601f01601f19166020018201604052801561204a5781602001600182028036833780820191505090505b5090506000604051806060016040528060408152602001614465604091399050600181016020830160005b868110156120ee5760038101905062ffffff818a015116603f8160121c168401518060081b905060ff603f83600c1c1686015116810190508060081b905060ff603f8360061c1686015116810190508060081b905060ff603f831686015116810190508060e01b90508084526004840193505050612075565b506003860660018114612108576002811461211857612123565b613d3d60f01b6002830352612123565b603d60f81b60018303525b508484525050819450505050505b919050565b6121508282604051806020016040528060008152506123a3565b5050565b61215d82611809565b61219c576040517f08c379a000000000000000000000000000000000000000000000000000000000815260040161219390613e6b565b60405180910390fd5b806006600084815260200190815260200160002090805190602001906121c39291906125df565b505050565b6001816000016000828254019250508190555050565b60008151905060006a636f6e736f6c652e6c6f679050602083016000808483855afa5050505050565b505050565b600061222d8473ffffffffffffffffffffffffffffffffffffffff166123fe565b15612396578373ffffffffffffffffffffffffffffffffffffffff1663150b7a02612256611875565b8786866040518563ffffffff1660e01b81526004016122789493929190613ce2565b602060405180830381600087803b15801561229257600080fd5b505af19250505080156122c357506040513d601f19601f820116820180604052508101906122c09190612a12565b60015b612346573d80600081146122f3576040519150601f19603f3d011682016040523d82523d6000602084013e6122f8565b606091505b5060008151141561233e576040517f08c379a000000000000000000000000000000000000000000000000000000000815260040161233590613d6b565b60405180910390fd5b805181602001fd5b63150b7a0260e01b7bffffffffffffffffffffffffffffffffffffffffffffffffffffffff1916817bffffffffffffffffffffffffffffffffffffffffffffffffffffffff19161491505061239b565b600190505b949350505050565b6123ad8383612411565b6123ba600084848461220c565b6123f9576040517f08c379a00000000000000000000000000000000000000000000000000000000081526004016123f090613d6b565b60405180910390fd5b505050565b600080823b905060008111915050919050565b600073ffffffffffffffffffffffffffffffffffffffff168273ffffffffffffffffffffffffffffffffffffffff161415612481576040517f08c379a000000000000000000000000000000000000000000000000000000000815260040161247890613e8b565b60405180910390fd5b61248a81611809565b156124ca576040517f08c379a00000000000000000000000000000000000000000000000000000000081526004016124c190613d8b565b60405180910390fd5b6124d660008383612207565b6001600360008473ffffffffffffffffffffffffffffffffffffffff1673ffffffffffffffffffffffffffffffffffffffff168152602001908152602001600020600082825461252691906140c4565b92505081905550816002600083815260200190815260200160002060006101000a81548173ffffffffffffffffffffffffffffffffffffffff021916908373ffffffffffffffffffffffffffffffffffffffff160217905550808273ffffffffffffffffffffffffffffffffffffffff16600073ffffffffffffffffffffffffffffffffffffffff167fddf252ad1be2c89b69c2b068fc378daa952ba7f163c4a11628f55a4df523b3ef60405160405180910390a45050565b8280546125eb9061428f565b90600052602060002090601f01602090048101928261260d5760008555612654565b82601f1061262657805160ff1916838001178555612654565b82800160010185558215612654579182015b82811115612653578251825591602001919060010190612638565b5b5090506126619190612665565b5090565b5b8082111561267e576000816000905550600101612666565b5090565b600061269561269084613fe0565b613faf565b9050808382526020820190508260005b858110156126d557813585016126bb8882612803565b8452602084019350602083019250506001810190506126a5565b5050509392505050565b60006126f26126ed8461400c565b613faf565b90508281526020810184848401111561270a57600080fd5b61271584828561424d565b509392505050565b600061273061272b8461403c565b613faf565b90508281526020810184848401111561274857600080fd5b61275384828561424d565b509392505050565b60008135905061276a81614408565b92915050565b600082601f83011261278157600080fd5b8135612791848260208601612682565b91505092915050565b6000813590506127a98161441f565b92915050565b6000813590506127be81614436565b92915050565b6000815190506127d381614436565b92915050565b600082601f8301126127ea57600080fd5b81356127fa8482602086016126df565b91505092915050565b600082601f83011261281457600080fd5b813561282484826020860161271d565b91505092915050565b60008135905061283c8161444d565b92915050565b60006020828403121561285457600080fd5b60006128628482850161275b565b91505092915050565b6000806040838503121561287e57600080fd5b600061288c8582860161275b565b925050602061289d8582860161275b565b9150509250929050565b6000806000606084860312156128bc57600080fd5b60006128ca8682870161275b565b93505060206128db8682870161275b565b92505060406128ec8682870161282d565b9150509250925092565b6000806000806080858703121561290c57600080fd5b600061291a8782880161275b565b945050602061292b8782880161275b565b935050604061293c8782880161282d565b925050606085013567ffffffffffffffff81111561295957600080fd5b612965878288016127d9565b91505092959194509250565b6000806040838503121561298457600080fd5b60006129928582860161275b565b92505060206129a38582860161279a565b9150509250929050565b600080604083850312156129c057600080fd5b60006129ce8582860161275b565b92505060206129df8582860161282d565b9150509250929050565b6000602082840312156129fb57600080fd5b6000612a09848285016127af565b91505092915050565b600060208284031215612a2457600080fd5b6000612a32848285016127c4565b91505092915050565b600080600060608486031215612a5057600080fd5b600084013567ffffffffffffffff811115612a6a57600080fd5b612a7686828701612803565b9350506020612a878682870161282d565b925050604084013567ffffffffffffffff811115612aa457600080fd5b612ab086828701612770565b9150509250925092565b600060208284031215612acc57600080fd5b6000612ada8482850161282d565b91505092915050565b612aec816141d9565b82525050565b612afb816141eb565b82525050565b6000612b0c82614081565b612b168185614097565b9350612b2681856020860161425c565b612b2f816143f7565b840191505092915050565b6000612b458261408c565b612b4f81856140a8565b9350612b5f81856020860161425c565b612b68816143f7565b840191505092915050565b6000612b7e8261408c565b612b8881856140b9565b9350612b9881856020860161425c565b80840191505092915050565b60008154612bb18161428f565b612bbb81866140b9565b94506001821660008114612bd65760018114612be757612c1a565b60ff19831686528186019350612c1a565b612bf08561406c565b60005b83811015612c1257815481890152600182019150602081019050612bf3565b838801955050505b50505092915050565b6000612c306036836140b9565b91507f3c2f746578743e3c7465787420636c6173733d276261736527206d617267696e60008301527f3d273270782720783d2734252720793d27333225273e000000000000000000006020830152603682019050919050565b6000612c966036836140b9565b91507f3c2f746578743e3c7465787420636c6173733d276261736527206d617267696e60008301527f3d273270782720783d2734252720793d27343025273e000000000000000000006020830152603682019050919050565b6000612cfc602e836140b9565b91507f3c7465787420636c6173733d276261736527206d617267696e3d27327078272060008301527f783d2734252720793d273825273e0000000000000000000000000000000000006020830152602e82019050919050565b6000612d626013836140b9565b91507f222c20226465736372697074696f6e223a2022000000000000000000000000006000830152601382019050919050565b6000612da26032836140a8565b91507f4552433732313a207472616e7366657220746f206e6f6e20455243373231526560008301527f63656976657220696d706c656d656e74657200000000000000000000000000006020830152604082019050919050565b6000612e086008836140b9565b91507f43524146544552530000000000000000000000000000000000000000000000006000830152600882019050919050565b6000612e48601c836140a8565b91507f4552433732313a20746f6b656e20616c7265616479206d696e746564000000006000830152602082019050919050565b6000612e886009836140b9565b91507f49534c414e4445525300000000000000000000000000000000000000000000006000830152600982019050919050565b6000612ec86046836140b9565b91507f2045646974696f6e206f662044696e6f736175727320616e642043617665732260008301527f2c2022696d616765223a2022646174613a696d6167652f7376672b786d6c3b6260208301527f61736536342c00000000000000000000000000000000000000000000000000006040830152604682019050919050565b6000612f546024836140a8565b91507f4552433732313a207472616e7366657220746f20746865207a65726f2061646460008301527f72657373000000000000000000000000000000000000000000000000000000006020830152604082019050919050565b6000612fba6019836140a8565b91507f4552433732313a20617070726f766520746f2063616c6c6572000000000000006000830152602082019050919050565b6000612ffa602c836140a8565b91507f4552433732313a206f70657261746f7220717565727920666f72206e6f6e657860008301527f697374656e7420746f6b656e00000000000000000000000000000000000000006020830152604082019050919050565b6000613060600d836140b9565b91507f3c2f746578743e3c2f7376673e000000000000000000000000000000000000006000830152600d82019050919050565b60006130a06001836140b9565b91507f20000000000000000000000000000000000000000000000000000000000000006000830152600182019050919050565b60006130e06038836140a8565b91507f4552433732313a20617070726f76652063616c6c6572206973206e6f74206f7760008301527f6e6572206e6f7220617070726f76656420666f7220616c6c00000000000000006020830152604082019050919050565b60006131466036836140b9565b91507f3c2f746578743e3c7465787420636c6173733d276261736527206d617267696e60008301527f3d273270782720783d2734252720793d27313625273e000000000000000000006020830152603682019050919050565b60006131ac6036836140b9565b91507f3c2f746578743e3c7465787420636c6173733d276261736527206d617267696e60008301527f3d273270782720783d2734252720793d27343825273e000000000000000000006020830152603682019050919050565b60006132126036836140b9565b91507f3c2f746578743e3c7465787420636c6173733d276261736527206d617267696e60008301527f3d273270782720783d2734252720793d27363425273e000000000000000000006020830152603682019050919050565b6000613278602a836140a8565b91507f4552433732313a2062616c616e636520717565727920666f7220746865207a6560008301527f726f2061646472657373000000000000000000000000000000000000000000006020830152604082019050919050565b60006132de6029836140a8565b91507f4552433732313a206f776e657220717565727920666f72206e6f6e657869737460008301527f656e7420746f6b656e00000000000000000000000000000000000000000000006020830152604082019050919050565b6000613344602e836140a8565b91507f45524337323155524953746f726167653a2055524920736574206f66206e6f6e60008301527f6578697374656e7420746f6b656e0000000000000000000000000000000000006020830152604082019050919050565b60006133aa6002836140b9565b91507f227d0000000000000000000000000000000000000000000000000000000000006000830152600282019050919050565b60006133ea6020836140a8565b91507f4552433732313a206d696e7420746f20746865207a65726f20616464726573736000830152602082019050919050565b600061342a600c836140b9565b91507f46524f5a454e5f4c414e445300000000000000000000000000000000000000006000830152600c82019050919050565b600061346a6031836140a8565b91507f45524337323155524953746f726167653a2055524920717565727920666f722060008301527f6e6f6e6578697374656e7420746f6b656e0000000000000000000000000000006020830152604082019050919050565b60006134d0602c836140a8565b91507f4552433732313a20617070726f76656420717565727920666f72206e6f6e657860008301527f697374656e7420746f6b656e00000000000000000000000000000000000000006020830152604082019050919050565b60006135366029836140a8565b91507f4552433732313a207472616e73666572206f6620746f6b656e2074686174206960008301527f73206e6f74206f776e00000000000000000000000000000000000000000000006020830152604082019050919050565b600061359c6036836140b9565b91507f3c2f746578743e3c7465787420636c6173733d276261736527206d617267696e60008301527f3d273270782720783d2734252720793d27323425273e000000000000000000006020830152603682019050919050565b6000613602602f836140a8565b91507f4552433732314d657461646174613a2055524920717565727920666f72206e6f60008301527f6e6578697374656e7420746f6b656e00000000000000000000000000000000006020830152604082019050919050565b6000613668600a836140b9565b91507f7b226e616d65223a2022000000000000000000000000000000000000000000006000830152600a82019050919050565b60006136a86036836140b9565b91507f3c2f746578743e3c7465787420636c6173733d276261736527206d617267696e60008301527f3d273270782720783d2734252720793d27353625273e000000000000000000006020830152603682019050919050565b600061370e6021836140a8565b91507f4552433732313a20617070726f76616c20746f2063757272656e74206f776e6560008301527f72000000000000000000000000000000000000000000000000000000000000006020830152604082019050919050565b6000613774601d836140b9565b91507f646174613a6170706c69636174696f6e2f6a736f6e3b6261736536342c0000006000830152601d82019050919050565b60006137b46031836140a8565b91507f4552433732313a207472616e736665722063616c6c6572206973206e6f74206f60008301527f776e6572206e6f7220617070726f7665640000000000000000000000000000006020830152604082019050919050565b600061381a600e836140b9565b91507f4741524d454e545f4d414b4552530000000000000000000000000000000000006000830152600e82019050919050565b600061385a600b836140b9565b91507f464f4f445f4d414b4552530000000000000000000000000000000000000000006000830152600b82019050919050565b600061389a600d836140b9565b91507f4d4f554e5441494e5f464f4c4b000000000000000000000000000000000000006000830152600d82019050919050565b60006138da6009836140b9565b91507f4641524d5f464f4c4b00000000000000000000000000000000000000000000006000830152600982019050919050565b600061391a600b836140b9565b91507f4445534552545f464f4c4b0000000000000000000000000000000000000000006000830152600b82019050919050565b61395681614243565b82525050565b60006139688284612b73565b915081905092915050565b600061397f8285612b73565b915061398b8284612b73565b91508190509392505050565b60006139a3828b612b73565b91506139ae82613093565b91506139ba828a612b73565b91506139c582613093565b91506139d18289612b73565b91506139dc82613093565b91506139e88288612b73565b91506139f382613093565b91506139ff8287612b73565b9150613a0a82613093565b9150613a168286612b73565b9150613a2182613093565b9150613a2d8285612b73565b9150613a3882613093565b9150613a448284612b73565b91508190509998505050505050505050565b6000613a62828c612ba4565b9150613a6d82612cef565b9150613a79828b612b73565b9150613a8482613139565b9150613a90828a612b73565b9150613a9b8261358f565b9150613aa78289612b73565b9150613ab282612c23565b9150613abe8288612b73565b9150613ac982612c89565b9150613ad58287612b73565b9150613ae08261319f565b9150613aec8286612b73565b9150613af78261369b565b9150613b038285612b73565b9150613b0e82613205565b9150613b1a8284612b73565b9150613b2582613053565b91508190509a9950505050505050505050565b6000613b4382612dfb565b9150613b4f8284612b73565b915081905092915050565b6000613b6582612e7b565b9150613b718284612b73565b915081905092915050565b6000613b878261341d565b9150613b938284612b73565b915081905092915050565b6000613ba98261365b565b9150613bb58286612b73565b9150613bc082612d55565b9150613bcc8285612b73565b9150613bd782612ebb565b9150613be38284612b73565b9150613bee8261339d565b9150819050949350505050565b6000613c0682613767565b9150613c128284612b73565b915081905092915050565b6000613c288261380d565b9150613c348284612b73565b915081905092915050565b6000613c4a8261384d565b9150613c568284612b73565b915081905092915050565b6000613c6c8261388d565b9150613c788284612b73565b915081905092915050565b6000613c8e826138cd565b9150613c9a8284612b73565b915081905092915050565b6000613cb08261390d565b9150613cbc8284612b73565b915081905092915050565b6000602082019050613cdc6000830184612ae3565b92915050565b6000608082019050613cf76000830187612ae3565b613d046020830186612ae3565b613d11604083018561394d565b8181036060830152613d238184612b01565b905095945050505050565b6000602082019050613d436000830184612af2565b92915050565b60006020820190508181036000830152613d638184612b3a565b905092915050565b60006020820190508181036000830152613d8481612d95565b9050919050565b60006020820190508181036000830152613da481612e3b565b9050919050565b60006020820190508181036000830152613dc481612f47565b9050919050565b60006020820190508181036000830152613de481612fad565b9050919050565b60006020820190508181036000830152613e0481612fed565b9050919050565b60006020820190508181036000830152613e24816130d3565b9050919050565b60006020820190508181036000830152613e448161326b565b9050919050565b60006020820190508181036000830152613e64816132d1565b9050919050565b60006020820190508181036000830152613e8481613337565b9050919050565b60006020820190508181036000830152613ea4816133dd565b9050919050565b60006020820190508181036000830152613ec48161345d565b9050919050565b60006020820190508181036000830152613ee4816134c3565b9050919050565b60006020820190508181036000830152613f0481613529565b9050919050565b60006020820190508181036000830152613f24816135f5565b9050919050565b60006020820190508181036000830152613f4481613701565b9050919050565b60006020820190508181036000830152613f64816137a7565b9050919050565b6000602082019050613f80600083018461394d565b92915050565b6000604082019050613f9b600083018561394d565b613fa86020830184612ae3565b9392505050565b6000604051905081810181811067ffffffffffffffff82111715613fd657613fd56143c8565b5b8060405250919050565b600067ffffffffffffffff821115613ffb57613ffa6143c8565b5b602082029050602081019050919050565b600067ffffffffffffffff821115614027576140266143c8565b5b601f19601f8301169050602081019050919050565b600067ffffffffffffffff821115614057576140566143c8565b5b601f19601f8301169050602081019050919050565b60008190508160005260206000209050919050565b600081519050919050565b600081519050919050565b600082825260208201905092915050565b600082825260208201905092915050565b600081905092915050565b60006140cf82614243565b91506140da83614243565b9250827fffffffffffffffffffffffffffffffffffffffffffffffffffffffffffffffff0382111561410f5761410e61433b565b5b828201905092915050565b600061412582614243565b915061413083614243565b9250826141405761413f61436a565b5b828204905092915050565b600061415682614243565b915061416183614243565b9250817fffffffffffffffffffffffffffffffffffffffffffffffffffffffffffffffff048311821515161561419a5761419961433b565b5b828202905092915050565b60006141b082614243565b91506141bb83614243565b9250828210156141ce576141cd61433b565b5b828203905092915050565b60006141e482614223565b9050919050565b60008115159050919050565b60007fffffffff0000000000000000000000000000000000000000000000000000000082169050919050565b600073ffffffffffffffffffffffffffffffffffffffff82169050919050565b6000819050919050565b82818337600083830152505050565b60005b8381101561427a57808201518184015260208101905061425f565b83811115614289576000848401525b50505050565b600060028204905060018216806142a757607f821691505b602082108114156142bb576142ba614399565b5b50919050565b60006142cc82614243565b91507fffffffffffffffffffffffffffffffffffffffffffffffffffffffffffffffff8214156142ff576142fe61433b565b5b600182019050919050565b600061431582614243565b915061432083614243565b9250826143305761432f61436a565b5b828206905092915050565b7f4e487b7100000000000000000000000000000000000000000000000000000000600052601160045260246000fd5b7f4e487b7100000000000000000000000000000000000000000000000000000000600052601260045260246000fd5b7f4e487b7100000000000000000000000000000000000000000000000000000000600052602260045260246000fd5b7f4e487b7100000000000000000000000000000000000000000000000000000000600052604160045260246000fd5b6000601f19601f8301169050919050565b614411816141d9565b811461441c57600080fd5b50565b614428816141eb565b811461443357600080fd5b50565b61443f816141f7565b811461444a57600080fd5b50565b61445681614243565b811461446157600080fd5b5056fe4142434445464748494a4b4c4d4e4f505152535455565758595a6162636465666768696a6b6c6d6e6f707172737475767778797a303132333435363738392b2fa264697066735822122029a6b77e7746dbfd84f58c5b27cbd756756f4a2c39f6ef9afc18b0aa54fe5e2364736f6c634300080000333c73766720786d6c6e733d27687474703a2f2f7777772e77332e6f72672f323030302f73766727207072657365727665417370656374526174696f3d27784d696e594d696e206d656574272076696577426f783d273020302033353020333530273e3c7374796c653e2e62617365207b2066696c6c3a2077686974653b20666f6e742d66616d696c793a2073657269663b20666f6e742d73697a653a20323470783b207d3c2f7374796c653e3c726563742077696474683d273130302527206865696768743d2731303025272066696c6c3d27626c61636b27202f3e",
  "linkReferences": {},
  "deployedLinkReferences": {}
}