{
  "_format": "hh-sol-artifact-1",
  "contractName": "WavePortal",
  "sourceName": "contracts/WavePortal.sol",
  "abi": [
    {
      "inputs": [],
      "stateMutability": "payable",
      "type": "constructor"
    },
    {
      "anonymous": false,
      "inputs": [
        {
          "indexed": true,
          "internalType": "address",
          "name": "from",
          "type": "address"
        },
        {
          "indexed": false,
          "internalType": "uint256",
          "name": "timestamp",
          "type": "uint256"
        },
        {
          "indexed": false,
          "internalType": "string",
          "name": "message",
          "type": "string"
        }
      ],
      "name": "NewWave",
      "type": "event"
    },
    {
      "inputs": [],
      "name": "getAllWaves",
      "outputs": [
        {
          "components": [
            {
              "internalType": "address",
              "name": "waver",
              "type": "address"
            },
            {
              "internalType": "string",
              "name": "message",
              "type": "string"
            },
            {
              "internalType": "uint256",
              "name": "timestamp",
              "type": "uint256"
            }
          ],
          "internalType": "struct WavePortal.Wave[]",
          "name": "",
          "type": "tuple[]"
        }
      ],
      "stateMutability": "view",
      "type": "function"
    },
    {
      "inputs": [],
      "name": "getMyWaves",
      "outputs": [
        {
          "internalType": "uint256",
          "name": "",
          "type": "uint256"
        }
      ],
      "stateMutability": "view",
      "type": "function"
    },
    {
      "inputs": [],
      "name": "getTotalWaves",
      "outputs": [
        {
          "internalType": "uint256",
          "name": "",
          "type": "uint256"
        }
      ],
      "stateMutability": "view",
      "type": "function"
    },
    {
      "inputs": [
        {
          "internalType": "address",
          "name": "",
          "type": "address"
        }
      ],
      "name": "lastWaved",
      "outputs": [
        {
          "internalType": "uint256",
          "name": "",
          "type": "uint256"
        }
      ],
      "stateMutability": "view",
      "type": "function"
    },
    {
      "inputs": [
        {
          "internalType": "string",
          "name": "_message",
          "type": "string"
        }
      ],
      "name": "wave",
      "outputs": [],
      "stateMutability": "nonpayable",
      "type": "function"
    }
  ],
  "bytecode": "0x60806040526200004f6040518060400160405280601781526020017f57617665506f7274616c20436f6e7374727563746564210000000000000000008152506200005560201b620007d01760201c565b620001e9565b620000f5816040516024016200006c919062000162565b6040516020818303038152906040527f41304fac000000000000000000000000000000000000000000000000000000007bffffffffffffffffffffffffffffffffffffffffffffffffffffffff19166020820180517bffffffffffffffffffffffffffffffffffffffffffffffffffffffff8381831617835250505050620000f860201b60201c565b50565b60008151905060006a636f6e736f6c652e6c6f679050602083016000808483855afa5050505050565b60006200012e8262000186565b6200013a818562000191565b93506200014c818560208601620001a2565b6200015781620001d8565b840191505092915050565b600060208201905081810360008301526200017e818462000121565b905092915050565b600081519050919050565b600082825260208201905092915050565b60005b83811015620001c2578082015181840152602081019050620001a5565b83811115620001d2576000848401525b50505050565b6000601f19601f8301169050919050565b61149f80620001f96000396000f3fe608060405234801561001057600080fd5b50600436106100575760003560e01c8063449d46c01461005c5780639a2cdc0814610078578063bd43a90814610096578063f3f2d91b146100b4578063f4920770146100d2575b600080fd5b61007660048036038101906100719190610c51565b610102565b005b610080610556565b60405161008d9190611041565b60405180910390f35b61009e6105a1565b6040516100ab9190610eba565b60405180910390f35b6100bc6106f2565b6040516100c99190611041565b60405180910390f35b6100ec60048036038101906100e79190610c28565b6107b8565b6040516100f99190611041565b60405180910390f35b426014600360003373ffffffffffffffffffffffffffffffffffffffff1673ffffffffffffffffffffffffffffffffffffffff1681526020019081526020016000205461014f9190611153565b1061018f576040517f08c379a000000000000000000000000000000000000000000000000000000000815260040161018690611001565b60405180910390fd5b42600360003373ffffffffffffffffffffffffffffffffffffffff1673ffffffffffffffffffffffffffffffffffffffff1681526020019081526020016000208190555060016000808282546101e59190611153565b9250508190555060018060003373ffffffffffffffffffffffffffffffffffffffff1673ffffffffffffffffffffffffffffffffffffffff168152602001908152602001600020600082825461023b9190611153565b925050819055506102826040518060400160405280601d81526020017f2573206a7573742077617665642077697468206d6573736167652025730000008152503383610869565b600460405180606001604052803373ffffffffffffffffffffffffffffffffffffffff16815260200183815260200142815250908060018154018082558091505060019003906000526020600020906003020160009091909190915060008201518160000160006101000a81548173ffffffffffffffffffffffffffffffffffffffff021916908373ffffffffffffffffffffffffffffffffffffffff1602179055506020820151816001019080519060200190610341929190610b08565b506040820151816002015550506000606460025442446103619190611153565b61036b9190611153565b610375919061128a565b90506103b66040518060400160405280601b81526020017f52616e646f6d206e756d6265722067656e6572617465643a202573000000000081525082610908565b806002819055506032811015610502576104056040518060400160405280600781526020017f257320776f6e2100000000000000000000000000000000000000000000000000815250336109a4565b6000655af3107a4000905047811115610453576040517f08c379a000000000000000000000000000000000000000000000000000000000815260040161044a90611021565b60405180910390fd5b60003373ffffffffffffffffffffffffffffffffffffffff168260405161047990610ea5565b60006040518083038185875af1925050503d80600081146104b6576040519150601f19603f3d011682016040523d82523d6000602084013e6104bb565b606091505b50509050806104ff576040517f08c379a00000000000000000000000000000000000000000000000000000000081526004016104f690610fe1565b60405180910390fd5b50505b3373ffffffffffffffffffffffffffffffffffffffff167f5f7e16dc676677766a70e9c5628aa6c54ddb8b6e5188e2ae1e1f17f1ffbea716428460405161054a92919061105c565b60405180910390a25050565b60006105996040518060400160405280601781526020017f5765206861766520256420746f74616c2077617665732e000000000000000000815250600054610908565b600054905090565b60606004805480602002602001604051908101604052809291908181526020016000905b828210156106e957838290600052602060002090600302016040518060600160405290816000820160009054906101000a900473ffffffffffffffffffffffffffffffffffffffff1673ffffffffffffffffffffffffffffffffffffffff1673ffffffffffffffffffffffffffffffffffffffff16815260200160018201805461064e90611227565b80601f016020809104026020016040519081016040528092919081815260200182805461067a90611227565b80156106c75780601f1061069c576101008083540402835291602001916106c7565b820191906000526020600020905b8154815290600101906020018083116106aa57829003601f168201915b50505050508152602001600282015481525050815260200190600101906105c5565b50505050905090565b60006107736040518060400160405280601681526020017f2573206861732077617665642025642074696d6573210000000000000000000081525033600160003373ffffffffffffffffffffffffffffffffffffffff1673ffffffffffffffffffffffffffffffffffffffff16815260200190815260200160002054610a40565b600160003373ffffffffffffffffffffffffffffffffffffffff1673ffffffffffffffffffffffffffffffffffffffff16815260200190815260200160002054905090565b60036020528060005260406000206000915090505481565b610866816040516024016107e49190610edc565b6040516020818303038152906040527f41304fac000000000000000000000000000000000000000000000000000000007bffffffffffffffffffffffffffffffffffffffffffffffffffffffff19166020820180517bffffffffffffffffffffffffffffffffffffffffffffffffffffffff8381831617835250505050610adf565b50565b61090383838360405160240161088193929190610f2e565b6040516020818303038152906040527fe0e9ad4f000000000000000000000000000000000000000000000000000000007bffffffffffffffffffffffffffffffffffffffffffffffffffffffff19166020820180517bffffffffffffffffffffffffffffffffffffffffffffffffffffffff8381831617835250505050610adf565b505050565b6109a0828260405160240161091e929190610fb1565b6040516020818303038152906040527f9710a9d0000000000000000000000000000000000000000000000000000000007bffffffffffffffffffffffffffffffffffffffffffffffffffffffff19166020820180517bffffffffffffffffffffffffffffffffffffffffffffffffffffffff8381831617835250505050610adf565b5050565b610a3c82826040516024016109ba929190610efe565b6040516020818303038152906040527f319af333000000000000000000000000000000000000000000000000000000007bffffffffffffffffffffffffffffffffffffffffffffffffffffffff19166020820180517bffffffffffffffffffffffffffffffffffffffffffffffffffffffff8381831617835250505050610adf565b5050565b610ada838383604051602401610a5893929190610f73565b6040516020818303038152906040527f07c81217000000000000000000000000000000000000000000000000000000007bffffffffffffffffffffffffffffffffffffffffffffffffffffffff19166020820180517bffffffffffffffffffffffffffffffffffffffffffffffffffffffff8381831617835250505050610adf565b505050565b60008151905060006a636f6e736f6c652e6c6f679050602083016000808483855afa5050505050565b828054610b1490611227565b90600052602060002090601f016020900481019282610b365760008555610b7d565b82601f10610b4f57805160ff1916838001178555610b7d565b82800160010185558215610b7d579182015b82811115610b7c578251825591602001919060010190610b61565b5b509050610b8a9190610b8e565b5090565b5b80821115610ba7576000816000905550600101610b8f565b5090565b6000610bbe610bb9846110b1565b61108c565b905082815260208101848484011115610bd657600080fd5b610be18482856111e5565b509392505050565b600081359050610bf881611452565b92915050565b600082601f830112610c0f57600080fd5b8135610c1f848260208601610bab565b91505092915050565b600060208284031215610c3a57600080fd5b6000610c4884828501610be9565b91505092915050565b600060208284031215610c6357600080fd5b600082013567ffffffffffffffff811115610c7d57600080fd5b610c8984828501610bfe565b91505092915050565b6000610c9e8383610e37565b905092915050565b610caf816111a9565b82525050565b610cbe816111a9565b82525050565b6000610ccf826110f2565b610cd98185611115565b935083602082028501610ceb856110e2565b8060005b85811015610d275784840389528151610d088582610c92565b9450610d1383611108565b925060208a01995050600181019050610cef565b50829750879550505050505092915050565b6000610d44826110fd565b610d4e8185611131565b9350610d5e8185602086016111f4565b610d6781611377565b840191505092915050565b6000610d7d826110fd565b610d878185611142565b9350610d978185602086016111f4565b610da081611377565b840191505092915050565b6000610db8601c83611142565b9150610dc382611388565b602082019050919050565b6000610ddb602883611142565b9150610de6826113b1565b604082019050919050565b6000610dfe600083611126565b9150610e0982611400565b600082019050919050565b6000610e21603483611142565b9150610e2c82611403565b604082019050919050565b6000606083016000830151610e4f6000860182610ca6565b5060208301518482036020860152610e678282610d39565b9150506040830151610e7c6040860182610e87565b508091505092915050565b610e90816111db565b82525050565b610e9f816111db565b82525050565b6000610eb082610df1565b9150819050919050565b60006020820190508181036000830152610ed48184610cc4565b905092915050565b60006020820190508181036000830152610ef68184610d72565b905092915050565b60006040820190508181036000830152610f188185610d72565b9050610f276020830184610cb5565b9392505050565b60006060820190508181036000830152610f488186610d72565b9050610f576020830185610cb5565b8181036040830152610f698184610d72565b9050949350505050565b60006060820190508181036000830152610f8d8186610d72565b9050610f9c6020830185610cb5565b610fa96040830184610e96565b949350505050565b60006040820190508181036000830152610fcb8185610d72565b9050610fda6020830184610e96565b9392505050565b60006020820190508181036000830152610ffa81610dab565b9050919050565b6000602082019050818103600083015261101a81610dce565b9050919050565b6000602082019050818103600083015261103a81610e14565b9050919050565b60006020820190506110566000830184610e96565b92915050565b60006040820190506110716000830185610e96565b81810360208301526110838184610d72565b90509392505050565b60006110966110a7565b90506110a28282611259565b919050565b6000604051905090565b600067ffffffffffffffff8211156110cc576110cb611348565b5b6110d582611377565b9050602081019050919050565b6000819050602082019050919050565b600081519050919050565b600081519050919050565b6000602082019050919050565b600082825260208201905092915050565b600081905092915050565b600082825260208201905092915050565b600082825260208201905092915050565b600061115e826111db565b9150611169836111db565b9250827fffffffffffffffffffffffffffffffffffffffffffffffffffffffffffffffff0382111561119e5761119d6112bb565b5b828201905092915050565b60006111b4826111bb565b9050919050565b600073ffffffffffffffffffffffffffffffffffffffff82169050919050565b6000819050919050565b82818337600083830152505050565b60005b838110156112125780820151818401526020810190506111f7565b83811115611221576000848401525b50505050565b6000600282049050600182168061123f57607f821691505b6020821081141561125357611252611319565b5b50919050565b61126282611377565b810181811067ffffffffffffffff8211171561128157611280611348565b5b80604052505050565b6000611295826111db565b91506112a0836111db565b9250826112b0576112af6112ea565b5b828206905092915050565b7f4e487b7100000000000000000000000000000000000000000000000000000000600052601160045260246000fd5b7f4e487b7100000000000000000000000000000000000000000000000000000000600052601260045260246000fd5b7f4e487b7100000000000000000000000000000000000000000000000000000000600052602260045260246000fd5b7f4e487b7100000000000000000000000000000000000000000000000000000000600052604160045260246000fd5b6000601f19601f8301169050919050565b7f4661696c656420746f207769746864726177206d6f6e6579203a282800000000600082015250565b7f596f752063616e206f6e6c792077617665206f6e63652065766572792032302060008201527f7365636f6e647321000000000000000000000000000000000000000000000000602082015250565b50565b7f547279696e6720746f207769746864726177206d6f7265206d6f6e657920746860008201527f616e2074686520636f6e74726163742068617321000000000000000000000000602082015250565b61145b816111a9565b811461146657600080fd5b5056fea26469706673582212207968182ff456fef788b9772c7bc37894e6f8d68763a1d9fc3b9deeb80c009a6f64736f6c63430008040033",
  "linkReferences": {},
  "deployedLinkReferences": {}
}